{
  "contracts/Crowdfund.sol": {
    "Crowdfund": {
      "abi": [
        {
          "inputs": [
            {
              "internalType": "address",
              "name": "_owner",
              "type": "address"
            }
          ],
          "stateMutability": "nonpayable",
          "type": "constructor"
        },
        {
          "inputs": [],
          "name": "CrowdFund__AmountFail",
          "type": "error"
        },
        {
          "inputs": [
            {
              "internalType": "uint256",
              "name": "pledged",
              "type": "uint256"
            },
            {
              "internalType": "uint256",
              "name": "goal",
              "type": "uint256"
            },
            {
              "internalType": "string",
              "name": "message",
              "type": "string"
            }
          ],
          "name": "CrowdFund__Goal",
          "type": "error"
        },
        {
          "inputs": [
            {
              "internalType": "string",
              "name": "message",
              "type": "string"
            }
          ],
          "name": "CrowdFund__HasClaimed",
          "type": "error"
        },
        {
          "inputs": [
            {
              "internalType": "uint256",
              "name": "requiered",
              "type": "uint256"
            },
            {
              "internalType": "uint256",
              "name": "actual",
              "type": "uint256"
            },
            {
              "internalType": "string",
              "name": "message",
              "type": "string"
            }
          ],
          "name": "CrowdFund__MinimumContribution",
          "type": "error"
        },
        {
          "inputs": [
            {
              "internalType": "string",
              "name": "message",
              "type": "string"
            }
          ],
          "name": "CrowdFund__NotCreator",
          "type": "error"
        },
        {
          "inputs": [
            {
              "internalType": "string",
              "name": "message",
              "type": "string"
            }
          ],
          "name": "CrowdFund__TimeFailing",
          "type": "error"
        },
        {
          "inputs": [],
          "name": "CrowdFund__TransferFailed",
          "type": "error"
        },
        {
          "anonymous": false,
          "inputs": [
            {
              "indexed": false,
              "internalType": "uint256",
              "name": "id",
              "type": "uint256"
            }
          ],
          "name": "Cancel",
          "type": "event"
        },
        {
          "anonymous": false,
          "inputs": [
            {
              "indexed": false,
              "internalType": "uint256",
              "name": "id",
              "type": "uint256"
            }
          ],
          "name": "Claim",
          "type": "event"
        },
        {
          "anonymous": false,
          "inputs": [
            {
              "indexed": false,
              "internalType": "uint256",
              "name": "id",
              "type": "uint256"
            },
            {
              "indexed": true,
              "internalType": "address",
              "name": "creator",
              "type": "address"
            },
            {
              "indexed": false,
              "internalType": "string",
              "name": "description",
              "type": "string"
            },
            {
              "indexed": false,
              "internalType": "uint256",
              "name": "goal",
              "type": "uint256"
            },
            {
              "indexed": false,
              "internalType": "uint256",
              "name": "minimumContribution",
              "type": "uint256"
            },
            {
              "indexed": false,
              "internalType": "uint32",
              "name": "startAt",
              "type": "uint32"
            },
            {
              "indexed": false,
              "internalType": "uint32",
              "name": "endAt",
              "type": "uint32"
            }
          ],
          "name": "LaunchCampign",
          "type": "event"
        },
        {
          "anonymous": false,
          "inputs": [
            {
              "indexed": true,
              "internalType": "uint256",
              "name": "id",
              "type": "uint256"
            },
            {
              "indexed": true,
              "internalType": "address",
              "name": "caller",
              "type": "address"
            },
            {
              "indexed": false,
              "internalType": "uint256",
              "name": "amount",
              "type": "uint256"
            }
          ],
          "name": "Pledge",
          "type": "event"
        },
        {
          "anonymous": false,
          "inputs": [
            {
              "indexed": false,
              "internalType": "uint256",
              "name": "id",
              "type": "uint256"
            },
            {
              "indexed": true,
              "internalType": "address",
              "name": "caller",
              "type": "address"
            },
            {
              "indexed": false,
              "internalType": "uint256",
              "name": "amount",
              "type": "uint256"
            }
          ],
          "name": "Refund",
          "type": "event"
        },
        {
          "anonymous": false,
          "inputs": [
            {
              "indexed": true,
              "internalType": "uint256",
              "name": "id",
              "type": "uint256"
            },
            {
              "indexed": true,
              "internalType": "address",
              "name": "caller",
              "type": "address"
            },
            {
              "indexed": false,
              "internalType": "uint256",
              "name": "amount",
              "type": "uint256"
            }
          ],
          "name": "Unpledge",
          "type": "event"
        },
        {
          "inputs": [
            {
              "internalType": "uint256",
              "name": "_id",
              "type": "uint256"
            }
          ],
          "name": "cancel",
          "outputs": [],
          "stateMutability": "nonpayable",
          "type": "function"
        },
        {
          "inputs": [
            {
              "internalType": "uint256",
              "name": "_id",
              "type": "uint256"
            }
          ],
          "name": "claim",
          "outputs": [],
          "stateMutability": "nonpayable",
          "type": "function"
        },
        {
          "inputs": [],
          "name": "getBalance",
          "outputs": [
            {
              "internalType": "uint256",
              "name": "",
              "type": "uint256"
            }
          ],
          "stateMutability": "view",
          "type": "function"
        },
        {
          "inputs": [
            {
              "internalType": "uint256",
              "name": "index",
              "type": "uint256"
            }
          ],
          "name": "getCampaignAtIndex",
          "outputs": [
            {
              "components": [
                {
                  "internalType": "address",
                  "name": "creator",
                  "type": "address"
                },
                {
                  "internalType": "string",
                  "name": "description",
                  "type": "string"
                },
                {
                  "internalType": "uint256",
                  "name": "goal",
                  "type": "uint256"
                },
                {
                  "internalType": "uint256",
                  "name": "pledged",
                  "type": "uint256"
                },
                {
                  "internalType": "uint32",
                  "name": "startAt",
                  "type": "uint32"
                },
                {
                  "internalType": "uint32",
                  "name": "endAt",
                  "type": "uint32"
                },
                {
                  "internalType": "bool",
                  "name": "claimed",
                  "type": "bool"
                },
                {
                  "internalType": "uint256",
                  "name": "minimumContribution",
                  "type": "uint256"
                }
              ],
              "internalType": "struct Crowdfund.Campaign",
              "name": "",
              "type": "tuple"
            }
          ],
          "stateMutability": "view",
          "type": "function"
        },
        {
          "inputs": [],
          "name": "getCampignsCount",
          "outputs": [
            {
              "internalType": "uint256",
              "name": "",
              "type": "uint256"
            }
          ],
          "stateMutability": "view",
          "type": "function"
        },
        {
          "inputs": [
            {
              "internalType": "uint256",
              "name": "index",
              "type": "uint256"
            }
          ],
          "name": "getMyPledgedAmount",
          "outputs": [
            {
              "internalType": "uint256",
              "name": "",
              "type": "uint256"
            }
          ],
          "stateMutability": "view",
          "type": "function"
        },
        {
          "inputs": [],
          "name": "getOwner",
          "outputs": [
            {
              "internalType": "address",
              "name": "",
              "type": "address"
            }
          ],
          "stateMutability": "view",
          "type": "function"
        },
        {
          "inputs": [
            {
              "internalType": "string",
              "name": "_description",
              "type": "string"
            },
            {
              "internalType": "uint256",
              "name": "_goal",
              "type": "uint256"
            },
            {
              "internalType": "uint256",
              "name": "_minimumContribution",
              "type": "uint256"
            },
            {
              "internalType": "uint32",
              "name": "_startAt",
              "type": "uint32"
            },
            {
              "internalType": "uint32",
              "name": "_endAt",
              "type": "uint32"
            }
          ],
          "name": "launchCampign",
          "outputs": [],
          "stateMutability": "nonpayable",
          "type": "function"
        },
        {
          "inputs": [
            {
              "internalType": "uint256",
              "name": "_id",
              "type": "uint256"
            }
          ],
          "name": "pledge",
          "outputs": [],
          "stateMutability": "payable",
          "type": "function"
        },
        {
          "inputs": [
            {
              "internalType": "uint256",
              "name": "_id",
              "type": "uint256"
            }
          ],
          "name": "refund",
          "outputs": [],
          "stateMutability": "nonpayable",
          "type": "function"
        },
        {
          "inputs": [
            {
              "internalType": "uint256",
              "name": "_id",
              "type": "uint256"
            },
            {
              "internalType": "uint256",
              "name": "_amount",
              "type": "uint256"
            }
          ],
          "name": "unpledge",
          "outputs": [],
          "stateMutability": "nonpayable",
          "type": "function"
        }
      ],
      "devdoc": {
        "kind": "dev",
        "methods": {},
        "version": 1
      },
      "evm": {
        "bytecode": {
          "linkReferences": {},
          "object": "60a06040523480156200001157600080fd5b50604051620043dd380380620043dd83398181016040528101906200003791906200012b565b6200006b7fcb849ae7ecc93b54836ede0e818bc2e03c4bcf737459a952ff8eb47c1b503c8660001b6200011160201b60201c565b6200009f7f67cf616ffd984f2f56faf60418366ac32fe60797baee00b83bbd6f94a20daa9f60001b6200011160201b60201c565b620000d37ff96b0adcc2d4fdc1a41addd6795cfc803a0876aa75a62cec7d56ea9fd21d876660001b6200011160201b60201c565b8073ffffffffffffffffffffffffffffffffffffffff1660808173ffffffffffffffffffffffffffffffffffffffff1660601b8152505050620001a5565b50565b60008151905062000125816200018b565b92915050565b6000602082840312156200013e57600080fd5b60006200014e8482850162000114565b91505092915050565b600062000164826200016b565b9050919050565b600073ffffffffffffffffffffffffffffffffffffffff82169050919050565b620001968162000157565b8114620001a257600080fd5b50565b60805160601c614212620001cb6000396000818161124e01526132b801526142126000f3fe60806040526004361061009c5760003560e01c80636576216d116100645780636576216d14610184578063711853ab146101c157806372e8a6c8146101ea5780637326c9c014610213578063893d20e81461022f5780638c6f0af21461025a5761009c565b806312065fe0146100a1578063278ecde1146100cc578063379607f5146100f55780633d1709f21461011e57806340e58ee51461015b575b600080fd5b3480156100ad57600080fd5b506100b6610285565b6040516100c39190613b03565b60405180910390f35b3480156100d857600080fd5b506100f360048036038101906100ee91906135da565b610311565b005b34801561010157600080fd5b5061011c600480360381019061011791906135da565b610b61565b005b34801561012a57600080fd5b50610145600480360381019061014091906135da565b6115d3565b6040516101529190613b03565b60405180910390f35b34801561016757600080fd5b50610182600480360381019061017d91906135da565b6116b1565b005b34801561019057600080fd5b506101ab60048036038101906101a691906135da565b611ca2565b6040516101b89190613ae1565b60405180910390f35b3480156101cd57600080fd5b506101e860048036038101906101e39190613603565b611ec1565b005b3480156101f657600080fd5b50610211600480360381019061020c919061354b565b6125b1565b005b61022d600480360381019061022891906135da565b612c1b565b005b34801561023b57600080fd5b50610244613230565b60405161025191906139a6565b60405180910390f35b34801561026657600080fd5b5061026f6132dc565b60405161027c9190613b03565b60405180910390f35b60006102b37ff4e4d614a56c0a594db2c8f1d928cd1f42d6d22b36a4ad7ddd7e7acebf1eadac60001b61336a565b6102df7fec614b6c560b28e03ef7d9dd23824e522fb6454a6eddaab0cbe10c0ba43ada1160001b61336a565b61030b7ffca74fdabf18548dbc27f7e20e0e73190e88eacca114beda7ed2dfb25333eef160001b61336a565b47905090565b61033d7fe2448011cc1100e92de44d15398defde77f0020d94bcaa97e2609bcb87a392d960001b61336a565b6103697fd05b6c8fcbebe5943b5578ac8d5db4c1422eac63c883da70e9db355113fb0ec360001b61336a565b6103957fc85577afb69c03b6352ca714ff48d23d29250bfe845e5e242538eebc6d4d71c160001b61336a565b600060016000838152602001908152602001600020604051806101000160405290816000820160009054906101000a900473ffffffffffffffffffffffffffffffffffffffff1673ffffffffffffffffffffffffffffffffffffffff1673ffffffffffffffffffffffffffffffffffffffff16815260200160018201805461041c90613e46565b80601f016020809104026020016040519081016040528092919081815260200182805461044890613e46565b80156104955780601f1061046a57610100808354040283529160200191610495565b820191906000526020600020905b81548152906001019060200180831161047857829003601f168201915b5050505050815260200160028201548152602001600382015481526020016004820160009054906101000a900463ffffffff1663ffffffff1663ffffffff1681526020016004820160049054906101000a900463ffffffff1663ffffffff1663ffffffff1681526020016004820160089054906101000a900460ff1615151515815260200160058201548152505090506105517f86a7fead816d8a603bbf5ef0979e053d484231d7b120a447041a5c9ed55e1ff960001b61336a565b61057d7f05731b7ad747a2198782fd5d9eab0571a04ff4cc38822deb0d2e9ad8f712cfd560001b61336a565b8060a0015163ffffffff16421015610622576105bb7f26d2b71eeef3d9c9ed6233b214766bd64472a40a78bc46df999398f12677301e60001b61336a565b6105e77ff57998f18f6a370d1a7e4be699b17f377426681225d3ec3cf353b9ffdba9f64c60001b61336a565b6040517f92c18e6400000000000000000000000000000000000000000000000000000000815260040161061990613ac1565b60405180910390fd5b61064e7f3ffa723e6de053d5a18b5760602ec0c03ccbd1200e6d67ae719215d410be7efc60001b61336a565b61067a7f1deed286b8c509b519411514c54fdb1a87f33ff962005e27b5385af617cef38060001b61336a565b6106a67ff05587efc2f3c0b5c86b83745fdb13dd5541a77a307ba3cbc0c4c5877052e3d260001b61336a565b806040015181606001511115610755576106e27ff385de0738df56754df62390c6ac887776d6c1ad28ffc3b2b36a57f635cd70f160001b61336a565b61070e7f29c4d14a5ccca23d1368456761a4d1064750903607204245e011fec79ac9dfe060001b61336a565b806060015181604001516040517f3e9d646000000000000000000000000000000000000000000000000000000000815260040161074c929190613beb565b60405180910390fd5b6107817faac63b9d7b7162b08645797320d371c1a962007574b742ff8e0ae269da6bf12960001b61336a565b6107ad7fb02170413631fba38493495b1f2df542d8851911a3a3cc2d94cdc3e5ecceb3ee60001b61336a565b6107d97fb3daf6d99e4e04448fa13ac28d2747c30c9bd336e941b096226fa52b5675c2c760001b61336a565b60006002600084815260200190815260200160002060003373ffffffffffffffffffffffffffffffffffffffff1673ffffffffffffffffffffffffffffffffffffffff16815260200190815260200160002054905061085a7f88110d8f07b7594dd2157246fcee29afd05b93bc52bec0c0c6f4053fbbd7423c60001b61336a565b6108867f8e2ac6354c3a8b8a44bfca70a9eaab3852a2d74768286d5739d53f730cbbcd6960001b61336a565b60006002600085815260200190815260200160002060003373ffffffffffffffffffffffffffffffffffffffff1673ffffffffffffffffffffffffffffffffffffffff168152602001908152602001600020819055506109087fb92e95f11935109652eab900fd3c64448286513926b322b8ec31b6238795dced60001b61336a565b6109347f46266c6625c0c7187cb981f46e54e51cf1cfdcaf11dc5309b9bc4efe7dd0684560001b61336a565b60003373ffffffffffffffffffffffffffffffffffffffff168260405161095a90613991565b60006040518083038185875af1925050503d8060008114610997576040519150601f19603f3d011682016040523d82523d6000602084013e61099c565b606091505b505090506109cc7f445d66af8f94eabd8f2c68df1a8f319d178f533cf461334bdc40dbce9da704ae60001b61336a565b6109f87f3612f7ab8fe230679fec8c1e5fe4585550f12c3c6722bb9192bbdd01392f6b1160001b61336a565b80610a8757610a297f23a5fd6c5c45169fc8bcff94e58a7230bfe4467467933ceab44b1be0b3d7538360001b61336a565b610a557fe9b5f9113fc71973817d7f9ffb263b9e1a4b76ebd01825fe12844fdfdb392d4360001b61336a565b6040517f397a23d500000000000000000000000000000000000000000000000000000000815260040160405180910390fd5b610ab37f1b5b51dbd87240d100abf2136f7bf955c2b990c4a0051ba5f89e4443304feb5e60001b61336a565b610adf7fc2fcecc9dd7eb964e668ef1bff6a5a2d9a61a0e02b74f7a539b17cb178c0f8b860001b61336a565b610b0b7f42932cba279a0cecc5f3b8d116369ea7f35ec8c0209e2f03bb7ab92886f386ce60001b61336a565b3373ffffffffffffffffffffffffffffffffffffffff167f21e12a7cad0da5928167e1084ea4d5fdf8d9af66657a2543a9ac76a0ca0814778584604051610b53929190613b86565b60405180910390a250505050565b610b8d7f877b1cf55eef0e9663947795c5a3dde4d1932cadf5c4e1ce0326be0765bb6e4960001b61336a565b610bb97fdf648ea3a781fe3a48be498bdd3b1313d5be58cb9b64426f6949851fb14daa7160001b61336a565b610be57fec93851c38211ad552a8fd7d3c8d4bd3aa66213ffdc89169e038a8cbcfdf02e760001b61336a565b6000600160008381526020019081526020016000209050610c287fec5360092565111c474840753b2dc4dbc83772abed5f61a57eb3f2e0cac6f3c560001b61336a565b610c547f87bac2c15a3d552a41e8f5db9eca4592f86e9136dd83748399342f83f339ba1860001b61336a565b3373ffffffffffffffffffffffffffffffffffffffff168160000160009054906101000a900473ffffffffffffffffffffffffffffffffffffffff1673ffffffffffffffffffffffffffffffffffffffff1614610d3e57610cd77f885dec40dff9c45c9694bf360c0adf932257d4382fba31f076ad732fe11c0d3a60001b61336a565b610d037fa1b54b88dc6dd17ac1b3375dac6b6548fef7612e677f32a6c2d083873f6de7b660001b61336a565b6040517f6eaf9ef4000000000000000000000000000000000000000000000000000000008152600401610d35906139e1565b60405180910390fd5b610d6a7f4b277489374eb61d26afa04872b42ee72a4104104f8fab7daa2458bd4fa2ffa160001b61336a565b610d967f96c0f2151e06cb053ba77726fe516deb5b879f6f7972fc8a02a9de99478a40f860001b61336a565b610dc27f3b99fe682ac3d360fa336d4dabb54157ad9115d1a1f0f15ac4f82af06cc541bb60001b61336a565b8060040160049054906101000a900463ffffffff1663ffffffff16421015610e7757610e107f6ed3e84619d2d886e3b32ec61a9ad0ddae9afd2602f592dae404af71829e0da760001b61336a565b610e3c7f10f3989f90ba356ba6595aca99022e25074ede9b7d9270abb1709e484e07564d60001b61336a565b6040517f92c18e64000000000000000000000000000000000000000000000000000000008152600401610e6e90613ac1565b60405180910390fd5b610ea37f756822b6c73a047d1cd3888b813acd339c064a52fb672e00cd1bded617d5512460001b61336a565b610ecf7f7b87121ce9cde1af1b09a962c3888f1f013286e89ef643bf209647f374c753f560001b61336a565b610efb7f31018fcf0d41ea4a9684981e947d46fa581a33347b5492339c75e053f7379ce960001b61336a565b806002015481600301541015610faa57610f377f8019b2e12a89d60828968f5ee85ea2c8a1534577e99168fde1d37a52f5cd649860001b61336a565b610f637f5ac1b30b0840fe7bc996bbc1c2db582867ddb85a1457f35a3dd4a59805f9bcc360001b61336a565b806003015481600201546040517f3e9d6460000000000000000000000000000000000000000000000000000000008152600401610fa1929190613c27565b60405180910390fd5b610fd67f9fb6ed986fcc28e54b1cf99512fdab073f1f64106ae51a6f8ba018541084eb1460001b61336a565b6110027fea6e8458d94fa3c14b7b88f92b0a3acfc4bd64b4f6fdafde0032320299db433460001b61336a565b61102e7f1a31ce8f325ac00e224d4fb0586e5fac0310344ef0a36e7d26f56002c14b2dcc60001b61336a565b8060040160089054906101000a900460ff16156110d8576110717f7f5a8c45cf45dfed45cc68f21d5230489ef0995511d9272fe6eb9ece7c21dfb160001b61336a565b61109d7f8e8603660f9d53c3eb1a2ff99bb7ebcbc9b00a6c5bdf31063ebfa47396f36d9360001b61336a565b6040517f1fba87d90000000000000000000000000000000000000000000000000000000081526004016110cf90613a61565b60405180910390fd5b6111047fc4e0515b977478e21dcfb354e2cb487de0a5f4351f4ff8d203c17c27c82b4e7060001b61336a565b6111307fe0eaa7b069db552327fb29284595d8b8f4978e77058eb915e5295f1c7c9a5f1f60001b61336a565b61115c7fcd6acc35dc44006d7e18e2e652fcf0a0efef46a2f8759a734cd3f0e69aa6e16860001b61336a565b60006064826002015461116f9190613d47565b905061119d7f373e3299e96ff49cff118f8d9f60a4771bae6fed03ae4e8aa6fdb65a50b4f39960001b61336a565b6111c97f354e2853446e2a66c6cb542ea075a4d69b0ba44fcb1ae8949cf70a486c4e36b960001b61336a565b60008260000160009054906101000a900473ffffffffffffffffffffffffffffffffffffffff16905061121e7fd9b08e40a56ecf49d0751af09236350b2e6aad518a29ac258a641d244b84444c60001b61336a565b61124a7ff6049de179ec46ef76c0ffe507c1a5c7356cc42c4d228cd98a0e63dbf81dac2260001b61336a565b60007f000000000000000000000000000000000000000000000000000000000000000073ffffffffffffffffffffffffffffffffffffffff168360405161129090613991565b60006040518083038185875af1925050503d80600081146112cd576040519150601f19603f3d011682016040523d82523d6000602084013e6112d2565b606091505b505090506113027f39ac60d3659fc3b6e4e40bbf9085635ae47e7572fa16542ce51156d644db629060001b61336a565b61132e7f0af6a0998902cdfe4b6e1f9001b34e09e4f4170f2269cb37f354c06262fe1a6360001b61336a565b60008273ffffffffffffffffffffffffffffffffffffffff168486600301546113579190613d78565b60405161136390613991565b60006040518083038185875af1925050503d80600081146113a0576040519150601f19603f3d011682016040523d82523d6000602084013e6113a5565b606091505b505090506113d57f7837b7fc10febcd5d12ce91f7c16ba48f5731fa3885288ba5d2a1605ef33780860001b61336a565b6114017fd7b8c66265144af6a58662b34455f96ef5f1408e6b24422f8856536b00ef3a6660001b61336a565b80158061140c575081155b1561149b5761143d7f1cbb8eb9f7a866cc8d429e4684acd97dfef8cc7431ef5768e965cf955bed805460001b61336a565b6114697f3f320e21deb208ed926f073db588f0c2e0c7b03bd112390eb0ea77d349e5a60f60001b61336a565b6040517f397a23d500000000000000000000000000000000000000000000000000000000815260040160405180910390fd5b6114c77fdc49e325dee1c450d8e9d5bfce8d32828c7a135e9e3b5660a50c1bc238d7535e60001b61336a565b6114f37fa15e7d0cd54f3ea49755a40616ccece679009420cc3f3d37021abd782963c01d60001b61336a565b61151f7fc22c4cf539b11181161d078dfc2af3fc06afe434d6ca285d28a2d30120a3def760001b61336a565b60018560040160086101000a81548160ff0219169083151502179055506115687f8aecb968dec38f93df8afd85ea9277aea768c2c456141a18a82f38da923f121960001b61336a565b6115947f6e27d82c5a89dde94cf3a0b7a64bd4614765f69bcee28b802364866848f19bcf60001b61336a565b7f7bb2b3c10797baccb6f8c4791f1edd6ca2f0d028ee0eda64b01a9a57e3a653f7866040516115c39190613b03565b60405180910390a1505050505050565b60006116017ff4f62105238bcb75e710a5b4509c920f3d7238f1f77932c5c498585d927e4d9560001b61336a565b61162d7faf11e139ef34a605f35f5d787961c8f1d9e85ed0cf80dd6980f925b8f8a0e3e060001b61336a565b6116597fa8df8508531f278cce3acd11ad2d708ac007ea82d69c0435063a0240d9a3bb0360001b61336a565b6002600083815260200190815260200160002060003373ffffffffffffffffffffffffffffffffffffffff1673ffffffffffffffffffffffffffffffffffffffff168152602001908152602001600020549050919050565b6116dd7f8168087d93c95a6d43a7104b21919a09645ed8d14fbaff0f539d9a0d4e446e4060001b61336a565b6117097fddd9fb81f69492ffc24cfc25cf6ec7480db694fbcbec8d2d0ca432ac9fd372ec60001b61336a565b6117357f35f7a0ac50643f1b99dd2261240037b3ea1d68865c443f8fdc631f048402e9d660001b61336a565b600060016000838152602001908152602001600020604051806101000160405290816000820160009054906101000a900473ffffffffffffffffffffffffffffffffffffffff1673ffffffffffffffffffffffffffffffffffffffff1673ffffffffffffffffffffffffffffffffffffffff1681526020016001820180546117bc90613e46565b80601f01602080910402602001604051908101604052809291908181526020018280546117e890613e46565b80156118355780601f1061180a57610100808354040283529160200191611835565b820191906000526020600020905b81548152906001019060200180831161181857829003601f168201915b5050505050815260200160028201548152602001600382015481526020016004820160009054906101000a900463ffffffff1663ffffffff1663ffffffff1681526020016004820160049054906101000a900463ffffffff1663ffffffff1663ffffffff1681526020016004820160089054906101000a900460ff1615151515815260200160058201548152505090506118f17f802b684071f88d456e77b6a7592b7b7d84782ba7afe47a649f925522923e30c560001b61336a565b61191d7fe1bf7ca9ef563a08c9da387ec73675f53654ad6976320ec4c78151660a92745460001b61336a565b3373ffffffffffffffffffffffffffffffffffffffff16816000015173ffffffffffffffffffffffffffffffffffffffff16146119e7576119807ff775d869b5e3cb26ed0376574cae970eb58bee2788a0d07e6bc65dfe47bf08ae60001b61336a565b6119ac7f3f129ecabe4063c2fb7115761ff022575cfd3afe5714291935644d03a06a134060001b61336a565b6040517f6eaf9ef40000000000000000000000000000000000000000000000000000000081526004016119de906139e1565b60405180910390fd5b611a137f3d526bca215827ac96acacc87c7b1a8a3c5b2649ebc3e1228a43d9fd841f648960001b61336a565b611a3f7f225c309e65572d860077e95a9aff19b1c83ada5a137073a3cd127e73440cf9d560001b61336a565b611a6b7fa2afb487e9acd402a20c0c9ba66e25fb05a806f6bd68ed03adbc0ebcc4383d5660001b61336a565b806080015163ffffffff16421115611b1057611aa97f0a07bbf56f705004e4c725e43d8dbba0e27acd1851d9118349893278970cd6e660001b61336a565b611ad57f1639ff2c1014e7c0953d9529b3b38e396581e3056f0f4bcc89187429b11d9d7360001b61336a565b6040517f92c18e64000000000000000000000000000000000000000000000000000000008152600401611b0790613a41565b60405180910390fd5b611b3c7f771961ab0e82c61c6dae4c8096a06e1224745ded6465117db2e8a5f9252d3ce060001b61336a565b611b687f8936b28bc88a77df1de2c5c84cea15f2310a7cba30669d30666cf76a214d5d5360001b61336a565b60016000838152602001908152602001600020600080820160006101000a81549073ffffffffffffffffffffffffffffffffffffffff0219169055600182016000611bb3919061336d565b600282016000905560038201600090556004820160006101000a81549063ffffffff02191690556004820160046101000a81549063ffffffff02191690556004820160086101000a81549060ff021916905560058201600090555050611c3b7f7111238a526c74bdfb33ffdb25bfc1f03ee698780c5549e1ad1ebc999b79906e60001b61336a565b611c677ff6953624d846b9173921265a7bd51376e7bdbdc0da8bb213dba6d80ce4bba6aa60001b61336a565b7f8bf30e7ff26833413be5f69e1d373744864d600b664204b4a2f9844a8eedb9ed82604051611c969190613b03565b60405180910390a15050565b611caa6133ad565b611cd67f24b7762c8bc7b3fa324db8bc4289116a347b31f84e94f982215fab769d80660d60001b61336a565b611d027f495130575288d8a93ec8c86c7ab23d149a2793ace9eeb2d796e32673991ccb7b60001b61336a565b611d2e7f32e000526a96d9a3ba5e4b5e305249c1576cab9abcb704528747ccf882c715cb60001b61336a565b60016000838152602001908152602001600020604051806101000160405290816000820160009054906101000a900473ffffffffffffffffffffffffffffffffffffffff1673ffffffffffffffffffffffffffffffffffffffff1673ffffffffffffffffffffffffffffffffffffffff168152602001600182018054611db390613e46565b80601f0160208091040260200160405190810160405280929190818152602001828054611ddf90613e46565b8015611e2c5780601f10611e0157610100808354040283529160200191611e2c565b820191906000526020600020905b815481529060010190602001808311611e0f57829003601f168201915b5050505050815260200160028201548152602001600382015481526020016004820160009054906101000a900463ffffffff1663ffffffff1663ffffffff1681526020016004820160049054906101000a900463ffffffff1663ffffffff1663ffffffff1681526020016004820160089054906101000a900460ff161515151581526020016005820154815250509050919050565b611eed7f1fe1217f7b3b9254957f93dbc5d91739b809bfb3dd73506fcf76e113992b415660001b61336a565b611f197f19ce6780656646bac6e09978fb6038fdea103213a0fb1a0a49858d354725f5e060001b61336a565b611f457f64e2b9165a2987787d97ab002fb4a3ce960c17f0fad2a721afe6e6234c75d1f460001b61336a565b6000600160008481526020019081526020016000209050611f887fce3d1152e050ea3f3041687ecffc431943537239a79c15dc50d3ba20fe3ee56260001b61336a565b611fb47fcf26c40e574b6086e834b2e55c415549526111cc628bdac680aaf0c12f8d742d60001b61336a565b8060040160049054906101000a900463ffffffff1663ffffffff16421115612069576120027f681770027a34c927e264d0dfecb6a91dfcbfe000a08792838be0547c0bfcdccb60001b61336a565b61202e7f1e999cd2ba162dc0acdc0bbb8a59949362fe2d9ac21137db048ac3d52e3b964660001b61336a565b6040517f92c18e6400000000000000000000000000000000000000000000000000000000815260040161206090613aa1565b60405180910390fd5b6120957fd7780664e3cddad2a87b35db1c202d23f2707c84f21b3732f230779a7f9b8cc660001b61336a565b6120c17fe48189449eee9ce057d398ef262846f7c1ce2a1fbd43def47bbeb39cc8f5df6360001b61336a565b6120ed7f157d45eecd54c0588e904f8bb7d5c171f04aa543e298a987dc1de380a886702c60001b61336a565b816002600085815260200190815260200160002060003373ffffffffffffffffffffffffffffffffffffffff1673ffffffffffffffffffffffffffffffffffffffff1681526020019081526020016000205410156121cf576121717fa1351321d637c27de807706b1cbe92f798da4b1dd0c565c6a882f8ac254851d060001b61336a565b61219d7fda7d0ff894f5cd8b8df38c8dc5af6fdb5ce234da483b19f6a7cc55e0b19adcc860001b61336a565b6040517f55c435f200000000000000000000000000000000000000000000000000000000815260040160405180910390fd5b6121fb7f31629e8182c0142df2e8ec4e68f5e25a97df0898efacb73cffcce7531968fd5b60001b61336a565b6122277f4f5b8c515f4d72c1129d45d0ec7210c466fe95f7d53cf8cec1f4e710cf672cb960001b61336a565b6122537ff046df25e5cb6cd7c5f51d6217c300854ee6e31650ae6c5f086a8c45415d9f5760001b61336a565b818160030160008282546122679190613d78565b9250508190555061229a7fe64a249e77598b7fc2871f87cac9960f3f91929deebfbf28218d7dbfe2a8f9b860001b61336a565b6122c67f42901346b9b01c8019324c7fc5103b2ae321239197b80f7519cdca62c2c3624360001b61336a565b816002600085815260200190815260200160002060003373ffffffffffffffffffffffffffffffffffffffff1673ffffffffffffffffffffffffffffffffffffffff16815260200190815260200160002060008282546123269190613d78565b925050819055506123597f8247a613ef49044af8296e587e9cff98dfee62fa337e316957bc3dfa2917b9ff60001b61336a565b6123857f73885c399d55d5140796b7afc924fd7fa78114e8e02004ba1566d1ae82920d8e60001b61336a565b60003373ffffffffffffffffffffffffffffffffffffffff16836040516123ab90613991565b60006040518083038185875af1925050503d80600081146123e8576040519150601f19603f3d011682016040523d82523d6000602084013e6123ed565b606091505b5050905061241d7f8da00f63788ca8549c6fc63dc3481f2f89471c692cd6aed1438603550020689560001b61336a565b6124497fefbd278f3a88c3cf11f7d92080ce97b7319ab588947451521dbd4b314439f90960001b61336a565b806124d85761247a7fe26604f6f46e093481844c31fe8c06c0b16ccd980fe8cf7e6cde55bac22f1b3560001b61336a565b6124a67f412c47a3ded07bc881cf3a5d6fb5b3f79520fd80ba35889fc4b84aafec817b6660001b61336a565b6040517f397a23d500000000000000000000000000000000000000000000000000000000815260040160405180910390fd5b6125047fffe9f9754acf8106d35cf45dfd69351932c634321e31b171611f6373129bfd5460001b61336a565b6125307ff3bd3cf051e0af96884433dd09004218f2bcca6661ce61514de18c5edfcb8cbf60001b61336a565b61255c7f492afcbcda51f084c574a060a11fbef6154cd941226eccaa42682e1685f9a62f60001b61336a565b3373ffffffffffffffffffffffffffffffffffffffff16847f2eeeab891b26a214d1b25749f88a406bdea852bd8c9bfda977e0ef8114c180ba856040516125a39190613b03565b60405180910390a350505050565b6125dd7f78c210ce1bad38188293cbc5e37e6240881912ac21319c1b978b57436c23781160001b61336a565b6126097fcf0ea156230d4051410626330ead1fed57c560b7fbc4f57b8274b20570688f0060001b61336a565b6126357f145d465c09818e63fa2565a33205cd9d2919b417ed706fe3f531192118f0156d60001b61336a565b428263ffffffff1610156126d65761266f7f1fbd58e3f1bbeb1dcac2a4a853027007a058663bf0ad54f4d9962e1b1e9a177960001b61336a565b61269b7f667078f5a7e11b6db63774e0561fc014084d4de4da4080cc832606f1dd31620860001b61336a565b6040517f92c18e640000000000000000000000000000000000000000000000000000000081526004016126cd90613a21565b60405180910390fd5b6127027fb0aa6a33f7d7086c2e19c942977e6da7bf5f004e72cf742f2138517921333b5b60001b61336a565b61272e7f0379a6f808d6b6e2ec0e0bfa8afa13aa67e1904c531e3c0d5a1fe223b7a3639960001b61336a565b61275a7fe71cc6ff24d279c1d38f974304174f84ddacdaa0084ec362d3ca7e641c788b6e60001b61336a565b8163ffffffff168163ffffffff1610156128015761279a7f22a35918155c0495b7a025cebb1d09d155f7f12ad102caa655f57f2d88e6446760001b61336a565b6127c67f6a2debc9dd48ea3867c25a2993351854e7471ad0cddcb7ee67e9e3b655e7acf160001b61336a565b6040517f92c18e640000000000000000000000000000000000000000000000000000000081526004016127f890613a01565b60405180910390fd5b61282d7fe03cbb0357c20c41b1d18d781ee7949a8d21029749ebd49dcebf5fc959c6b59160001b61336a565b6128597fdf6a2656716a76296b40431aa8b7befd9a8ac1f893bd2e54fdc264874e50badb60001b61336a565b6128857f2dbcfb5cecaaecd1d69efebaff562ca12fa0ac48a388266da9646c00117185b360001b61336a565b629e3400426128949190613cf1565b8163ffffffff161115612934576128cd7fc72f89c6d9177fc5b9e62e2d4448f8689327c0ca88ea1a4255471c62fcfe6d3a60001b61336a565b6128f97ff2c75641bff2ea4cc9936c7969cc6d96a50334b2a48b3dc1aa8a62667cbeb46160001b61336a565b6040517f92c18e6400000000000000000000000000000000000000000000000000000000815260040161292b906139c1565b60405180910390fd5b6129607f023a72745649cbc8dbc18c8107414979f2cf2887e83646cf5681dc95e9edf50760001b61336a565b61298c7f664018bfc668b7d96597c2fdb5dd41accaedffa215e7f0ffc2bec4834a2ea59860001b61336a565b60008081548092919061299e90613ea9565b91905055506129cf7fb5c65d158f452b386aca0ddc10112dfe96f70c8992de215df37773aa0b53ac1f60001b61336a565b6129fb7f538b60618a366a32cc785d078dbbdf2b2a69db891fbc2b97fe936e2632a12f2160001b61336a565b6040518061010001604052803373ffffffffffffffffffffffffffffffffffffffff168152602001868152602001858152602001600081526020018363ffffffff1681526020018263ffffffff16815260200160001515815260200184815250600160008054815260200190815260200160002060008201518160000160006101000a81548173ffffffffffffffffffffffffffffffffffffffff021916908373ffffffffffffffffffffffffffffffffffffffff1602179055506020820151816001019080519060200190612ad2929190613416565b50604082015181600201556060820151816003015560808201518160040160006101000a81548163ffffffff021916908363ffffffff16021790555060a08201518160040160046101000a81548163ffffffff021916908363ffffffff16021790555060c08201518160040160086101000a81548160ff02191690831515021790555060e08201518160050155905050612b8e7f83dcbc2ccc440159484e52399c51ada39bb4927417287cbebea866d260824cce60001b61336a565b612bba7fc033866e1d93ec049e33489a11acc8936d57c1d213648bcd4b9b11533c3bffed60001b61336a565b3373ffffffffffffffffffffffffffffffffffffffff167fb680f4a81a5ec2568fea4b180e7a699b5ce52912daf0724701218b2b7ee0f9046000548787878787604051612c0c96959493929190613b1e565b60405180910390a25050505050565b612c477ff2e532cbd3ef9c1b45a517aa6d931b8d0966031762b947b3825b80f8bfbcfb6760001b61336a565b612c737fd067b30739cce1dbbac39041b6b8a48693270711f924ff6c95868263ecbaecfc60001b61336a565b612c9f7f7b414417fbc01b2f15e778ba7a173e5f76db8301857f418bf2e07cefd85120a860001b61336a565b6000600160008381526020019081526020016000209050612ce27f61d28034205113254429a933db347c9818ac24c99ee9b10b9214501568d8de3560001b61336a565b612d0e7f263257a6b0f527c3353c4e84f604e0adaf7a472695f7d06fddc17466ac4a00b560001b61336a565b8060040160009054906101000a900463ffffffff1663ffffffff16421015612dc357612d5c7fbc0a4bcae9fe96ac849e6ee8f8cee6e887616192a6ba980c2381c61bf843fedc60001b61336a565b612d887fc9bbcb1901d3aa5e32cdb3435b9e56ccf5365fbaa0d1cf11e116bd426ffb953f60001b61336a565b6040517f92c18e64000000000000000000000000000000000000000000000000000000008152600401612dba90613a81565b60405180910390fd5b612def7f4ad7d3e78469408111a445371e5955c28fe85ab6bb5f43a081e9964de926e23d60001b61336a565b612e1b7fb4da9f7f4d319d8d4796aedc1f4e8c24a1eb83293208c102cfdd22e75bde8e6e60001b61336a565b612e477faa4f2ff6989ed53909323e8852d7810b530238415b22dec971f4e1be041b922260001b61336a565b8060040160049054906101000a900463ffffffff1663ffffffff16421115612efc57612e957fb8431d90def278e8954e8ccc41e9b3b2e8e9e0d71e4c5daa76b94406a61508ef60001b61336a565b612ec17f96286799944011edec8a3d2a0fde0c9930019a0545bd8536d2f67997a9a9d01960001b61336a565b6040517f92c18e64000000000000000000000000000000000000000000000000000000008152600401612ef390613aa1565b60405180910390fd5b612f287fd9bc54eb27c4ed905f2e8cdce9af52bd6652e63bea5383410f2a7792b6426b6760001b61336a565b612f547f21e7b3680ff08aaee6d68fea32a4a95c081975d300a0ab12efc6c941bd4a7efa60001b61336a565b612f807f030b0a00999f1234c7a2380607c3c50e4fbf588d994ad89bafde28e242f5ed4560001b61336a565b806005015434101561302757612fb87feae6382b798e02714f72f1564e88ab9e08e3359bec036eabcd87c86b097cd2d060001b61336a565b612fe47f3a5d5f207ecce15686570a5f61ee07c95136a680b36af1d5f414af3a9507964460001b61336a565b8060050154346040517feb70789f00000000000000000000000000000000000000000000000000000000815260040161301e929190613baf565b60405180910390fd5b6130537fa0462bb5376e744f43982bb4870720fd24770f9e25d4c067f5a7f3120021d8c460001b61336a565b61307f7f7f566d95363eb50b1073b611bf1a2ab0e2f593d6928bfcec0e14707b97c8530360001b61336a565b6130ab7fed0768b225e92d225d69b76901d650b58058c9c6c157718f258ca0ec4e01f08d60001b61336a565b348160030160008282546130bf9190613cf1565b925050819055506130f27f976c82509273c566dedb749219ae784c841c497f0d74a88733b43624e67c38fb60001b61336a565b61311e7fcd4aadcf7b08be8d66e5d9d07d2e77a355d3251d9e228f22be0515958c4412e760001b61336a565b346002600084815260200190815260200160002060003373ffffffffffffffffffffffffffffffffffffffff1673ffffffffffffffffffffffffffffffffffffffff168152602001908152602001600020600082825461317e9190613cf1565b925050819055506131b17f2b98ba96537a510fee9f75fe3886f3c088f3e039f0ff60d287ea5018995d5d1560001b61336a565b6131dd7f1e4b151862191bf0fdb2f3799c37b336bbd1c49ccb58a3782dd8e92302e8305460001b61336a565b3373ffffffffffffffffffffffffffffffffffffffff16827f06bdb975df800a73232998e71ed585d536222f1dfeaa622d7f62a23ada686c82346040516132249190613b03565b60405180910390a35050565b600061325e7f22cc9554e1c21bf859a19390b2146da54237b8a5401568be98908ccbd3de269560001b61336a565b61328a7fef40f6fa20a18f37e67c8f3091c547f156798fc2531dd972799c5b85814c23ee60001b61336a565b6132b67ff235890a25889f094d1892eb85cf8de87584d971605de6f0c05bc0c706395f4260001b61336a565b7f0000000000000000000000000000000000000000000000000000000000000000905090565b600061330a7f59a5b66ac43e584654ea749b50a52ea70234799adc332c0380adb6d3d5401bf860001b61336a565b6133367fb95d642368c8856bc0b29434a8fab805a40153132bd4a4637f561b9fba78530960001b61336a565b6133627f26f8833f3f266ecd0ae69a865744243201a62c2df0dbd4e4c60db619d52aa41f60001b61336a565b600054905090565b50565b50805461337990613e46565b6000825580601f1061338b57506133aa565b601f0160209004906000526020600020908101906133a9919061349c565b5b50565b604051806101000160405280600073ffffffffffffffffffffffffffffffffffffffff168152602001606081526020016000815260200160008152602001600063ffffffff168152602001600063ffffffff168152602001600015158152602001600081525090565b82805461342290613e46565b90600052602060002090601f016020900481019282613444576000855561348b565b82601f1061345d57805160ff191683800117855561348b565b8280016001018555821561348b579182015b8281111561348a57825182559160200191906001019061346f565b5b509050613498919061349c565b5090565b5b808211156134b557600081600090555060010161349d565b5090565b60006134cc6134c784613c88565b613c63565b9050828152602081018484840111156134e457600080fd5b6134ef848285613e04565b509392505050565b600082601f83011261350857600080fd5b81356135188482602086016134b9565b91505092915050565b600081359050613530816141ae565b92915050565b600081359050613545816141c5565b92915050565b600080600080600060a0868803121561356357600080fd5b600086013567ffffffffffffffff81111561357d57600080fd5b613589888289016134f7565b955050602061359a88828901613521565b94505060406135ab88828901613521565b93505060606135bc88828901613536565b92505060806135cd88828901613536565b9150509295509295909350565b6000602082840312156135ec57600080fd5b60006135fa84828501613521565b91505092915050565b6000806040838503121561361657600080fd5b600061362485828601613521565b925050602061363585828601613521565b9150509250929050565b61364881613dac565b82525050565b61365781613dac565b82525050565b61366681613dbe565b82525050565b600061367782613cb9565b6136818185613ccf565b9350613691818560208601613e13565b61369a81613fae565b840191505092915050565b60006136b082613cb9565b6136ba8185613ce0565b93506136ca818560208601613e13565b6136d381613fae565b840191505092915050565b60006136eb601683613ce0565b91506136f682613fbf565b602082019050919050565b600061370e601583613ce0565b915061371982613fe8565b602082019050919050565b6000613731600b83613ce0565b915061373c82614011565b602082019050919050565b6000613754601183613ce0565b915061375f8261403a565b602082019050919050565b6000613777600e83613ce0565b915061378282614063565b602082019050919050565b600061379a600f83613ce0565b91506137a58261408c565b602082019050919050565b60006137bd600783613ce0565b91506137c8826140b5565b602082019050919050565b60006137e0600083613cc4565b91506137eb826140de565b600082019050919050565b6000613803601883613ce0565b915061380e826140e1565b602082019050919050565b6000613826600e83613ce0565b91506138318261410a565b602082019050919050565b6000613849600b83613ce0565b915061385482614133565b602082019050919050565b600061386c600583613ce0565b91506138778261415c565b602082019050919050565b600061388f600983613ce0565b915061389a82614185565b602082019050919050565b6000610100830160008301516138be600086018261363f565b50602083015184820360208601526138d6828261366c565b91505060408301516138eb6040860182613955565b5060608301516138fe6060860182613955565b5060808301516139116080860182613973565b5060a083015161392460a0860182613973565b5060c083015161393760c086018261365d565b5060e083015161394a60e0860182613955565b508091505092915050565b61395e81613dea565b82525050565b61396d81613dea565b82525050565b61397c81613df4565b82525050565b61398b81613df4565b82525050565b600061399c826137d3565b9150819050919050565b60006020820190506139bb600083018461364e565b92915050565b600060208201905081810360008301526139da81613701565b9050919050565b600060208201905081810360008301526139fa81613724565b9050919050565b60006020820190508181036000830152613a1a81613747565b9050919050565b60006020820190508181036000830152613a3a8161376a565b9050919050565b60006020820190508181036000830152613a5a816137b0565b9050919050565b60006020820190508181036000830152613a7a816137f6565b9050919050565b60006020820190508181036000830152613a9a8161383c565b9050919050565b60006020820190508181036000830152613aba8161385f565b9050919050565b60006020820190508181036000830152613ada81613882565b9050919050565b60006020820190508181036000830152613afb81846138a5565b905092915050565b6000602082019050613b186000830184613964565b92915050565b600060c082019050613b336000830189613964565b8181036020830152613b4581886136a5565b9050613b546040830187613964565b613b616060830186613964565b613b6e6080830185613982565b613b7b60a0830184613982565b979650505050505050565b6000604082019050613b9b6000830185613964565b613ba86020830184613964565b9392505050565b6000606082019050613bc46000830185613964565b613bd16020830184613964565b8181036040830152613be2816136de565b90509392505050565b6000606082019050613c006000830185613964565b613c0d6020830184613964565b8181036040830152613c1e8161378d565b90509392505050565b6000606082019050613c3c6000830185613964565b613c496020830184613964565b8181036040830152613c5a81613819565b90509392505050565b6000613c6d613c7e565b9050613c798282613e78565b919050565b6000604051905090565b600067ffffffffffffffff821115613ca357613ca2613f7f565b5b613cac82613fae565b9050602081019050919050565b600081519050919050565b600081905092915050565b600082825260208201905092915050565b600082825260208201905092915050565b6000613cfc82613dea565b9150613d0783613dea565b9250827fffffffffffffffffffffffffffffffffffffffffffffffffffffffffffffffff03821115613d3c57613d3b613ef2565b5b828201905092915050565b6000613d5282613dea565b9150613d5d83613dea565b925082613d6d57613d6c613f21565b5b828204905092915050565b6000613d8382613dea565b9150613d8e83613dea565b925082821015613da157613da0613ef2565b5b828203905092915050565b6000613db782613dca565b9050919050565b60008115159050919050565b600073ffffffffffffffffffffffffffffffffffffffff82169050919050565b6000819050919050565b600063ffffffff82169050919050565b82818337600083830152505050565b60005b83811015613e31578082015181840152602081019050613e16565b83811115613e40576000848401525b50505050565b60006002820490506001821680613e5e57607f821691505b60208210811415613e7257613e71613f50565b5b50919050565b613e8182613fae565b810181811067ffffffffffffffff82111715613ea057613e9f613f7f565b5b80604052505050565b6000613eb482613dea565b91507fffffffffffffffffffffffffffffffffffffffffffffffffffffffffffffffff821415613ee757613ee6613ef2565b5b600182019050919050565b7f4e487b7100000000000000000000000000000000000000000000000000000000600052601160045260246000fd5b7f4e487b7100000000000000000000000000000000000000000000000000000000600052601260045260246000fd5b7f4e487b7100000000000000000000000000000000000000000000000000000000600052602260045260246000fd5b7f4e487b7100000000000000000000000000000000000000000000000000000000600052604160045260246000fd5b6000601f19601f8301169050919050565b7f73656e64206d6f726520636f6e747269627574696f6e00000000000000000000600082015250565b7f656e64206174203e206d6178206475726174696f6e0000000000000000000000600082015250565b7f4e6f742063726561746f72000000000000000000000000000000000000000000600082015250565b7f656e64206174203c207374617274206174000000000000000000000000000000600082015250565b7f7374617274206174203c206e6f77000000000000000000000000000000000000600082015250565b7f706c6564676564203e3d20676f616c0000000000000000000000000000000000600082015250565b7f7374617274656400000000000000000000000000000000000000000000000000600082015250565b50565b7f7468652063616d7061696e672077617320636c61696d65640000000000000000600082015250565b7f706c6564676564203c20676f616c000000000000000000000000000000000000600082015250565b7f6e6f742073746172746564000000000000000000000000000000000000000000600082015250565b7f656e646564000000000000000000000000000000000000000000000000000000600082015250565b7f6e6f7420656e6465640000000000000000000000000000000000000000000000600082015250565b6141b781613dea565b81146141c257600080fd5b50565b6141ce81613df4565b81146141d957600080fd5b5056fea264697066735822122066a1557e32232b1b5e99496daeed6cc470570328117a2ff31b5c9c985d3a9e7164736f6c63430008040033",
          "opcodes": "PUSH1 0xA0 PUSH1 0x40 MSTORE CALLVALUE DUP1 ISZERO PUSH3 0x11 JUMPI PUSH1 0x0 DUP1 REVERT JUMPDEST POP PUSH1 0x40 MLOAD PUSH3 0x43DD CODESIZE SUB DUP1 PUSH3 0x43DD DUP4 CODECOPY DUP2 DUP2 ADD PUSH1 0x40 MSTORE DUP2 ADD SWAP1 PUSH3 0x37 SWAP2 SWAP1 PUSH3 0x12B JUMP JUMPDEST PUSH3 0x6B PUSH32 0xCB849AE7ECC93B54836EDE0E818BC2E03C4BCF737459A952FF8EB47C1B503C86 PUSH1 0x0 SHL PUSH3 0x111 PUSH1 0x20 SHL PUSH1 0x20 SHR JUMP JUMPDEST PUSH3 0x9F PUSH32 0x67CF616FFD984F2F56FAF60418366AC32FE60797BAEE00B83BBD6F94A20DAA9F PUSH1 0x0 SHL PUSH3 0x111 PUSH1 0x20 SHL PUSH1 0x20 SHR JUMP JUMPDEST PUSH3 0xD3 PUSH32 0xF96B0ADCC2D4FDC1A41ADDD6795CFC803A0876AA75A62CEC7D56EA9FD21D8766 PUSH1 0x0 SHL PUSH3 0x111 PUSH1 0x20 SHL PUSH1 0x20 SHR JUMP JUMPDEST DUP1 PUSH20 0xFFFFFFFFFFFFFFFFFFFFFFFFFFFFFFFFFFFFFFFF AND PUSH1 0x80 DUP2 PUSH20 0xFFFFFFFFFFFFFFFFFFFFFFFFFFFFFFFFFFFFFFFF AND PUSH1 0x60 SHL DUP2 MSTORE POP POP POP PUSH3 0x1A5 JUMP JUMPDEST POP JUMP JUMPDEST PUSH1 0x0 DUP2 MLOAD SWAP1 POP PUSH3 0x125 DUP2 PUSH3 0x18B JUMP JUMPDEST SWAP3 SWAP2 POP POP JUMP JUMPDEST PUSH1 0x0 PUSH1 0x20 DUP3 DUP5 SUB SLT ISZERO PUSH3 0x13E JUMPI PUSH1 0x0 DUP1 REVERT JUMPDEST PUSH1 0x0 PUSH3 0x14E DUP5 DUP3 DUP6 ADD PUSH3 0x114 JUMP JUMPDEST SWAP2 POP POP SWAP3 SWAP2 POP POP JUMP JUMPDEST PUSH1 0x0 PUSH3 0x164 DUP3 PUSH3 0x16B JUMP JUMPDEST SWAP1 POP SWAP2 SWAP1 POP JUMP JUMPDEST PUSH1 0x0 PUSH20 0xFFFFFFFFFFFFFFFFFFFFFFFFFFFFFFFFFFFFFFFF DUP3 AND SWAP1 POP SWAP2 SWAP1 POP JUMP JUMPDEST PUSH3 0x196 DUP2 PUSH3 0x157 JUMP JUMPDEST DUP2 EQ PUSH3 0x1A2 JUMPI PUSH1 0x0 DUP1 REVERT JUMPDEST POP JUMP JUMPDEST PUSH1 0x80 MLOAD PUSH1 0x60 SHR PUSH2 0x4212 PUSH3 0x1CB PUSH1 0x0 CODECOPY PUSH1 0x0 DUP2 DUP2 PUSH2 0x124E ADD MSTORE PUSH2 0x32B8 ADD MSTORE PUSH2 0x4212 PUSH1 0x0 RETURN INVALID PUSH1 0x80 PUSH1 0x40 MSTORE PUSH1 0x4 CALLDATASIZE LT PUSH2 0x9C JUMPI PUSH1 0x0 CALLDATALOAD PUSH1 0xE0 SHR DUP1 PUSH4 0x6576216D GT PUSH2 0x64 JUMPI DUP1 PUSH4 0x6576216D EQ PUSH2 0x184 JUMPI DUP1 PUSH4 0x711853AB EQ PUSH2 0x1C1 JUMPI DUP1 PUSH4 0x72E8A6C8 EQ PUSH2 0x1EA JUMPI DUP1 PUSH4 0x7326C9C0 EQ PUSH2 0x213 JUMPI DUP1 PUSH4 0x893D20E8 EQ PUSH2 0x22F JUMPI DUP1 PUSH4 0x8C6F0AF2 EQ PUSH2 0x25A JUMPI PUSH2 0x9C JUMP JUMPDEST DUP1 PUSH4 0x12065FE0 EQ PUSH2 0xA1 JUMPI DUP1 PUSH4 0x278ECDE1 EQ PUSH2 0xCC JUMPI DUP1 PUSH4 0x379607F5 EQ PUSH2 0xF5 JUMPI DUP1 PUSH4 0x3D1709F2 EQ PUSH2 0x11E JUMPI DUP1 PUSH4 0x40E58EE5 EQ PUSH2 0x15B JUMPI JUMPDEST PUSH1 0x0 DUP1 REVERT JUMPDEST CALLVALUE DUP1 ISZERO PUSH2 0xAD JUMPI PUSH1 0x0 DUP1 REVERT JUMPDEST POP PUSH2 0xB6 PUSH2 0x285 JUMP JUMPDEST PUSH1 0x40 MLOAD PUSH2 0xC3 SWAP2 SWAP1 PUSH2 0x3B03 JUMP JUMPDEST PUSH1 0x40 MLOAD DUP1 SWAP2 SUB SWAP1 RETURN JUMPDEST CALLVALUE DUP1 ISZERO PUSH2 0xD8 JUMPI PUSH1 0x0 DUP1 REVERT JUMPDEST POP PUSH2 0xF3 PUSH1 0x4 DUP1 CALLDATASIZE SUB DUP2 ADD SWAP1 PUSH2 0xEE SWAP2 SWAP1 PUSH2 0x35DA JUMP JUMPDEST PUSH2 0x311 JUMP JUMPDEST STOP JUMPDEST CALLVALUE DUP1 ISZERO PUSH2 0x101 JUMPI PUSH1 0x0 DUP1 REVERT JUMPDEST POP PUSH2 0x11C PUSH1 0x4 DUP1 CALLDATASIZE SUB DUP2 ADD SWAP1 PUSH2 0x117 SWAP2 SWAP1 PUSH2 0x35DA JUMP JUMPDEST PUSH2 0xB61 JUMP JUMPDEST STOP JUMPDEST CALLVALUE DUP1 ISZERO PUSH2 0x12A JUMPI PUSH1 0x0 DUP1 REVERT JUMPDEST POP PUSH2 0x145 PUSH1 0x4 DUP1 CALLDATASIZE SUB DUP2 ADD SWAP1 PUSH2 0x140 SWAP2 SWAP1 PUSH2 0x35DA JUMP JUMPDEST PUSH2 0x15D3 JUMP JUMPDEST PUSH1 0x40 MLOAD PUSH2 0x152 SWAP2 SWAP1 PUSH2 0x3B03 JUMP JUMPDEST PUSH1 0x40 MLOAD DUP1 SWAP2 SUB SWAP1 RETURN JUMPDEST CALLVALUE DUP1 ISZERO PUSH2 0x167 JUMPI PUSH1 0x0 DUP1 REVERT JUMPDEST POP PUSH2 0x182 PUSH1 0x4 DUP1 CALLDATASIZE SUB DUP2 ADD SWAP1 PUSH2 0x17D SWAP2 SWAP1 PUSH2 0x35DA JUMP JUMPDEST PUSH2 0x16B1 JUMP JUMPDEST STOP JUMPDEST CALLVALUE DUP1 ISZERO PUSH2 0x190 JUMPI PUSH1 0x0 DUP1 REVERT JUMPDEST POP PUSH2 0x1AB PUSH1 0x4 DUP1 CALLDATASIZE SUB DUP2 ADD SWAP1 PUSH2 0x1A6 SWAP2 SWAP1 PUSH2 0x35DA JUMP JUMPDEST PUSH2 0x1CA2 JUMP JUMPDEST PUSH1 0x40 MLOAD PUSH2 0x1B8 SWAP2 SWAP1 PUSH2 0x3AE1 JUMP JUMPDEST PUSH1 0x40 MLOAD DUP1 SWAP2 SUB SWAP1 RETURN JUMPDEST CALLVALUE DUP1 ISZERO PUSH2 0x1CD JUMPI PUSH1 0x0 DUP1 REVERT JUMPDEST POP PUSH2 0x1E8 PUSH1 0x4 DUP1 CALLDATASIZE SUB DUP2 ADD SWAP1 PUSH2 0x1E3 SWAP2 SWAP1 PUSH2 0x3603 JUMP JUMPDEST PUSH2 0x1EC1 JUMP JUMPDEST STOP JUMPDEST CALLVALUE DUP1 ISZERO PUSH2 0x1F6 JUMPI PUSH1 0x0 DUP1 REVERT JUMPDEST POP PUSH2 0x211 PUSH1 0x4 DUP1 CALLDATASIZE SUB DUP2 ADD SWAP1 PUSH2 0x20C SWAP2 SWAP1 PUSH2 0x354B JUMP JUMPDEST PUSH2 0x25B1 JUMP JUMPDEST STOP JUMPDEST PUSH2 0x22D PUSH1 0x4 DUP1 CALLDATASIZE SUB DUP2 ADD SWAP1 PUSH2 0x228 SWAP2 SWAP1 PUSH2 0x35DA JUMP JUMPDEST PUSH2 0x2C1B JUMP JUMPDEST STOP JUMPDEST CALLVALUE DUP1 ISZERO PUSH2 0x23B JUMPI PUSH1 0x0 DUP1 REVERT JUMPDEST POP PUSH2 0x244 PUSH2 0x3230 JUMP JUMPDEST PUSH1 0x40 MLOAD PUSH2 0x251 SWAP2 SWAP1 PUSH2 0x39A6 JUMP JUMPDEST PUSH1 0x40 MLOAD DUP1 SWAP2 SUB SWAP1 RETURN JUMPDEST CALLVALUE DUP1 ISZERO PUSH2 0x266 JUMPI PUSH1 0x0 DUP1 REVERT JUMPDEST POP PUSH2 0x26F PUSH2 0x32DC JUMP JUMPDEST PUSH1 0x40 MLOAD PUSH2 0x27C SWAP2 SWAP1 PUSH2 0x3B03 JUMP JUMPDEST PUSH1 0x40 MLOAD DUP1 SWAP2 SUB SWAP1 RETURN JUMPDEST PUSH1 0x0 PUSH2 0x2B3 PUSH32 0xF4E4D614A56C0A594DB2C8F1D928CD1F42D6D22B36A4AD7DDD7E7ACEBF1EADAC PUSH1 0x0 SHL PUSH2 0x336A JUMP JUMPDEST PUSH2 0x2DF PUSH32 0xEC614B6C560B28E03EF7D9DD23824E522FB6454A6EDDAAB0CBE10C0BA43ADA11 PUSH1 0x0 SHL PUSH2 0x336A JUMP JUMPDEST PUSH2 0x30B PUSH32 0xFCA74FDABF18548DBC27F7E20E0E73190E88EACCA114BEDA7ED2DFB25333EEF1 PUSH1 0x0 SHL PUSH2 0x336A JUMP JUMPDEST SELFBALANCE SWAP1 POP SWAP1 JUMP JUMPDEST PUSH2 0x33D PUSH32 0xE2448011CC1100E92DE44D15398DEFDE77F0020D94BCAA97E2609BCB87A392D9 PUSH1 0x0 SHL PUSH2 0x336A JUMP JUMPDEST PUSH2 0x369 PUSH32 0xD05B6C8FCBEBE5943B5578AC8D5DB4C1422EAC63C883DA70E9DB355113FB0EC3 PUSH1 0x0 SHL PUSH2 0x336A JUMP JUMPDEST PUSH2 0x395 PUSH32 0xC85577AFB69C03B6352CA714FF48D23D29250BFE845E5E242538EEBC6D4D71C1 PUSH1 0x0 SHL PUSH2 0x336A JUMP JUMPDEST PUSH1 0x0 PUSH1 0x1 PUSH1 0x0 DUP4 DUP2 MSTORE PUSH1 0x20 ADD SWAP1 DUP2 MSTORE PUSH1 0x20 ADD PUSH1 0x0 KECCAK256 PUSH1 0x40 MLOAD DUP1 PUSH2 0x100 ADD PUSH1 0x40 MSTORE SWAP1 DUP2 PUSH1 0x0 DUP3 ADD PUSH1 0x0 SWAP1 SLOAD SWAP1 PUSH2 0x100 EXP SWAP1 DIV PUSH20 0xFFFFFFFFFFFFFFFFFFFFFFFFFFFFFFFFFFFFFFFF AND PUSH20 0xFFFFFFFFFFFFFFFFFFFFFFFFFFFFFFFFFFFFFFFF AND PUSH20 0xFFFFFFFFFFFFFFFFFFFFFFFFFFFFFFFFFFFFFFFF AND DUP2 MSTORE PUSH1 0x20 ADD PUSH1 0x1 DUP3 ADD DUP1 SLOAD PUSH2 0x41C SWAP1 PUSH2 0x3E46 JUMP JUMPDEST DUP1 PUSH1 0x1F ADD PUSH1 0x20 DUP1 SWAP2 DIV MUL PUSH1 0x20 ADD PUSH1 0x40 MLOAD SWAP1 DUP2 ADD PUSH1 0x40 MSTORE DUP1 SWAP3 SWAP2 SWAP1 DUP2 DUP2 MSTORE PUSH1 0x20 ADD DUP3 DUP1 SLOAD PUSH2 0x448 SWAP1 PUSH2 0x3E46 JUMP JUMPDEST DUP1 ISZERO PUSH2 0x495 JUMPI DUP1 PUSH1 0x1F LT PUSH2 0x46A JUMPI PUSH2 0x100 DUP1 DUP4 SLOAD DIV MUL DUP4 MSTORE SWAP2 PUSH1 0x20 ADD SWAP2 PUSH2 0x495 JUMP JUMPDEST DUP3 ADD SWAP2 SWAP1 PUSH1 0x0 MSTORE PUSH1 0x20 PUSH1 0x0 KECCAK256 SWAP1 JUMPDEST DUP2 SLOAD DUP2 MSTORE SWAP1 PUSH1 0x1 ADD SWAP1 PUSH1 0x20 ADD DUP1 DUP4 GT PUSH2 0x478 JUMPI DUP3 SWAP1 SUB PUSH1 0x1F AND DUP3 ADD SWAP2 JUMPDEST POP POP POP POP POP DUP2 MSTORE PUSH1 0x20 ADD PUSH1 0x2 DUP3 ADD SLOAD DUP2 MSTORE PUSH1 0x20 ADD PUSH1 0x3 DUP3 ADD SLOAD DUP2 MSTORE PUSH1 0x20 ADD PUSH1 0x4 DUP3 ADD PUSH1 0x0 SWAP1 SLOAD SWAP1 PUSH2 0x100 EXP SWAP1 DIV PUSH4 0xFFFFFFFF AND PUSH4 0xFFFFFFFF AND PUSH4 0xFFFFFFFF AND DUP2 MSTORE PUSH1 0x20 ADD PUSH1 0x4 DUP3 ADD PUSH1 0x4 SWAP1 SLOAD SWAP1 PUSH2 0x100 EXP SWAP1 DIV PUSH4 0xFFFFFFFF AND PUSH4 0xFFFFFFFF AND PUSH4 0xFFFFFFFF AND DUP2 MSTORE PUSH1 0x20 ADD PUSH1 0x4 DUP3 ADD PUSH1 0x8 SWAP1 SLOAD SWAP1 PUSH2 0x100 EXP SWAP1 DIV PUSH1 0xFF AND ISZERO ISZERO ISZERO ISZERO DUP2 MSTORE PUSH1 0x20 ADD PUSH1 0x5 DUP3 ADD SLOAD DUP2 MSTORE POP POP SWAP1 POP PUSH2 0x551 PUSH32 0x86A7FEAD816D8A603BBF5EF0979E053D484231D7B120A447041A5C9ED55E1FF9 PUSH1 0x0 SHL PUSH2 0x336A JUMP JUMPDEST PUSH2 0x57D PUSH32 0x5731B7AD747A2198782FD5D9EAB0571A04FF4CC38822DEB0D2E9AD8F712CFD5 PUSH1 0x0 SHL PUSH2 0x336A JUMP JUMPDEST DUP1 PUSH1 0xA0 ADD MLOAD PUSH4 0xFFFFFFFF AND TIMESTAMP LT ISZERO PUSH2 0x622 JUMPI PUSH2 0x5BB PUSH32 0x26D2B71EEEF3D9C9ED6233B214766BD64472A40A78BC46DF999398F12677301E PUSH1 0x0 SHL PUSH2 0x336A JUMP JUMPDEST PUSH2 0x5E7 PUSH32 0xF57998F18F6A370D1A7E4BE699B17F377426681225D3EC3CF353B9FFDBA9F64C PUSH1 0x0 SHL PUSH2 0x336A JUMP JUMPDEST PUSH1 0x40 MLOAD PUSH32 0x92C18E6400000000000000000000000000000000000000000000000000000000 DUP2 MSTORE PUSH1 0x4 ADD PUSH2 0x619 SWAP1 PUSH2 0x3AC1 JUMP JUMPDEST PUSH1 0x40 MLOAD DUP1 SWAP2 SUB SWAP1 REVERT JUMPDEST PUSH2 0x64E PUSH32 0x3FFA723E6DE053D5A18B5760602EC0C03CCBD1200E6D67AE719215D410BE7EFC PUSH1 0x0 SHL PUSH2 0x336A JUMP JUMPDEST PUSH2 0x67A PUSH32 0x1DEED286B8C509B519411514C54FDB1A87F33FF962005E27B5385AF617CEF380 PUSH1 0x0 SHL PUSH2 0x336A JUMP JUMPDEST PUSH2 0x6A6 PUSH32 0xF05587EFC2F3C0B5C86B83745FDB13DD5541A77A307BA3CBC0C4C5877052E3D2 PUSH1 0x0 SHL PUSH2 0x336A JUMP JUMPDEST DUP1 PUSH1 0x40 ADD MLOAD DUP2 PUSH1 0x60 ADD MLOAD GT ISZERO PUSH2 0x755 JUMPI PUSH2 0x6E2 PUSH32 0xF385DE0738DF56754DF62390C6AC887776D6C1AD28FFC3B2B36A57F635CD70F1 PUSH1 0x0 SHL PUSH2 0x336A JUMP JUMPDEST PUSH2 0x70E PUSH32 0x29C4D14A5CCCA23D1368456761A4D1064750903607204245E011FEC79AC9DFE0 PUSH1 0x0 SHL PUSH2 0x336A JUMP JUMPDEST DUP1 PUSH1 0x60 ADD MLOAD DUP2 PUSH1 0x40 ADD MLOAD PUSH1 0x40 MLOAD PUSH32 0x3E9D646000000000000000000000000000000000000000000000000000000000 DUP2 MSTORE PUSH1 0x4 ADD PUSH2 0x74C SWAP3 SWAP2 SWAP1 PUSH2 0x3BEB JUMP JUMPDEST PUSH1 0x40 MLOAD DUP1 SWAP2 SUB SWAP1 REVERT JUMPDEST PUSH2 0x781 PUSH32 0xAAC63B9D7B7162B08645797320D371C1A962007574B742FF8E0AE269DA6BF129 PUSH1 0x0 SHL PUSH2 0x336A JUMP JUMPDEST PUSH2 0x7AD PUSH32 0xB02170413631FBA38493495B1F2DF542D8851911A3A3CC2D94CDC3E5ECCEB3EE PUSH1 0x0 SHL PUSH2 0x336A JUMP JUMPDEST PUSH2 0x7D9 PUSH32 0xB3DAF6D99E4E04448FA13AC28D2747C30C9BD336E941B096226FA52B5675C2C7 PUSH1 0x0 SHL PUSH2 0x336A JUMP JUMPDEST PUSH1 0x0 PUSH1 0x2 PUSH1 0x0 DUP5 DUP2 MSTORE PUSH1 0x20 ADD SWAP1 DUP2 MSTORE PUSH1 0x20 ADD PUSH1 0x0 KECCAK256 PUSH1 0x0 CALLER PUSH20 0xFFFFFFFFFFFFFFFFFFFFFFFFFFFFFFFFFFFFFFFF AND PUSH20 0xFFFFFFFFFFFFFFFFFFFFFFFFFFFFFFFFFFFFFFFF AND DUP2 MSTORE PUSH1 0x20 ADD SWAP1 DUP2 MSTORE PUSH1 0x20 ADD PUSH1 0x0 KECCAK256 SLOAD SWAP1 POP PUSH2 0x85A PUSH32 0x88110D8F07B7594DD2157246FCEE29AFD05B93BC52BEC0C0C6F4053FBBD7423C PUSH1 0x0 SHL PUSH2 0x336A JUMP JUMPDEST PUSH2 0x886 PUSH32 0x8E2AC6354C3A8B8A44BFCA70A9EAAB3852A2D74768286D5739D53F730CBBCD69 PUSH1 0x0 SHL PUSH2 0x336A JUMP JUMPDEST PUSH1 0x0 PUSH1 0x2 PUSH1 0x0 DUP6 DUP2 MSTORE PUSH1 0x20 ADD SWAP1 DUP2 MSTORE PUSH1 0x20 ADD PUSH1 0x0 KECCAK256 PUSH1 0x0 CALLER PUSH20 0xFFFFFFFFFFFFFFFFFFFFFFFFFFFFFFFFFFFFFFFF AND PUSH20 0xFFFFFFFFFFFFFFFFFFFFFFFFFFFFFFFFFFFFFFFF AND DUP2 MSTORE PUSH1 0x20 ADD SWAP1 DUP2 MSTORE PUSH1 0x20 ADD PUSH1 0x0 KECCAK256 DUP2 SWAP1 SSTORE POP PUSH2 0x908 PUSH32 0xB92E95F11935109652EAB900FD3C64448286513926B322B8EC31B6238795DCED PUSH1 0x0 SHL PUSH2 0x336A JUMP JUMPDEST PUSH2 0x934 PUSH32 0x46266C6625C0C7187CB981F46E54E51CF1CFDCAF11DC5309B9BC4EFE7DD06845 PUSH1 0x0 SHL PUSH2 0x336A JUMP JUMPDEST PUSH1 0x0 CALLER PUSH20 0xFFFFFFFFFFFFFFFFFFFFFFFFFFFFFFFFFFFFFFFF AND DUP3 PUSH1 0x40 MLOAD PUSH2 0x95A SWAP1 PUSH2 0x3991 JUMP JUMPDEST PUSH1 0x0 PUSH1 0x40 MLOAD DUP1 DUP4 SUB DUP2 DUP6 DUP8 GAS CALL SWAP3 POP POP POP RETURNDATASIZE DUP1 PUSH1 0x0 DUP2 EQ PUSH2 0x997 JUMPI PUSH1 0x40 MLOAD SWAP2 POP PUSH1 0x1F NOT PUSH1 0x3F RETURNDATASIZE ADD AND DUP3 ADD PUSH1 0x40 MSTORE RETURNDATASIZE DUP3 MSTORE RETURNDATASIZE PUSH1 0x0 PUSH1 0x20 DUP5 ADD RETURNDATACOPY PUSH2 0x99C JUMP JUMPDEST PUSH1 0x60 SWAP2 POP JUMPDEST POP POP SWAP1 POP PUSH2 0x9CC PUSH32 0x445D66AF8F94EABD8F2C68DF1A8F319D178F533CF461334BDC40DBCE9DA704AE PUSH1 0x0 SHL PUSH2 0x336A JUMP JUMPDEST PUSH2 0x9F8 PUSH32 0x3612F7AB8FE230679FEC8C1E5FE4585550F12C3C6722BB9192BBDD01392F6B11 PUSH1 0x0 SHL PUSH2 0x336A JUMP JUMPDEST DUP1 PUSH2 0xA87 JUMPI PUSH2 0xA29 PUSH32 0x23A5FD6C5C45169FC8BCFF94E58A7230BFE4467467933CEAB44B1BE0B3D75383 PUSH1 0x0 SHL PUSH2 0x336A JUMP JUMPDEST PUSH2 0xA55 PUSH32 0xE9B5F9113FC71973817D7F9FFB263B9E1A4B76EBD01825FE12844FDFDB392D43 PUSH1 0x0 SHL PUSH2 0x336A JUMP JUMPDEST PUSH1 0x40 MLOAD PUSH32 0x397A23D500000000000000000000000000000000000000000000000000000000 DUP2 MSTORE PUSH1 0x4 ADD PUSH1 0x40 MLOAD DUP1 SWAP2 SUB SWAP1 REVERT JUMPDEST PUSH2 0xAB3 PUSH32 0x1B5B51DBD87240D100ABF2136F7BF955C2B990C4A0051BA5F89E4443304FEB5E PUSH1 0x0 SHL PUSH2 0x336A JUMP JUMPDEST PUSH2 0xADF PUSH32 0xC2FCECC9DD7EB964E668EF1BFF6A5A2D9A61A0E02B74F7A539B17CB178C0F8B8 PUSH1 0x0 SHL PUSH2 0x336A JUMP JUMPDEST PUSH2 0xB0B PUSH32 0x42932CBA279A0CECC5F3B8D116369EA7F35EC8C0209E2F03BB7AB92886F386CE PUSH1 0x0 SHL PUSH2 0x336A JUMP JUMPDEST CALLER PUSH20 0xFFFFFFFFFFFFFFFFFFFFFFFFFFFFFFFFFFFFFFFF AND PUSH32 0x21E12A7CAD0DA5928167E1084EA4D5FDF8D9AF66657A2543A9AC76A0CA081477 DUP6 DUP5 PUSH1 0x40 MLOAD PUSH2 0xB53 SWAP3 SWAP2 SWAP1 PUSH2 0x3B86 JUMP JUMPDEST PUSH1 0x40 MLOAD DUP1 SWAP2 SUB SWAP1 LOG2 POP POP POP POP JUMP JUMPDEST PUSH2 0xB8D PUSH32 0x877B1CF55EEF0E9663947795C5A3DDE4D1932CADF5C4E1CE0326BE0765BB6E49 PUSH1 0x0 SHL PUSH2 0x336A JUMP JUMPDEST PUSH2 0xBB9 PUSH32 0xDF648EA3A781FE3A48BE498BDD3B1313D5BE58CB9B64426F6949851FB14DAA71 PUSH1 0x0 SHL PUSH2 0x336A JUMP JUMPDEST PUSH2 0xBE5 PUSH32 0xEC93851C38211AD552A8FD7D3C8D4BD3AA66213FFDC89169E038A8CBCFDF02E7 PUSH1 0x0 SHL PUSH2 0x336A JUMP JUMPDEST PUSH1 0x0 PUSH1 0x1 PUSH1 0x0 DUP4 DUP2 MSTORE PUSH1 0x20 ADD SWAP1 DUP2 MSTORE PUSH1 0x20 ADD PUSH1 0x0 KECCAK256 SWAP1 POP PUSH2 0xC28 PUSH32 0xEC5360092565111C474840753B2DC4DBC83772ABED5F61A57EB3F2E0CAC6F3C5 PUSH1 0x0 SHL PUSH2 0x336A JUMP JUMPDEST PUSH2 0xC54 PUSH32 0x87BAC2C15A3D552A41E8F5DB9ECA4592F86E9136DD83748399342F83F339BA18 PUSH1 0x0 SHL PUSH2 0x336A JUMP JUMPDEST CALLER PUSH20 0xFFFFFFFFFFFFFFFFFFFFFFFFFFFFFFFFFFFFFFFF AND DUP2 PUSH1 0x0 ADD PUSH1 0x0 SWAP1 SLOAD SWAP1 PUSH2 0x100 EXP SWAP1 DIV PUSH20 0xFFFFFFFFFFFFFFFFFFFFFFFFFFFFFFFFFFFFFFFF AND PUSH20 0xFFFFFFFFFFFFFFFFFFFFFFFFFFFFFFFFFFFFFFFF AND EQ PUSH2 0xD3E JUMPI PUSH2 0xCD7 PUSH32 0x885DEC40DFF9C45C9694BF360C0ADF932257D4382FBA31F076AD732FE11C0D3A PUSH1 0x0 SHL PUSH2 0x336A JUMP JUMPDEST PUSH2 0xD03 PUSH32 0xA1B54B88DC6DD17AC1B3375DAC6B6548FEF7612E677F32A6C2D083873F6DE7B6 PUSH1 0x0 SHL PUSH2 0x336A JUMP JUMPDEST PUSH1 0x40 MLOAD PUSH32 0x6EAF9EF400000000000000000000000000000000000000000000000000000000 DUP2 MSTORE PUSH1 0x4 ADD PUSH2 0xD35 SWAP1 PUSH2 0x39E1 JUMP JUMPDEST PUSH1 0x40 MLOAD DUP1 SWAP2 SUB SWAP1 REVERT JUMPDEST PUSH2 0xD6A PUSH32 0x4B277489374EB61D26AFA04872B42EE72A4104104F8FAB7DAA2458BD4FA2FFA1 PUSH1 0x0 SHL PUSH2 0x336A JUMP JUMPDEST PUSH2 0xD96 PUSH32 0x96C0F2151E06CB053BA77726FE516DEB5B879F6F7972FC8A02A9DE99478A40F8 PUSH1 0x0 SHL PUSH2 0x336A JUMP JUMPDEST PUSH2 0xDC2 PUSH32 0x3B99FE682AC3D360FA336D4DABB54157AD9115D1A1F0F15AC4F82AF06CC541BB PUSH1 0x0 SHL PUSH2 0x336A JUMP JUMPDEST DUP1 PUSH1 0x4 ADD PUSH1 0x4 SWAP1 SLOAD SWAP1 PUSH2 0x100 EXP SWAP1 DIV PUSH4 0xFFFFFFFF AND PUSH4 0xFFFFFFFF AND TIMESTAMP LT ISZERO PUSH2 0xE77 JUMPI PUSH2 0xE10 PUSH32 0x6ED3E84619D2D886E3B32EC61A9AD0DDAE9AFD2602F592DAE404AF71829E0DA7 PUSH1 0x0 SHL PUSH2 0x336A JUMP JUMPDEST PUSH2 0xE3C PUSH32 0x10F3989F90BA356BA6595ACA99022E25074EDE9B7D9270ABB1709E484E07564D PUSH1 0x0 SHL PUSH2 0x336A JUMP JUMPDEST PUSH1 0x40 MLOAD PUSH32 0x92C18E6400000000000000000000000000000000000000000000000000000000 DUP2 MSTORE PUSH1 0x4 ADD PUSH2 0xE6E SWAP1 PUSH2 0x3AC1 JUMP JUMPDEST PUSH1 0x40 MLOAD DUP1 SWAP2 SUB SWAP1 REVERT JUMPDEST PUSH2 0xEA3 PUSH32 0x756822B6C73A047D1CD3888B813ACD339C064A52FB672E00CD1BDED617D55124 PUSH1 0x0 SHL PUSH2 0x336A JUMP JUMPDEST PUSH2 0xECF PUSH32 0x7B87121CE9CDE1AF1B09A962C3888F1F013286E89EF643BF209647F374C753F5 PUSH1 0x0 SHL PUSH2 0x336A JUMP JUMPDEST PUSH2 0xEFB PUSH32 0x31018FCF0D41EA4A9684981E947D46FA581A33347B5492339C75E053F7379CE9 PUSH1 0x0 SHL PUSH2 0x336A JUMP JUMPDEST DUP1 PUSH1 0x2 ADD SLOAD DUP2 PUSH1 0x3 ADD SLOAD LT ISZERO PUSH2 0xFAA JUMPI PUSH2 0xF37 PUSH32 0x8019B2E12A89D60828968F5EE85EA2C8A1534577E99168FDE1D37A52F5CD6498 PUSH1 0x0 SHL PUSH2 0x336A JUMP JUMPDEST PUSH2 0xF63 PUSH32 0x5AC1B30B0840FE7BC996BBC1C2DB582867DDB85A1457F35A3DD4A59805F9BCC3 PUSH1 0x0 SHL PUSH2 0x336A JUMP JUMPDEST DUP1 PUSH1 0x3 ADD SLOAD DUP2 PUSH1 0x2 ADD SLOAD PUSH1 0x40 MLOAD PUSH32 0x3E9D646000000000000000000000000000000000000000000000000000000000 DUP2 MSTORE PUSH1 0x4 ADD PUSH2 0xFA1 SWAP3 SWAP2 SWAP1 PUSH2 0x3C27 JUMP JUMPDEST PUSH1 0x40 MLOAD DUP1 SWAP2 SUB SWAP1 REVERT JUMPDEST PUSH2 0xFD6 PUSH32 0x9FB6ED986FCC28E54B1CF99512FDAB073F1F64106AE51A6F8BA018541084EB14 PUSH1 0x0 SHL PUSH2 0x336A JUMP JUMPDEST PUSH2 0x1002 PUSH32 0xEA6E8458D94FA3C14B7B88F92B0A3ACFC4BD64B4F6FDAFDE0032320299DB4334 PUSH1 0x0 SHL PUSH2 0x336A JUMP JUMPDEST PUSH2 0x102E PUSH32 0x1A31CE8F325AC00E224D4FB0586E5FAC0310344EF0A36E7D26F56002C14B2DCC PUSH1 0x0 SHL PUSH2 0x336A JUMP JUMPDEST DUP1 PUSH1 0x4 ADD PUSH1 0x8 SWAP1 SLOAD SWAP1 PUSH2 0x100 EXP SWAP1 DIV PUSH1 0xFF AND ISZERO PUSH2 0x10D8 JUMPI PUSH2 0x1071 PUSH32 0x7F5A8C45CF45DFED45CC68F21D5230489EF0995511D9272FE6EB9ECE7C21DFB1 PUSH1 0x0 SHL PUSH2 0x336A JUMP JUMPDEST PUSH2 0x109D PUSH32 0x8E8603660F9D53C3EB1A2FF99BB7EBCBC9B00A6C5BDF31063EBFA47396F36D93 PUSH1 0x0 SHL PUSH2 0x336A JUMP JUMPDEST PUSH1 0x40 MLOAD PUSH32 0x1FBA87D900000000000000000000000000000000000000000000000000000000 DUP2 MSTORE PUSH1 0x4 ADD PUSH2 0x10CF SWAP1 PUSH2 0x3A61 JUMP JUMPDEST PUSH1 0x40 MLOAD DUP1 SWAP2 SUB SWAP1 REVERT JUMPDEST PUSH2 0x1104 PUSH32 0xC4E0515B977478E21DCFB354E2CB487DE0A5F4351F4FF8D203C17C27C82B4E70 PUSH1 0x0 SHL PUSH2 0x336A JUMP JUMPDEST PUSH2 0x1130 PUSH32 0xE0EAA7B069DB552327FB29284595D8B8F4978E77058EB915E5295F1C7C9A5F1F PUSH1 0x0 SHL PUSH2 0x336A JUMP JUMPDEST PUSH2 0x115C PUSH32 0xCD6ACC35DC44006D7E18E2E652FCF0A0EFEF46A2F8759A734CD3F0E69AA6E168 PUSH1 0x0 SHL PUSH2 0x336A JUMP JUMPDEST PUSH1 0x0 PUSH1 0x64 DUP3 PUSH1 0x2 ADD SLOAD PUSH2 0x116F SWAP2 SWAP1 PUSH2 0x3D47 JUMP JUMPDEST SWAP1 POP PUSH2 0x119D PUSH32 0x373E3299E96FF49CFF118F8D9F60A4771BAE6FED03AE4E8AA6FDB65A50B4F399 PUSH1 0x0 SHL PUSH2 0x336A JUMP JUMPDEST PUSH2 0x11C9 PUSH32 0x354E2853446E2A66C6CB542EA075A4D69B0BA44FCB1AE8949CF70A486C4E36B9 PUSH1 0x0 SHL PUSH2 0x336A JUMP JUMPDEST PUSH1 0x0 DUP3 PUSH1 0x0 ADD PUSH1 0x0 SWAP1 SLOAD SWAP1 PUSH2 0x100 EXP SWAP1 DIV PUSH20 0xFFFFFFFFFFFFFFFFFFFFFFFFFFFFFFFFFFFFFFFF AND SWAP1 POP PUSH2 0x121E PUSH32 0xD9B08E40A56ECF49D0751AF09236350B2E6AAD518A29AC258A641D244B84444C PUSH1 0x0 SHL PUSH2 0x336A JUMP JUMPDEST PUSH2 0x124A PUSH32 0xF6049DE179EC46EF76C0FFE507C1A5C7356CC42C4D228CD98A0E63DBF81DAC22 PUSH1 0x0 SHL PUSH2 0x336A JUMP JUMPDEST PUSH1 0x0 PUSH32 0x0 PUSH20 0xFFFFFFFFFFFFFFFFFFFFFFFFFFFFFFFFFFFFFFFF AND DUP4 PUSH1 0x40 MLOAD PUSH2 0x1290 SWAP1 PUSH2 0x3991 JUMP JUMPDEST PUSH1 0x0 PUSH1 0x40 MLOAD DUP1 DUP4 SUB DUP2 DUP6 DUP8 GAS CALL SWAP3 POP POP POP RETURNDATASIZE DUP1 PUSH1 0x0 DUP2 EQ PUSH2 0x12CD JUMPI PUSH1 0x40 MLOAD SWAP2 POP PUSH1 0x1F NOT PUSH1 0x3F RETURNDATASIZE ADD AND DUP3 ADD PUSH1 0x40 MSTORE RETURNDATASIZE DUP3 MSTORE RETURNDATASIZE PUSH1 0x0 PUSH1 0x20 DUP5 ADD RETURNDATACOPY PUSH2 0x12D2 JUMP JUMPDEST PUSH1 0x60 SWAP2 POP JUMPDEST POP POP SWAP1 POP PUSH2 0x1302 PUSH32 0x39AC60D3659FC3B6E4E40BBF9085635AE47E7572FA16542CE51156D644DB6290 PUSH1 0x0 SHL PUSH2 0x336A JUMP JUMPDEST PUSH2 0x132E PUSH32 0xAF6A0998902CDFE4B6E1F9001B34E09E4F4170F2269CB37F354C06262FE1A63 PUSH1 0x0 SHL PUSH2 0x336A JUMP JUMPDEST PUSH1 0x0 DUP3 PUSH20 0xFFFFFFFFFFFFFFFFFFFFFFFFFFFFFFFFFFFFFFFF AND DUP5 DUP7 PUSH1 0x3 ADD SLOAD PUSH2 0x1357 SWAP2 SWAP1 PUSH2 0x3D78 JUMP JUMPDEST PUSH1 0x40 MLOAD PUSH2 0x1363 SWAP1 PUSH2 0x3991 JUMP JUMPDEST PUSH1 0x0 PUSH1 0x40 MLOAD DUP1 DUP4 SUB DUP2 DUP6 DUP8 GAS CALL SWAP3 POP POP POP RETURNDATASIZE DUP1 PUSH1 0x0 DUP2 EQ PUSH2 0x13A0 JUMPI PUSH1 0x40 MLOAD SWAP2 POP PUSH1 0x1F NOT PUSH1 0x3F RETURNDATASIZE ADD AND DUP3 ADD PUSH1 0x40 MSTORE RETURNDATASIZE DUP3 MSTORE RETURNDATASIZE PUSH1 0x0 PUSH1 0x20 DUP5 ADD RETURNDATACOPY PUSH2 0x13A5 JUMP JUMPDEST PUSH1 0x60 SWAP2 POP JUMPDEST POP POP SWAP1 POP PUSH2 0x13D5 PUSH32 0x7837B7FC10FEBCD5D12CE91F7C16BA48F5731FA3885288BA5D2A1605EF337808 PUSH1 0x0 SHL PUSH2 0x336A JUMP JUMPDEST PUSH2 0x1401 PUSH32 0xD7B8C66265144AF6A58662B34455F96EF5F1408E6B24422F8856536B00EF3A66 PUSH1 0x0 SHL PUSH2 0x336A JUMP JUMPDEST DUP1 ISZERO DUP1 PUSH2 0x140C JUMPI POP DUP2 ISZERO JUMPDEST ISZERO PUSH2 0x149B JUMPI PUSH2 0x143D PUSH32 0x1CBB8EB9F7A866CC8D429E4684ACD97DFEF8CC7431EF5768E965CF955BED8054 PUSH1 0x0 SHL PUSH2 0x336A JUMP JUMPDEST PUSH2 0x1469 PUSH32 0x3F320E21DEB208ED926F073DB588F0C2E0C7B03BD112390EB0EA77D349E5A60F PUSH1 0x0 SHL PUSH2 0x336A JUMP JUMPDEST PUSH1 0x40 MLOAD PUSH32 0x397A23D500000000000000000000000000000000000000000000000000000000 DUP2 MSTORE PUSH1 0x4 ADD PUSH1 0x40 MLOAD DUP1 SWAP2 SUB SWAP1 REVERT JUMPDEST PUSH2 0x14C7 PUSH32 0xDC49E325DEE1C450D8E9D5BFCE8D32828C7A135E9E3B5660A50C1BC238D7535E PUSH1 0x0 SHL PUSH2 0x336A JUMP JUMPDEST PUSH2 0x14F3 PUSH32 0xA15E7D0CD54F3EA49755A40616CCECE679009420CC3F3D37021ABD782963C01D PUSH1 0x0 SHL PUSH2 0x336A JUMP JUMPDEST PUSH2 0x151F PUSH32 0xC22C4CF539B11181161D078DFC2AF3FC06AFE434D6CA285D28A2D30120A3DEF7 PUSH1 0x0 SHL PUSH2 0x336A JUMP JUMPDEST PUSH1 0x1 DUP6 PUSH1 0x4 ADD PUSH1 0x8 PUSH2 0x100 EXP DUP2 SLOAD DUP2 PUSH1 0xFF MUL NOT AND SWAP1 DUP4 ISZERO ISZERO MUL OR SWAP1 SSTORE POP PUSH2 0x1568 PUSH32 0x8AECB968DEC38F93DF8AFD85EA9277AEA768C2C456141A18A82F38DA923F1219 PUSH1 0x0 SHL PUSH2 0x336A JUMP JUMPDEST PUSH2 0x1594 PUSH32 0x6E27D82C5A89DDE94CF3A0B7A64BD4614765F69BCEE28B802364866848F19BCF PUSH1 0x0 SHL PUSH2 0x336A JUMP JUMPDEST PUSH32 0x7BB2B3C10797BACCB6F8C4791F1EDD6CA2F0D028EE0EDA64B01A9A57E3A653F7 DUP7 PUSH1 0x40 MLOAD PUSH2 0x15C3 SWAP2 SWAP1 PUSH2 0x3B03 JUMP JUMPDEST PUSH1 0x40 MLOAD DUP1 SWAP2 SUB SWAP1 LOG1 POP POP POP POP POP POP JUMP JUMPDEST PUSH1 0x0 PUSH2 0x1601 PUSH32 0xF4F62105238BCB75E710A5B4509C920F3D7238F1F77932C5C498585D927E4D95 PUSH1 0x0 SHL PUSH2 0x336A JUMP JUMPDEST PUSH2 0x162D PUSH32 0xAF11E139EF34A605F35F5D787961C8F1D9E85ED0CF80DD6980F925B8F8A0E3E0 PUSH1 0x0 SHL PUSH2 0x336A JUMP JUMPDEST PUSH2 0x1659 PUSH32 0xA8DF8508531F278CCE3ACD11AD2D708AC007EA82D69C0435063A0240D9A3BB03 PUSH1 0x0 SHL PUSH2 0x336A JUMP JUMPDEST PUSH1 0x2 PUSH1 0x0 DUP4 DUP2 MSTORE PUSH1 0x20 ADD SWAP1 DUP2 MSTORE PUSH1 0x20 ADD PUSH1 0x0 KECCAK256 PUSH1 0x0 CALLER PUSH20 0xFFFFFFFFFFFFFFFFFFFFFFFFFFFFFFFFFFFFFFFF AND PUSH20 0xFFFFFFFFFFFFFFFFFFFFFFFFFFFFFFFFFFFFFFFF AND DUP2 MSTORE PUSH1 0x20 ADD SWAP1 DUP2 MSTORE PUSH1 0x20 ADD PUSH1 0x0 KECCAK256 SLOAD SWAP1 POP SWAP2 SWAP1 POP JUMP JUMPDEST PUSH2 0x16DD PUSH32 0x8168087D93C95A6D43A7104B21919A09645ED8D14FBAFF0F539D9A0D4E446E40 PUSH1 0x0 SHL PUSH2 0x336A JUMP JUMPDEST PUSH2 0x1709 PUSH32 0xDDD9FB81F69492FFC24CFC25CF6EC7480DB694FBCBEC8D2D0CA432AC9FD372EC PUSH1 0x0 SHL PUSH2 0x336A JUMP JUMPDEST PUSH2 0x1735 PUSH32 0x35F7A0AC50643F1B99DD2261240037B3EA1D68865C443F8FDC631F048402E9D6 PUSH1 0x0 SHL PUSH2 0x336A JUMP JUMPDEST PUSH1 0x0 PUSH1 0x1 PUSH1 0x0 DUP4 DUP2 MSTORE PUSH1 0x20 ADD SWAP1 DUP2 MSTORE PUSH1 0x20 ADD PUSH1 0x0 KECCAK256 PUSH1 0x40 MLOAD DUP1 PUSH2 0x100 ADD PUSH1 0x40 MSTORE SWAP1 DUP2 PUSH1 0x0 DUP3 ADD PUSH1 0x0 SWAP1 SLOAD SWAP1 PUSH2 0x100 EXP SWAP1 DIV PUSH20 0xFFFFFFFFFFFFFFFFFFFFFFFFFFFFFFFFFFFFFFFF AND PUSH20 0xFFFFFFFFFFFFFFFFFFFFFFFFFFFFFFFFFFFFFFFF AND PUSH20 0xFFFFFFFFFFFFFFFFFFFFFFFFFFFFFFFFFFFFFFFF AND DUP2 MSTORE PUSH1 0x20 ADD PUSH1 0x1 DUP3 ADD DUP1 SLOAD PUSH2 0x17BC SWAP1 PUSH2 0x3E46 JUMP JUMPDEST DUP1 PUSH1 0x1F ADD PUSH1 0x20 DUP1 SWAP2 DIV MUL PUSH1 0x20 ADD PUSH1 0x40 MLOAD SWAP1 DUP2 ADD PUSH1 0x40 MSTORE DUP1 SWAP3 SWAP2 SWAP1 DUP2 DUP2 MSTORE PUSH1 0x20 ADD DUP3 DUP1 SLOAD PUSH2 0x17E8 SWAP1 PUSH2 0x3E46 JUMP JUMPDEST DUP1 ISZERO PUSH2 0x1835 JUMPI DUP1 PUSH1 0x1F LT PUSH2 0x180A JUMPI PUSH2 0x100 DUP1 DUP4 SLOAD DIV MUL DUP4 MSTORE SWAP2 PUSH1 0x20 ADD SWAP2 PUSH2 0x1835 JUMP JUMPDEST DUP3 ADD SWAP2 SWAP1 PUSH1 0x0 MSTORE PUSH1 0x20 PUSH1 0x0 KECCAK256 SWAP1 JUMPDEST DUP2 SLOAD DUP2 MSTORE SWAP1 PUSH1 0x1 ADD SWAP1 PUSH1 0x20 ADD DUP1 DUP4 GT PUSH2 0x1818 JUMPI DUP3 SWAP1 SUB PUSH1 0x1F AND DUP3 ADD SWAP2 JUMPDEST POP POP POP POP POP DUP2 MSTORE PUSH1 0x20 ADD PUSH1 0x2 DUP3 ADD SLOAD DUP2 MSTORE PUSH1 0x20 ADD PUSH1 0x3 DUP3 ADD SLOAD DUP2 MSTORE PUSH1 0x20 ADD PUSH1 0x4 DUP3 ADD PUSH1 0x0 SWAP1 SLOAD SWAP1 PUSH2 0x100 EXP SWAP1 DIV PUSH4 0xFFFFFFFF AND PUSH4 0xFFFFFFFF AND PUSH4 0xFFFFFFFF AND DUP2 MSTORE PUSH1 0x20 ADD PUSH1 0x4 DUP3 ADD PUSH1 0x4 SWAP1 SLOAD SWAP1 PUSH2 0x100 EXP SWAP1 DIV PUSH4 0xFFFFFFFF AND PUSH4 0xFFFFFFFF AND PUSH4 0xFFFFFFFF AND DUP2 MSTORE PUSH1 0x20 ADD PUSH1 0x4 DUP3 ADD PUSH1 0x8 SWAP1 SLOAD SWAP1 PUSH2 0x100 EXP SWAP1 DIV PUSH1 0xFF AND ISZERO ISZERO ISZERO ISZERO DUP2 MSTORE PUSH1 0x20 ADD PUSH1 0x5 DUP3 ADD SLOAD DUP2 MSTORE POP POP SWAP1 POP PUSH2 0x18F1 PUSH32 0x802B684071F88D456E77B6A7592B7B7D84782BA7AFE47A649F925522923E30C5 PUSH1 0x0 SHL PUSH2 0x336A JUMP JUMPDEST PUSH2 0x191D PUSH32 0xE1BF7CA9EF563A08C9DA387EC73675F53654AD6976320EC4C78151660A927454 PUSH1 0x0 SHL PUSH2 0x336A JUMP JUMPDEST CALLER PUSH20 0xFFFFFFFFFFFFFFFFFFFFFFFFFFFFFFFFFFFFFFFF AND DUP2 PUSH1 0x0 ADD MLOAD PUSH20 0xFFFFFFFFFFFFFFFFFFFFFFFFFFFFFFFFFFFFFFFF AND EQ PUSH2 0x19E7 JUMPI PUSH2 0x1980 PUSH32 0xF775D869B5E3CB26ED0376574CAE970EB58BEE2788A0D07E6BC65DFE47BF08AE PUSH1 0x0 SHL PUSH2 0x336A JUMP JUMPDEST PUSH2 0x19AC PUSH32 0x3F129ECABE4063C2FB7115761FF022575CFD3AFE5714291935644D03A06A1340 PUSH1 0x0 SHL PUSH2 0x336A JUMP JUMPDEST PUSH1 0x40 MLOAD PUSH32 0x6EAF9EF400000000000000000000000000000000000000000000000000000000 DUP2 MSTORE PUSH1 0x4 ADD PUSH2 0x19DE SWAP1 PUSH2 0x39E1 JUMP JUMPDEST PUSH1 0x40 MLOAD DUP1 SWAP2 SUB SWAP1 REVERT JUMPDEST PUSH2 0x1A13 PUSH32 0x3D526BCA215827AC96ACACC87C7B1A8A3C5B2649EBC3E1228A43D9FD841F6489 PUSH1 0x0 SHL PUSH2 0x336A JUMP JUMPDEST PUSH2 0x1A3F PUSH32 0x225C309E65572D860077E95A9AFF19B1C83ADA5A137073A3CD127E73440CF9D5 PUSH1 0x0 SHL PUSH2 0x336A JUMP JUMPDEST PUSH2 0x1A6B PUSH32 0xA2AFB487E9ACD402A20C0C9BA66E25FB05A806F6BD68ED03ADBC0EBCC4383D56 PUSH1 0x0 SHL PUSH2 0x336A JUMP JUMPDEST DUP1 PUSH1 0x80 ADD MLOAD PUSH4 0xFFFFFFFF AND TIMESTAMP GT ISZERO PUSH2 0x1B10 JUMPI PUSH2 0x1AA9 PUSH32 0xA07BBF56F705004E4C725E43D8DBBA0E27ACD1851D9118349893278970CD6E6 PUSH1 0x0 SHL PUSH2 0x336A JUMP JUMPDEST PUSH2 0x1AD5 PUSH32 0x1639FF2C1014E7C0953D9529B3B38E396581E3056F0F4BCC89187429B11D9D73 PUSH1 0x0 SHL PUSH2 0x336A JUMP JUMPDEST PUSH1 0x40 MLOAD PUSH32 0x92C18E6400000000000000000000000000000000000000000000000000000000 DUP2 MSTORE PUSH1 0x4 ADD PUSH2 0x1B07 SWAP1 PUSH2 0x3A41 JUMP JUMPDEST PUSH1 0x40 MLOAD DUP1 SWAP2 SUB SWAP1 REVERT JUMPDEST PUSH2 0x1B3C PUSH32 0x771961AB0E82C61C6DAE4C8096A06E1224745DED6465117DB2E8A5F9252D3CE0 PUSH1 0x0 SHL PUSH2 0x336A JUMP JUMPDEST PUSH2 0x1B68 PUSH32 0x8936B28BC88A77DF1DE2C5C84CEA15F2310A7CBA30669D30666CF76A214D5D53 PUSH1 0x0 SHL PUSH2 0x336A JUMP JUMPDEST PUSH1 0x1 PUSH1 0x0 DUP4 DUP2 MSTORE PUSH1 0x20 ADD SWAP1 DUP2 MSTORE PUSH1 0x20 ADD PUSH1 0x0 KECCAK256 PUSH1 0x0 DUP1 DUP3 ADD PUSH1 0x0 PUSH2 0x100 EXP DUP2 SLOAD SWAP1 PUSH20 0xFFFFFFFFFFFFFFFFFFFFFFFFFFFFFFFFFFFFFFFF MUL NOT AND SWAP1 SSTORE PUSH1 0x1 DUP3 ADD PUSH1 0x0 PUSH2 0x1BB3 SWAP2 SWAP1 PUSH2 0x336D JUMP JUMPDEST PUSH1 0x2 DUP3 ADD PUSH1 0x0 SWAP1 SSTORE PUSH1 0x3 DUP3 ADD PUSH1 0x0 SWAP1 SSTORE PUSH1 0x4 DUP3 ADD PUSH1 0x0 PUSH2 0x100 EXP DUP2 SLOAD SWAP1 PUSH4 0xFFFFFFFF MUL NOT AND SWAP1 SSTORE PUSH1 0x4 DUP3 ADD PUSH1 0x4 PUSH2 0x100 EXP DUP2 SLOAD SWAP1 PUSH4 0xFFFFFFFF MUL NOT AND SWAP1 SSTORE PUSH1 0x4 DUP3 ADD PUSH1 0x8 PUSH2 0x100 EXP DUP2 SLOAD SWAP1 PUSH1 0xFF MUL NOT AND SWAP1 SSTORE PUSH1 0x5 DUP3 ADD PUSH1 0x0 SWAP1 SSTORE POP POP PUSH2 0x1C3B PUSH32 0x7111238A526C74BDFB33FFDB25BFC1F03EE698780C5549E1AD1EBC999B79906E PUSH1 0x0 SHL PUSH2 0x336A JUMP JUMPDEST PUSH2 0x1C67 PUSH32 0xF6953624D846B9173921265A7BD51376E7BDBDC0DA8BB213DBA6D80CE4BBA6AA PUSH1 0x0 SHL PUSH2 0x336A JUMP JUMPDEST PUSH32 0x8BF30E7FF26833413BE5F69E1D373744864D600B664204B4A2F9844A8EEDB9ED DUP3 PUSH1 0x40 MLOAD PUSH2 0x1C96 SWAP2 SWAP1 PUSH2 0x3B03 JUMP JUMPDEST PUSH1 0x40 MLOAD DUP1 SWAP2 SUB SWAP1 LOG1 POP POP JUMP JUMPDEST PUSH2 0x1CAA PUSH2 0x33AD JUMP JUMPDEST PUSH2 0x1CD6 PUSH32 0x24B7762C8BC7B3FA324DB8BC4289116A347B31F84E94F982215FAB769D80660D PUSH1 0x0 SHL PUSH2 0x336A JUMP JUMPDEST PUSH2 0x1D02 PUSH32 0x495130575288D8A93EC8C86C7AB23D149A2793ACE9EEB2D796E32673991CCB7B PUSH1 0x0 SHL PUSH2 0x336A JUMP JUMPDEST PUSH2 0x1D2E PUSH32 0x32E000526A96D9A3BA5E4B5E305249C1576CAB9ABCB704528747CCF882C715CB PUSH1 0x0 SHL PUSH2 0x336A JUMP JUMPDEST PUSH1 0x1 PUSH1 0x0 DUP4 DUP2 MSTORE PUSH1 0x20 ADD SWAP1 DUP2 MSTORE PUSH1 0x20 ADD PUSH1 0x0 KECCAK256 PUSH1 0x40 MLOAD DUP1 PUSH2 0x100 ADD PUSH1 0x40 MSTORE SWAP1 DUP2 PUSH1 0x0 DUP3 ADD PUSH1 0x0 SWAP1 SLOAD SWAP1 PUSH2 0x100 EXP SWAP1 DIV PUSH20 0xFFFFFFFFFFFFFFFFFFFFFFFFFFFFFFFFFFFFFFFF AND PUSH20 0xFFFFFFFFFFFFFFFFFFFFFFFFFFFFFFFFFFFFFFFF AND PUSH20 0xFFFFFFFFFFFFFFFFFFFFFFFFFFFFFFFFFFFFFFFF AND DUP2 MSTORE PUSH1 0x20 ADD PUSH1 0x1 DUP3 ADD DUP1 SLOAD PUSH2 0x1DB3 SWAP1 PUSH2 0x3E46 JUMP JUMPDEST DUP1 PUSH1 0x1F ADD PUSH1 0x20 DUP1 SWAP2 DIV MUL PUSH1 0x20 ADD PUSH1 0x40 MLOAD SWAP1 DUP2 ADD PUSH1 0x40 MSTORE DUP1 SWAP3 SWAP2 SWAP1 DUP2 DUP2 MSTORE PUSH1 0x20 ADD DUP3 DUP1 SLOAD PUSH2 0x1DDF SWAP1 PUSH2 0x3E46 JUMP JUMPDEST DUP1 ISZERO PUSH2 0x1E2C JUMPI DUP1 PUSH1 0x1F LT PUSH2 0x1E01 JUMPI PUSH2 0x100 DUP1 DUP4 SLOAD DIV MUL DUP4 MSTORE SWAP2 PUSH1 0x20 ADD SWAP2 PUSH2 0x1E2C JUMP JUMPDEST DUP3 ADD SWAP2 SWAP1 PUSH1 0x0 MSTORE PUSH1 0x20 PUSH1 0x0 KECCAK256 SWAP1 JUMPDEST DUP2 SLOAD DUP2 MSTORE SWAP1 PUSH1 0x1 ADD SWAP1 PUSH1 0x20 ADD DUP1 DUP4 GT PUSH2 0x1E0F JUMPI DUP3 SWAP1 SUB PUSH1 0x1F AND DUP3 ADD SWAP2 JUMPDEST POP POP POP POP POP DUP2 MSTORE PUSH1 0x20 ADD PUSH1 0x2 DUP3 ADD SLOAD DUP2 MSTORE PUSH1 0x20 ADD PUSH1 0x3 DUP3 ADD SLOAD DUP2 MSTORE PUSH1 0x20 ADD PUSH1 0x4 DUP3 ADD PUSH1 0x0 SWAP1 SLOAD SWAP1 PUSH2 0x100 EXP SWAP1 DIV PUSH4 0xFFFFFFFF AND PUSH4 0xFFFFFFFF AND PUSH4 0xFFFFFFFF AND DUP2 MSTORE PUSH1 0x20 ADD PUSH1 0x4 DUP3 ADD PUSH1 0x4 SWAP1 SLOAD SWAP1 PUSH2 0x100 EXP SWAP1 DIV PUSH4 0xFFFFFFFF AND PUSH4 0xFFFFFFFF AND PUSH4 0xFFFFFFFF AND DUP2 MSTORE PUSH1 0x20 ADD PUSH1 0x4 DUP3 ADD PUSH1 0x8 SWAP1 SLOAD SWAP1 PUSH2 0x100 EXP SWAP1 DIV PUSH1 0xFF AND ISZERO ISZERO ISZERO ISZERO DUP2 MSTORE PUSH1 0x20 ADD PUSH1 0x5 DUP3 ADD SLOAD DUP2 MSTORE POP POP SWAP1 POP SWAP2 SWAP1 POP JUMP JUMPDEST PUSH2 0x1EED PUSH32 0x1FE1217F7B3B9254957F93DBC5D91739B809BFB3DD73506FCF76E113992B4156 PUSH1 0x0 SHL PUSH2 0x336A JUMP JUMPDEST PUSH2 0x1F19 PUSH32 0x19CE6780656646BAC6E09978FB6038FDEA103213A0FB1A0A49858D354725F5E0 PUSH1 0x0 SHL PUSH2 0x336A JUMP JUMPDEST PUSH2 0x1F45 PUSH32 0x64E2B9165A2987787D97AB002FB4A3CE960C17F0FAD2A721AFE6E6234C75D1F4 PUSH1 0x0 SHL PUSH2 0x336A JUMP JUMPDEST PUSH1 0x0 PUSH1 0x1 PUSH1 0x0 DUP5 DUP2 MSTORE PUSH1 0x20 ADD SWAP1 DUP2 MSTORE PUSH1 0x20 ADD PUSH1 0x0 KECCAK256 SWAP1 POP PUSH2 0x1F88 PUSH32 0xCE3D1152E050EA3F3041687ECFFC431943537239A79C15DC50D3BA20FE3EE562 PUSH1 0x0 SHL PUSH2 0x336A JUMP JUMPDEST PUSH2 0x1FB4 PUSH32 0xCF26C40E574B6086E834B2E55C415549526111CC628BDAC680AAF0C12F8D742D PUSH1 0x0 SHL PUSH2 0x336A JUMP JUMPDEST DUP1 PUSH1 0x4 ADD PUSH1 0x4 SWAP1 SLOAD SWAP1 PUSH2 0x100 EXP SWAP1 DIV PUSH4 0xFFFFFFFF AND PUSH4 0xFFFFFFFF AND TIMESTAMP GT ISZERO PUSH2 0x2069 JUMPI PUSH2 0x2002 PUSH32 0x681770027A34C927E264D0DFECB6A91DFCBFE000A08792838BE0547C0BFCDCCB PUSH1 0x0 SHL PUSH2 0x336A JUMP JUMPDEST PUSH2 0x202E PUSH32 0x1E999CD2BA162DC0ACDC0BBB8A59949362FE2D9AC21137DB048AC3D52E3B9646 PUSH1 0x0 SHL PUSH2 0x336A JUMP JUMPDEST PUSH1 0x40 MLOAD PUSH32 0x92C18E6400000000000000000000000000000000000000000000000000000000 DUP2 MSTORE PUSH1 0x4 ADD PUSH2 0x2060 SWAP1 PUSH2 0x3AA1 JUMP JUMPDEST PUSH1 0x40 MLOAD DUP1 SWAP2 SUB SWAP1 REVERT JUMPDEST PUSH2 0x2095 PUSH32 0xD7780664E3CDDAD2A87B35DB1C202D23F2707C84F21B3732F230779A7F9B8CC6 PUSH1 0x0 SHL PUSH2 0x336A JUMP JUMPDEST PUSH2 0x20C1 PUSH32 0xE48189449EEE9CE057D398EF262846F7C1CE2A1FBD43DEF47BBEB39CC8F5DF63 PUSH1 0x0 SHL PUSH2 0x336A JUMP JUMPDEST PUSH2 0x20ED PUSH32 0x157D45EECD54C0588E904F8BB7D5C171F04AA543E298A987DC1DE380A886702C PUSH1 0x0 SHL PUSH2 0x336A JUMP JUMPDEST DUP2 PUSH1 0x2 PUSH1 0x0 DUP6 DUP2 MSTORE PUSH1 0x20 ADD SWAP1 DUP2 MSTORE PUSH1 0x20 ADD PUSH1 0x0 KECCAK256 PUSH1 0x0 CALLER PUSH20 0xFFFFFFFFFFFFFFFFFFFFFFFFFFFFFFFFFFFFFFFF AND PUSH20 0xFFFFFFFFFFFFFFFFFFFFFFFFFFFFFFFFFFFFFFFF AND DUP2 MSTORE PUSH1 0x20 ADD SWAP1 DUP2 MSTORE PUSH1 0x20 ADD PUSH1 0x0 KECCAK256 SLOAD LT ISZERO PUSH2 0x21CF JUMPI PUSH2 0x2171 PUSH32 0xA1351321D637C27DE807706B1CBE92F798DA4B1DD0C565C6A882F8AC254851D0 PUSH1 0x0 SHL PUSH2 0x336A JUMP JUMPDEST PUSH2 0x219D PUSH32 0xDA7D0FF894F5CD8B8DF38C8DC5AF6FDB5CE234DA483B19F6A7CC55E0B19ADCC8 PUSH1 0x0 SHL PUSH2 0x336A JUMP JUMPDEST PUSH1 0x40 MLOAD PUSH32 0x55C435F200000000000000000000000000000000000000000000000000000000 DUP2 MSTORE PUSH1 0x4 ADD PUSH1 0x40 MLOAD DUP1 SWAP2 SUB SWAP1 REVERT JUMPDEST PUSH2 0x21FB PUSH32 0x31629E8182C0142DF2E8EC4E68F5E25A97DF0898EFACB73CFFCCE7531968FD5B PUSH1 0x0 SHL PUSH2 0x336A JUMP JUMPDEST PUSH2 0x2227 PUSH32 0x4F5B8C515F4D72C1129D45D0EC7210C466FE95F7D53CF8CEC1F4E710CF672CB9 PUSH1 0x0 SHL PUSH2 0x336A JUMP JUMPDEST PUSH2 0x2253 PUSH32 0xF046DF25E5CB6CD7C5F51D6217C300854EE6E31650AE6C5F086A8C45415D9F57 PUSH1 0x0 SHL PUSH2 0x336A JUMP JUMPDEST DUP2 DUP2 PUSH1 0x3 ADD PUSH1 0x0 DUP3 DUP3 SLOAD PUSH2 0x2267 SWAP2 SWAP1 PUSH2 0x3D78 JUMP JUMPDEST SWAP3 POP POP DUP2 SWAP1 SSTORE POP PUSH2 0x229A PUSH32 0xE64A249E77598B7FC2871F87CAC9960F3F91929DEEBFBF28218D7DBFE2A8F9B8 PUSH1 0x0 SHL PUSH2 0x336A JUMP JUMPDEST PUSH2 0x22C6 PUSH32 0x42901346B9B01C8019324C7FC5103B2AE321239197B80F7519CDCA62C2C36243 PUSH1 0x0 SHL PUSH2 0x336A JUMP JUMPDEST DUP2 PUSH1 0x2 PUSH1 0x0 DUP6 DUP2 MSTORE PUSH1 0x20 ADD SWAP1 DUP2 MSTORE PUSH1 0x20 ADD PUSH1 0x0 KECCAK256 PUSH1 0x0 CALLER PUSH20 0xFFFFFFFFFFFFFFFFFFFFFFFFFFFFFFFFFFFFFFFF AND PUSH20 0xFFFFFFFFFFFFFFFFFFFFFFFFFFFFFFFFFFFFFFFF AND DUP2 MSTORE PUSH1 0x20 ADD SWAP1 DUP2 MSTORE PUSH1 0x20 ADD PUSH1 0x0 KECCAK256 PUSH1 0x0 DUP3 DUP3 SLOAD PUSH2 0x2326 SWAP2 SWAP1 PUSH2 0x3D78 JUMP JUMPDEST SWAP3 POP POP DUP2 SWAP1 SSTORE POP PUSH2 0x2359 PUSH32 0x8247A613EF49044AF8296E587E9CFF98DFEE62FA337E316957BC3DFA2917B9FF PUSH1 0x0 SHL PUSH2 0x336A JUMP JUMPDEST PUSH2 0x2385 PUSH32 0x73885C399D55D5140796B7AFC924FD7FA78114E8E02004BA1566D1AE82920D8E PUSH1 0x0 SHL PUSH2 0x336A JUMP JUMPDEST PUSH1 0x0 CALLER PUSH20 0xFFFFFFFFFFFFFFFFFFFFFFFFFFFFFFFFFFFFFFFF AND DUP4 PUSH1 0x40 MLOAD PUSH2 0x23AB SWAP1 PUSH2 0x3991 JUMP JUMPDEST PUSH1 0x0 PUSH1 0x40 MLOAD DUP1 DUP4 SUB DUP2 DUP6 DUP8 GAS CALL SWAP3 POP POP POP RETURNDATASIZE DUP1 PUSH1 0x0 DUP2 EQ PUSH2 0x23E8 JUMPI PUSH1 0x40 MLOAD SWAP2 POP PUSH1 0x1F NOT PUSH1 0x3F RETURNDATASIZE ADD AND DUP3 ADD PUSH1 0x40 MSTORE RETURNDATASIZE DUP3 MSTORE RETURNDATASIZE PUSH1 0x0 PUSH1 0x20 DUP5 ADD RETURNDATACOPY PUSH2 0x23ED JUMP JUMPDEST PUSH1 0x60 SWAP2 POP JUMPDEST POP POP SWAP1 POP PUSH2 0x241D PUSH32 0x8DA00F63788CA8549C6FC63DC3481F2F89471C692CD6AED14386035500206895 PUSH1 0x0 SHL PUSH2 0x336A JUMP JUMPDEST PUSH2 0x2449 PUSH32 0xEFBD278F3A88C3CF11F7D92080CE97B7319AB588947451521DBD4B314439F909 PUSH1 0x0 SHL PUSH2 0x336A JUMP JUMPDEST DUP1 PUSH2 0x24D8 JUMPI PUSH2 0x247A PUSH32 0xE26604F6F46E093481844C31FE8C06C0B16CCD980FE8CF7E6CDE55BAC22F1B35 PUSH1 0x0 SHL PUSH2 0x336A JUMP JUMPDEST PUSH2 0x24A6 PUSH32 0x412C47A3DED07BC881CF3A5D6FB5B3F79520FD80BA35889FC4B84AAFEC817B66 PUSH1 0x0 SHL PUSH2 0x336A JUMP JUMPDEST PUSH1 0x40 MLOAD PUSH32 0x397A23D500000000000000000000000000000000000000000000000000000000 DUP2 MSTORE PUSH1 0x4 ADD PUSH1 0x40 MLOAD DUP1 SWAP2 SUB SWAP1 REVERT JUMPDEST PUSH2 0x2504 PUSH32 0xFFE9F9754ACF8106D35CF45DFD69351932C634321E31B171611F6373129BFD54 PUSH1 0x0 SHL PUSH2 0x336A JUMP JUMPDEST PUSH2 0x2530 PUSH32 0xF3BD3CF051E0AF96884433DD09004218F2BCCA6661CE61514DE18C5EDFCB8CBF PUSH1 0x0 SHL PUSH2 0x336A JUMP JUMPDEST PUSH2 0x255C PUSH32 0x492AFCBCDA51F084C574A060A11FBEF6154CD941226ECCAA42682E1685F9A62F PUSH1 0x0 SHL PUSH2 0x336A JUMP JUMPDEST CALLER PUSH20 0xFFFFFFFFFFFFFFFFFFFFFFFFFFFFFFFFFFFFFFFF AND DUP5 PUSH32 0x2EEEAB891B26A214D1B25749F88A406BDEA852BD8C9BFDA977E0EF8114C180BA DUP6 PUSH1 0x40 MLOAD PUSH2 0x25A3 SWAP2 SWAP1 PUSH2 0x3B03 JUMP JUMPDEST PUSH1 0x40 MLOAD DUP1 SWAP2 SUB SWAP1 LOG3 POP POP POP POP JUMP JUMPDEST PUSH2 0x25DD PUSH32 0x78C210CE1BAD38188293CBC5E37E6240881912AC21319C1B978B57436C237811 PUSH1 0x0 SHL PUSH2 0x336A JUMP JUMPDEST PUSH2 0x2609 PUSH32 0xCF0EA156230D4051410626330EAD1FED57C560B7FBC4F57B8274B20570688F00 PUSH1 0x0 SHL PUSH2 0x336A JUMP JUMPDEST PUSH2 0x2635 PUSH32 0x145D465C09818E63FA2565A33205CD9D2919B417ED706FE3F531192118F0156D PUSH1 0x0 SHL PUSH2 0x336A JUMP JUMPDEST TIMESTAMP DUP3 PUSH4 0xFFFFFFFF AND LT ISZERO PUSH2 0x26D6 JUMPI PUSH2 0x266F PUSH32 0x1FBD58E3F1BBEB1DCAC2A4A853027007A058663BF0AD54F4D9962E1B1E9A1779 PUSH1 0x0 SHL PUSH2 0x336A JUMP JUMPDEST PUSH2 0x269B PUSH32 0x667078F5A7E11B6DB63774E0561FC014084D4DE4DA4080CC832606F1DD316208 PUSH1 0x0 SHL PUSH2 0x336A JUMP JUMPDEST PUSH1 0x40 MLOAD PUSH32 0x92C18E6400000000000000000000000000000000000000000000000000000000 DUP2 MSTORE PUSH1 0x4 ADD PUSH2 0x26CD SWAP1 PUSH2 0x3A21 JUMP JUMPDEST PUSH1 0x40 MLOAD DUP1 SWAP2 SUB SWAP1 REVERT JUMPDEST PUSH2 0x2702 PUSH32 0xB0AA6A33F7D7086C2E19C942977E6DA7BF5F004E72CF742F2138517921333B5B PUSH1 0x0 SHL PUSH2 0x336A JUMP JUMPDEST PUSH2 0x272E PUSH32 0x379A6F808D6B6E2EC0E0BFA8AFA13AA67E1904C531E3C0D5A1FE223B7A36399 PUSH1 0x0 SHL PUSH2 0x336A JUMP JUMPDEST PUSH2 0x275A PUSH32 0xE71CC6FF24D279C1D38F974304174F84DDACDAA0084EC362D3CA7E641C788B6E PUSH1 0x0 SHL PUSH2 0x336A JUMP JUMPDEST DUP2 PUSH4 0xFFFFFFFF AND DUP2 PUSH4 0xFFFFFFFF AND LT ISZERO PUSH2 0x2801 JUMPI PUSH2 0x279A PUSH32 0x22A35918155C0495B7A025CEBB1D09D155F7F12AD102CAA655F57F2D88E64467 PUSH1 0x0 SHL PUSH2 0x336A JUMP JUMPDEST PUSH2 0x27C6 PUSH32 0x6A2DEBC9DD48EA3867C25A2993351854E7471AD0CDDCB7EE67E9E3B655E7ACF1 PUSH1 0x0 SHL PUSH2 0x336A JUMP JUMPDEST PUSH1 0x40 MLOAD PUSH32 0x92C18E6400000000000000000000000000000000000000000000000000000000 DUP2 MSTORE PUSH1 0x4 ADD PUSH2 0x27F8 SWAP1 PUSH2 0x3A01 JUMP JUMPDEST PUSH1 0x40 MLOAD DUP1 SWAP2 SUB SWAP1 REVERT JUMPDEST PUSH2 0x282D PUSH32 0xE03CBB0357C20C41B1D18D781EE7949A8D21029749EBD49DCEBF5FC959C6B591 PUSH1 0x0 SHL PUSH2 0x336A JUMP JUMPDEST PUSH2 0x2859 PUSH32 0xDF6A2656716A76296B40431AA8B7BEFD9A8AC1F893BD2E54FDC264874E50BADB PUSH1 0x0 SHL PUSH2 0x336A JUMP JUMPDEST PUSH2 0x2885 PUSH32 0x2DBCFB5CECAAECD1D69EFEBAFF562CA12FA0AC48A388266DA9646C00117185B3 PUSH1 0x0 SHL PUSH2 0x336A JUMP JUMPDEST PUSH3 0x9E3400 TIMESTAMP PUSH2 0x2894 SWAP2 SWAP1 PUSH2 0x3CF1 JUMP JUMPDEST DUP2 PUSH4 0xFFFFFFFF AND GT ISZERO PUSH2 0x2934 JUMPI PUSH2 0x28CD PUSH32 0xC72F89C6D9177FC5B9E62E2D4448F8689327C0CA88EA1A4255471C62FCFE6D3A PUSH1 0x0 SHL PUSH2 0x336A JUMP JUMPDEST PUSH2 0x28F9 PUSH32 0xF2C75641BFF2EA4CC9936C7969CC6D96A50334B2A48B3DC1AA8A62667CBEB461 PUSH1 0x0 SHL PUSH2 0x336A JUMP JUMPDEST PUSH1 0x40 MLOAD PUSH32 0x92C18E6400000000000000000000000000000000000000000000000000000000 DUP2 MSTORE PUSH1 0x4 ADD PUSH2 0x292B SWAP1 PUSH2 0x39C1 JUMP JUMPDEST PUSH1 0x40 MLOAD DUP1 SWAP2 SUB SWAP1 REVERT JUMPDEST PUSH2 0x2960 PUSH32 0x23A72745649CBC8DBC18C8107414979F2CF2887E83646CF5681DC95E9EDF507 PUSH1 0x0 SHL PUSH2 0x336A JUMP JUMPDEST PUSH2 0x298C PUSH32 0x664018BFC668B7D96597C2FDB5DD41ACCAEDFFA215E7F0FFC2BEC4834A2EA598 PUSH1 0x0 SHL PUSH2 0x336A JUMP JUMPDEST PUSH1 0x0 DUP1 DUP2 SLOAD DUP1 SWAP3 SWAP2 SWAP1 PUSH2 0x299E SWAP1 PUSH2 0x3EA9 JUMP JUMPDEST SWAP2 SWAP1 POP SSTORE POP PUSH2 0x29CF PUSH32 0xB5C65D158F452B386ACA0DDC10112DFE96F70C8992DE215DF37773AA0B53AC1F PUSH1 0x0 SHL PUSH2 0x336A JUMP JUMPDEST PUSH2 0x29FB PUSH32 0x538B60618A366A32CC785D078DBBDF2B2A69DB891FBC2B97FE936E2632A12F21 PUSH1 0x0 SHL PUSH2 0x336A JUMP JUMPDEST PUSH1 0x40 MLOAD DUP1 PUSH2 0x100 ADD PUSH1 0x40 MSTORE DUP1 CALLER PUSH20 0xFFFFFFFFFFFFFFFFFFFFFFFFFFFFFFFFFFFFFFFF AND DUP2 MSTORE PUSH1 0x20 ADD DUP7 DUP2 MSTORE PUSH1 0x20 ADD DUP6 DUP2 MSTORE PUSH1 0x20 ADD PUSH1 0x0 DUP2 MSTORE PUSH1 0x20 ADD DUP4 PUSH4 0xFFFFFFFF AND DUP2 MSTORE PUSH1 0x20 ADD DUP3 PUSH4 0xFFFFFFFF AND DUP2 MSTORE PUSH1 0x20 ADD PUSH1 0x0 ISZERO ISZERO DUP2 MSTORE PUSH1 0x20 ADD DUP5 DUP2 MSTORE POP PUSH1 0x1 PUSH1 0x0 DUP1 SLOAD DUP2 MSTORE PUSH1 0x20 ADD SWAP1 DUP2 MSTORE PUSH1 0x20 ADD PUSH1 0x0 KECCAK256 PUSH1 0x0 DUP3 ADD MLOAD DUP2 PUSH1 0x0 ADD PUSH1 0x0 PUSH2 0x100 EXP DUP2 SLOAD DUP2 PUSH20 0xFFFFFFFFFFFFFFFFFFFFFFFFFFFFFFFFFFFFFFFF MUL NOT AND SWAP1 DUP4 PUSH20 0xFFFFFFFFFFFFFFFFFFFFFFFFFFFFFFFFFFFFFFFF AND MUL OR SWAP1 SSTORE POP PUSH1 0x20 DUP3 ADD MLOAD DUP2 PUSH1 0x1 ADD SWAP1 DUP1 MLOAD SWAP1 PUSH1 0x20 ADD SWAP1 PUSH2 0x2AD2 SWAP3 SWAP2 SWAP1 PUSH2 0x3416 JUMP JUMPDEST POP PUSH1 0x40 DUP3 ADD MLOAD DUP2 PUSH1 0x2 ADD SSTORE PUSH1 0x60 DUP3 ADD MLOAD DUP2 PUSH1 0x3 ADD SSTORE PUSH1 0x80 DUP3 ADD MLOAD DUP2 PUSH1 0x4 ADD PUSH1 0x0 PUSH2 0x100 EXP DUP2 SLOAD DUP2 PUSH4 0xFFFFFFFF MUL NOT AND SWAP1 DUP4 PUSH4 0xFFFFFFFF AND MUL OR SWAP1 SSTORE POP PUSH1 0xA0 DUP3 ADD MLOAD DUP2 PUSH1 0x4 ADD PUSH1 0x4 PUSH2 0x100 EXP DUP2 SLOAD DUP2 PUSH4 0xFFFFFFFF MUL NOT AND SWAP1 DUP4 PUSH4 0xFFFFFFFF AND MUL OR SWAP1 SSTORE POP PUSH1 0xC0 DUP3 ADD MLOAD DUP2 PUSH1 0x4 ADD PUSH1 0x8 PUSH2 0x100 EXP DUP2 SLOAD DUP2 PUSH1 0xFF MUL NOT AND SWAP1 DUP4 ISZERO ISZERO MUL OR SWAP1 SSTORE POP PUSH1 0xE0 DUP3 ADD MLOAD DUP2 PUSH1 0x5 ADD SSTORE SWAP1 POP POP PUSH2 0x2B8E PUSH32 0x83DCBC2CCC440159484E52399C51ADA39BB4927417287CBEBEA866D260824CCE PUSH1 0x0 SHL PUSH2 0x336A JUMP JUMPDEST PUSH2 0x2BBA PUSH32 0xC033866E1D93EC049E33489A11ACC8936D57C1D213648BCD4B9B11533C3BFFED PUSH1 0x0 SHL PUSH2 0x336A JUMP JUMPDEST CALLER PUSH20 0xFFFFFFFFFFFFFFFFFFFFFFFFFFFFFFFFFFFFFFFF AND PUSH32 0xB680F4A81A5EC2568FEA4B180E7A699B5CE52912DAF0724701218B2B7EE0F904 PUSH1 0x0 SLOAD DUP8 DUP8 DUP8 DUP8 DUP8 PUSH1 0x40 MLOAD PUSH2 0x2C0C SWAP7 SWAP6 SWAP5 SWAP4 SWAP3 SWAP2 SWAP1 PUSH2 0x3B1E JUMP JUMPDEST PUSH1 0x40 MLOAD DUP1 SWAP2 SUB SWAP1 LOG2 POP POP POP POP POP JUMP JUMPDEST PUSH2 0x2C47 PUSH32 0xF2E532CBD3EF9C1B45A517AA6D931B8D0966031762B947B3825B80F8BFBCFB67 PUSH1 0x0 SHL PUSH2 0x336A JUMP JUMPDEST PUSH2 0x2C73 PUSH32 0xD067B30739CCE1DBBAC39041B6B8A48693270711F924FF6C95868263ECBAECFC PUSH1 0x0 SHL PUSH2 0x336A JUMP JUMPDEST PUSH2 0x2C9F PUSH32 0x7B414417FBC01B2F15E778BA7A173E5F76DB8301857F418BF2E07CEFD85120A8 PUSH1 0x0 SHL PUSH2 0x336A JUMP JUMPDEST PUSH1 0x0 PUSH1 0x1 PUSH1 0x0 DUP4 DUP2 MSTORE PUSH1 0x20 ADD SWAP1 DUP2 MSTORE PUSH1 0x20 ADD PUSH1 0x0 KECCAK256 SWAP1 POP PUSH2 0x2CE2 PUSH32 0x61D28034205113254429A933DB347C9818AC24C99EE9B10B9214501568D8DE35 PUSH1 0x0 SHL PUSH2 0x336A JUMP JUMPDEST PUSH2 0x2D0E PUSH32 0x263257A6B0F527C3353C4E84F604E0ADAF7A472695F7D06FDDC17466AC4A00B5 PUSH1 0x0 SHL PUSH2 0x336A JUMP JUMPDEST DUP1 PUSH1 0x4 ADD PUSH1 0x0 SWAP1 SLOAD SWAP1 PUSH2 0x100 EXP SWAP1 DIV PUSH4 0xFFFFFFFF AND PUSH4 0xFFFFFFFF AND TIMESTAMP LT ISZERO PUSH2 0x2DC3 JUMPI PUSH2 0x2D5C PUSH32 0xBC0A4BCAE9FE96AC849E6EE8F8CEE6E887616192A6BA980C2381C61BF843FEDC PUSH1 0x0 SHL PUSH2 0x336A JUMP JUMPDEST PUSH2 0x2D88 PUSH32 0xC9BBCB1901D3AA5E32CDB3435B9E56CCF5365FBAA0D1CF11E116BD426FFB953F PUSH1 0x0 SHL PUSH2 0x336A JUMP JUMPDEST PUSH1 0x40 MLOAD PUSH32 0x92C18E6400000000000000000000000000000000000000000000000000000000 DUP2 MSTORE PUSH1 0x4 ADD PUSH2 0x2DBA SWAP1 PUSH2 0x3A81 JUMP JUMPDEST PUSH1 0x40 MLOAD DUP1 SWAP2 SUB SWAP1 REVERT JUMPDEST PUSH2 0x2DEF PUSH32 0x4AD7D3E78469408111A445371E5955C28FE85AB6BB5F43A081E9964DE926E23D PUSH1 0x0 SHL PUSH2 0x336A JUMP JUMPDEST PUSH2 0x2E1B PUSH32 0xB4DA9F7F4D319D8D4796AEDC1F4E8C24A1EB83293208C102CFDD22E75BDE8E6E PUSH1 0x0 SHL PUSH2 0x336A JUMP JUMPDEST PUSH2 0x2E47 PUSH32 0xAA4F2FF6989ED53909323E8852D7810B530238415B22DEC971F4E1BE041B9222 PUSH1 0x0 SHL PUSH2 0x336A JUMP JUMPDEST DUP1 PUSH1 0x4 ADD PUSH1 0x4 SWAP1 SLOAD SWAP1 PUSH2 0x100 EXP SWAP1 DIV PUSH4 0xFFFFFFFF AND PUSH4 0xFFFFFFFF AND TIMESTAMP GT ISZERO PUSH2 0x2EFC JUMPI PUSH2 0x2E95 PUSH32 0xB8431D90DEF278E8954E8CCC41E9B3B2E8E9E0D71E4C5DAA76B94406A61508EF PUSH1 0x0 SHL PUSH2 0x336A JUMP JUMPDEST PUSH2 0x2EC1 PUSH32 0x96286799944011EDEC8A3D2A0FDE0C9930019A0545BD8536D2F67997A9A9D019 PUSH1 0x0 SHL PUSH2 0x336A JUMP JUMPDEST PUSH1 0x40 MLOAD PUSH32 0x92C18E6400000000000000000000000000000000000000000000000000000000 DUP2 MSTORE PUSH1 0x4 ADD PUSH2 0x2EF3 SWAP1 PUSH2 0x3AA1 JUMP JUMPDEST PUSH1 0x40 MLOAD DUP1 SWAP2 SUB SWAP1 REVERT JUMPDEST PUSH2 0x2F28 PUSH32 0xD9BC54EB27C4ED905F2E8CDCE9AF52BD6652E63BEA5383410F2A7792B6426B67 PUSH1 0x0 SHL PUSH2 0x336A JUMP JUMPDEST PUSH2 0x2F54 PUSH32 0x21E7B3680FF08AAEE6D68FEA32A4A95C081975D300A0AB12EFC6C941BD4A7EFA PUSH1 0x0 SHL PUSH2 0x336A JUMP JUMPDEST PUSH2 0x2F80 PUSH32 0x30B0A00999F1234C7A2380607C3C50E4FBF588D994AD89BAFDE28E242F5ED45 PUSH1 0x0 SHL PUSH2 0x336A JUMP JUMPDEST DUP1 PUSH1 0x5 ADD SLOAD CALLVALUE LT ISZERO PUSH2 0x3027 JUMPI PUSH2 0x2FB8 PUSH32 0xEAE6382B798E02714F72F1564E88AB9E08E3359BEC036EABCD87C86B097CD2D0 PUSH1 0x0 SHL PUSH2 0x336A JUMP JUMPDEST PUSH2 0x2FE4 PUSH32 0x3A5D5F207ECCE15686570A5F61EE07C95136A680B36AF1D5F414AF3A95079644 PUSH1 0x0 SHL PUSH2 0x336A JUMP JUMPDEST DUP1 PUSH1 0x5 ADD SLOAD CALLVALUE PUSH1 0x40 MLOAD PUSH32 0xEB70789F00000000000000000000000000000000000000000000000000000000 DUP2 MSTORE PUSH1 0x4 ADD PUSH2 0x301E SWAP3 SWAP2 SWAP1 PUSH2 0x3BAF JUMP JUMPDEST PUSH1 0x40 MLOAD DUP1 SWAP2 SUB SWAP1 REVERT JUMPDEST PUSH2 0x3053 PUSH32 0xA0462BB5376E744F43982BB4870720FD24770F9E25D4C067F5A7F3120021D8C4 PUSH1 0x0 SHL PUSH2 0x336A JUMP JUMPDEST PUSH2 0x307F PUSH32 0x7F566D95363EB50B1073B611BF1A2AB0E2F593D6928BFCEC0E14707B97C85303 PUSH1 0x0 SHL PUSH2 0x336A JUMP JUMPDEST PUSH2 0x30AB PUSH32 0xED0768B225E92D225D69B76901D650B58058C9C6C157718F258CA0EC4E01F08D PUSH1 0x0 SHL PUSH2 0x336A JUMP JUMPDEST CALLVALUE DUP2 PUSH1 0x3 ADD PUSH1 0x0 DUP3 DUP3 SLOAD PUSH2 0x30BF SWAP2 SWAP1 PUSH2 0x3CF1 JUMP JUMPDEST SWAP3 POP POP DUP2 SWAP1 SSTORE POP PUSH2 0x30F2 PUSH32 0x976C82509273C566DEDB749219AE784C841C497F0D74A88733B43624E67C38FB PUSH1 0x0 SHL PUSH2 0x336A JUMP JUMPDEST PUSH2 0x311E PUSH32 0xCD4AADCF7B08BE8D66E5D9D07D2E77A355D3251D9E228F22BE0515958C4412E7 PUSH1 0x0 SHL PUSH2 0x336A JUMP JUMPDEST CALLVALUE PUSH1 0x2 PUSH1 0x0 DUP5 DUP2 MSTORE PUSH1 0x20 ADD SWAP1 DUP2 MSTORE PUSH1 0x20 ADD PUSH1 0x0 KECCAK256 PUSH1 0x0 CALLER PUSH20 0xFFFFFFFFFFFFFFFFFFFFFFFFFFFFFFFFFFFFFFFF AND PUSH20 0xFFFFFFFFFFFFFFFFFFFFFFFFFFFFFFFFFFFFFFFF AND DUP2 MSTORE PUSH1 0x20 ADD SWAP1 DUP2 MSTORE PUSH1 0x20 ADD PUSH1 0x0 KECCAK256 PUSH1 0x0 DUP3 DUP3 SLOAD PUSH2 0x317E SWAP2 SWAP1 PUSH2 0x3CF1 JUMP JUMPDEST SWAP3 POP POP DUP2 SWAP1 SSTORE POP PUSH2 0x31B1 PUSH32 0x2B98BA96537A510FEE9F75FE3886F3C088F3E039F0FF60D287EA5018995D5D15 PUSH1 0x0 SHL PUSH2 0x336A JUMP JUMPDEST PUSH2 0x31DD PUSH32 0x1E4B151862191BF0FDB2F3799C37B336BBD1C49CCB58A3782DD8E92302E83054 PUSH1 0x0 SHL PUSH2 0x336A JUMP JUMPDEST CALLER PUSH20 0xFFFFFFFFFFFFFFFFFFFFFFFFFFFFFFFFFFFFFFFF AND DUP3 PUSH32 0x6BDB975DF800A73232998E71ED585D536222F1DFEAA622D7F62A23ADA686C82 CALLVALUE PUSH1 0x40 MLOAD PUSH2 0x3224 SWAP2 SWAP1 PUSH2 0x3B03 JUMP JUMPDEST PUSH1 0x40 MLOAD DUP1 SWAP2 SUB SWAP1 LOG3 POP POP JUMP JUMPDEST PUSH1 0x0 PUSH2 0x325E PUSH32 0x22CC9554E1C21BF859A19390B2146DA54237B8A5401568BE98908CCBD3DE2695 PUSH1 0x0 SHL PUSH2 0x336A JUMP JUMPDEST PUSH2 0x328A PUSH32 0xEF40F6FA20A18F37E67C8F3091C547F156798FC2531DD972799C5B85814C23EE PUSH1 0x0 SHL PUSH2 0x336A JUMP JUMPDEST PUSH2 0x32B6 PUSH32 0xF235890A25889F094D1892EB85CF8DE87584D971605DE6F0C05BC0C706395F42 PUSH1 0x0 SHL PUSH2 0x336A JUMP JUMPDEST PUSH32 0x0 SWAP1 POP SWAP1 JUMP JUMPDEST PUSH1 0x0 PUSH2 0x330A PUSH32 0x59A5B66AC43E584654EA749B50A52EA70234799ADC332C0380ADB6D3D5401BF8 PUSH1 0x0 SHL PUSH2 0x336A JUMP JUMPDEST PUSH2 0x3336 PUSH32 0xB95D642368C8856BC0B29434A8FAB805A40153132BD4A4637F561B9FBA785309 PUSH1 0x0 SHL PUSH2 0x336A JUMP JUMPDEST PUSH2 0x3362 PUSH32 0x26F8833F3F266ECD0AE69A865744243201A62C2DF0DBD4E4C60DB619D52AA41F PUSH1 0x0 SHL PUSH2 0x336A JUMP JUMPDEST PUSH1 0x0 SLOAD SWAP1 POP SWAP1 JUMP JUMPDEST POP JUMP JUMPDEST POP DUP1 SLOAD PUSH2 0x3379 SWAP1 PUSH2 0x3E46 JUMP JUMPDEST PUSH1 0x0 DUP3 SSTORE DUP1 PUSH1 0x1F LT PUSH2 0x338B JUMPI POP PUSH2 0x33AA JUMP JUMPDEST PUSH1 0x1F ADD PUSH1 0x20 SWAP1 DIV SWAP1 PUSH1 0x0 MSTORE PUSH1 0x20 PUSH1 0x0 KECCAK256 SWAP1 DUP2 ADD SWAP1 PUSH2 0x33A9 SWAP2 SWAP1 PUSH2 0x349C JUMP JUMPDEST JUMPDEST POP JUMP JUMPDEST PUSH1 0x40 MLOAD DUP1 PUSH2 0x100 ADD PUSH1 0x40 MSTORE DUP1 PUSH1 0x0 PUSH20 0xFFFFFFFFFFFFFFFFFFFFFFFFFFFFFFFFFFFFFFFF AND DUP2 MSTORE PUSH1 0x20 ADD PUSH1 0x60 DUP2 MSTORE PUSH1 0x20 ADD PUSH1 0x0 DUP2 MSTORE PUSH1 0x20 ADD PUSH1 0x0 DUP2 MSTORE PUSH1 0x20 ADD PUSH1 0x0 PUSH4 0xFFFFFFFF AND DUP2 MSTORE PUSH1 0x20 ADD PUSH1 0x0 PUSH4 0xFFFFFFFF AND DUP2 MSTORE PUSH1 0x20 ADD PUSH1 0x0 ISZERO ISZERO DUP2 MSTORE PUSH1 0x20 ADD PUSH1 0x0 DUP2 MSTORE POP SWAP1 JUMP JUMPDEST DUP3 DUP1 SLOAD PUSH2 0x3422 SWAP1 PUSH2 0x3E46 JUMP JUMPDEST SWAP1 PUSH1 0x0 MSTORE PUSH1 0x20 PUSH1 0x0 KECCAK256 SWAP1 PUSH1 0x1F ADD PUSH1 0x20 SWAP1 DIV DUP2 ADD SWAP3 DUP3 PUSH2 0x3444 JUMPI PUSH1 0x0 DUP6 SSTORE PUSH2 0x348B JUMP JUMPDEST DUP3 PUSH1 0x1F LT PUSH2 0x345D JUMPI DUP1 MLOAD PUSH1 0xFF NOT AND DUP4 DUP1 ADD OR DUP6 SSTORE PUSH2 0x348B JUMP JUMPDEST DUP3 DUP1 ADD PUSH1 0x1 ADD DUP6 SSTORE DUP3 ISZERO PUSH2 0x348B JUMPI SWAP2 DUP3 ADD JUMPDEST DUP3 DUP2 GT ISZERO PUSH2 0x348A JUMPI DUP3 MLOAD DUP3 SSTORE SWAP2 PUSH1 0x20 ADD SWAP2 SWAP1 PUSH1 0x1 ADD SWAP1 PUSH2 0x346F JUMP JUMPDEST JUMPDEST POP SWAP1 POP PUSH2 0x3498 SWAP2 SWAP1 PUSH2 0x349C JUMP JUMPDEST POP SWAP1 JUMP JUMPDEST JUMPDEST DUP1 DUP3 GT ISZERO PUSH2 0x34B5 JUMPI PUSH1 0x0 DUP2 PUSH1 0x0 SWAP1 SSTORE POP PUSH1 0x1 ADD PUSH2 0x349D JUMP JUMPDEST POP SWAP1 JUMP JUMPDEST PUSH1 0x0 PUSH2 0x34CC PUSH2 0x34C7 DUP5 PUSH2 0x3C88 JUMP JUMPDEST PUSH2 0x3C63 JUMP JUMPDEST SWAP1 POP DUP3 DUP2 MSTORE PUSH1 0x20 DUP2 ADD DUP5 DUP5 DUP5 ADD GT ISZERO PUSH2 0x34E4 JUMPI PUSH1 0x0 DUP1 REVERT JUMPDEST PUSH2 0x34EF DUP5 DUP3 DUP6 PUSH2 0x3E04 JUMP JUMPDEST POP SWAP4 SWAP3 POP POP POP JUMP JUMPDEST PUSH1 0x0 DUP3 PUSH1 0x1F DUP4 ADD SLT PUSH2 0x3508 JUMPI PUSH1 0x0 DUP1 REVERT JUMPDEST DUP2 CALLDATALOAD PUSH2 0x3518 DUP5 DUP3 PUSH1 0x20 DUP7 ADD PUSH2 0x34B9 JUMP JUMPDEST SWAP2 POP POP SWAP3 SWAP2 POP POP JUMP JUMPDEST PUSH1 0x0 DUP2 CALLDATALOAD SWAP1 POP PUSH2 0x3530 DUP2 PUSH2 0x41AE JUMP JUMPDEST SWAP3 SWAP2 POP POP JUMP JUMPDEST PUSH1 0x0 DUP2 CALLDATALOAD SWAP1 POP PUSH2 0x3545 DUP2 PUSH2 0x41C5 JUMP JUMPDEST SWAP3 SWAP2 POP POP JUMP JUMPDEST PUSH1 0x0 DUP1 PUSH1 0x0 DUP1 PUSH1 0x0 PUSH1 0xA0 DUP7 DUP9 SUB SLT ISZERO PUSH2 0x3563 JUMPI PUSH1 0x0 DUP1 REVERT JUMPDEST PUSH1 0x0 DUP7 ADD CALLDATALOAD PUSH8 0xFFFFFFFFFFFFFFFF DUP2 GT ISZERO PUSH2 0x357D JUMPI PUSH1 0x0 DUP1 REVERT JUMPDEST PUSH2 0x3589 DUP9 DUP3 DUP10 ADD PUSH2 0x34F7 JUMP JUMPDEST SWAP6 POP POP PUSH1 0x20 PUSH2 0x359A DUP9 DUP3 DUP10 ADD PUSH2 0x3521 JUMP JUMPDEST SWAP5 POP POP PUSH1 0x40 PUSH2 0x35AB DUP9 DUP3 DUP10 ADD PUSH2 0x3521 JUMP JUMPDEST SWAP4 POP POP PUSH1 0x60 PUSH2 0x35BC DUP9 DUP3 DUP10 ADD PUSH2 0x3536 JUMP JUMPDEST SWAP3 POP POP PUSH1 0x80 PUSH2 0x35CD DUP9 DUP3 DUP10 ADD PUSH2 0x3536 JUMP JUMPDEST SWAP2 POP POP SWAP3 SWAP6 POP SWAP3 SWAP6 SWAP1 SWAP4 POP JUMP JUMPDEST PUSH1 0x0 PUSH1 0x20 DUP3 DUP5 SUB SLT ISZERO PUSH2 0x35EC JUMPI PUSH1 0x0 DUP1 REVERT JUMPDEST PUSH1 0x0 PUSH2 0x35FA DUP5 DUP3 DUP6 ADD PUSH2 0x3521 JUMP JUMPDEST SWAP2 POP POP SWAP3 SWAP2 POP POP JUMP JUMPDEST PUSH1 0x0 DUP1 PUSH1 0x40 DUP4 DUP6 SUB SLT ISZERO PUSH2 0x3616 JUMPI PUSH1 0x0 DUP1 REVERT JUMPDEST PUSH1 0x0 PUSH2 0x3624 DUP6 DUP3 DUP7 ADD PUSH2 0x3521 JUMP JUMPDEST SWAP3 POP POP PUSH1 0x20 PUSH2 0x3635 DUP6 DUP3 DUP7 ADD PUSH2 0x3521 JUMP JUMPDEST SWAP2 POP POP SWAP3 POP SWAP3 SWAP1 POP JUMP JUMPDEST PUSH2 0x3648 DUP2 PUSH2 0x3DAC JUMP JUMPDEST DUP3 MSTORE POP POP JUMP JUMPDEST PUSH2 0x3657 DUP2 PUSH2 0x3DAC JUMP JUMPDEST DUP3 MSTORE POP POP JUMP JUMPDEST PUSH2 0x3666 DUP2 PUSH2 0x3DBE JUMP JUMPDEST DUP3 MSTORE POP POP JUMP JUMPDEST PUSH1 0x0 PUSH2 0x3677 DUP3 PUSH2 0x3CB9 JUMP JUMPDEST PUSH2 0x3681 DUP2 DUP6 PUSH2 0x3CCF JUMP JUMPDEST SWAP4 POP PUSH2 0x3691 DUP2 DUP6 PUSH1 0x20 DUP7 ADD PUSH2 0x3E13 JUMP JUMPDEST PUSH2 0x369A DUP2 PUSH2 0x3FAE JUMP JUMPDEST DUP5 ADD SWAP2 POP POP SWAP3 SWAP2 POP POP JUMP JUMPDEST PUSH1 0x0 PUSH2 0x36B0 DUP3 PUSH2 0x3CB9 JUMP JUMPDEST PUSH2 0x36BA DUP2 DUP6 PUSH2 0x3CE0 JUMP JUMPDEST SWAP4 POP PUSH2 0x36CA DUP2 DUP6 PUSH1 0x20 DUP7 ADD PUSH2 0x3E13 JUMP JUMPDEST PUSH2 0x36D3 DUP2 PUSH2 0x3FAE JUMP JUMPDEST DUP5 ADD SWAP2 POP POP SWAP3 SWAP2 POP POP JUMP JUMPDEST PUSH1 0x0 PUSH2 0x36EB PUSH1 0x16 DUP4 PUSH2 0x3CE0 JUMP JUMPDEST SWAP2 POP PUSH2 0x36F6 DUP3 PUSH2 0x3FBF JUMP JUMPDEST PUSH1 0x20 DUP3 ADD SWAP1 POP SWAP2 SWAP1 POP JUMP JUMPDEST PUSH1 0x0 PUSH2 0x370E PUSH1 0x15 DUP4 PUSH2 0x3CE0 JUMP JUMPDEST SWAP2 POP PUSH2 0x3719 DUP3 PUSH2 0x3FE8 JUMP JUMPDEST PUSH1 0x20 DUP3 ADD SWAP1 POP SWAP2 SWAP1 POP JUMP JUMPDEST PUSH1 0x0 PUSH2 0x3731 PUSH1 0xB DUP4 PUSH2 0x3CE0 JUMP JUMPDEST SWAP2 POP PUSH2 0x373C DUP3 PUSH2 0x4011 JUMP JUMPDEST PUSH1 0x20 DUP3 ADD SWAP1 POP SWAP2 SWAP1 POP JUMP JUMPDEST PUSH1 0x0 PUSH2 0x3754 PUSH1 0x11 DUP4 PUSH2 0x3CE0 JUMP JUMPDEST SWAP2 POP PUSH2 0x375F DUP3 PUSH2 0x403A JUMP JUMPDEST PUSH1 0x20 DUP3 ADD SWAP1 POP SWAP2 SWAP1 POP JUMP JUMPDEST PUSH1 0x0 PUSH2 0x3777 PUSH1 0xE DUP4 PUSH2 0x3CE0 JUMP JUMPDEST SWAP2 POP PUSH2 0x3782 DUP3 PUSH2 0x4063 JUMP JUMPDEST PUSH1 0x20 DUP3 ADD SWAP1 POP SWAP2 SWAP1 POP JUMP JUMPDEST PUSH1 0x0 PUSH2 0x379A PUSH1 0xF DUP4 PUSH2 0x3CE0 JUMP JUMPDEST SWAP2 POP PUSH2 0x37A5 DUP3 PUSH2 0x408C JUMP JUMPDEST PUSH1 0x20 DUP3 ADD SWAP1 POP SWAP2 SWAP1 POP JUMP JUMPDEST PUSH1 0x0 PUSH2 0x37BD PUSH1 0x7 DUP4 PUSH2 0x3CE0 JUMP JUMPDEST SWAP2 POP PUSH2 0x37C8 DUP3 PUSH2 0x40B5 JUMP JUMPDEST PUSH1 0x20 DUP3 ADD SWAP1 POP SWAP2 SWAP1 POP JUMP JUMPDEST PUSH1 0x0 PUSH2 0x37E0 PUSH1 0x0 DUP4 PUSH2 0x3CC4 JUMP JUMPDEST SWAP2 POP PUSH2 0x37EB DUP3 PUSH2 0x40DE JUMP JUMPDEST PUSH1 0x0 DUP3 ADD SWAP1 POP SWAP2 SWAP1 POP JUMP JUMPDEST PUSH1 0x0 PUSH2 0x3803 PUSH1 0x18 DUP4 PUSH2 0x3CE0 JUMP JUMPDEST SWAP2 POP PUSH2 0x380E DUP3 PUSH2 0x40E1 JUMP JUMPDEST PUSH1 0x20 DUP3 ADD SWAP1 POP SWAP2 SWAP1 POP JUMP JUMPDEST PUSH1 0x0 PUSH2 0x3826 PUSH1 0xE DUP4 PUSH2 0x3CE0 JUMP JUMPDEST SWAP2 POP PUSH2 0x3831 DUP3 PUSH2 0x410A JUMP JUMPDEST PUSH1 0x20 DUP3 ADD SWAP1 POP SWAP2 SWAP1 POP JUMP JUMPDEST PUSH1 0x0 PUSH2 0x3849 PUSH1 0xB DUP4 PUSH2 0x3CE0 JUMP JUMPDEST SWAP2 POP PUSH2 0x3854 DUP3 PUSH2 0x4133 JUMP JUMPDEST PUSH1 0x20 DUP3 ADD SWAP1 POP SWAP2 SWAP1 POP JUMP JUMPDEST PUSH1 0x0 PUSH2 0x386C PUSH1 0x5 DUP4 PUSH2 0x3CE0 JUMP JUMPDEST SWAP2 POP PUSH2 0x3877 DUP3 PUSH2 0x415C JUMP JUMPDEST PUSH1 0x20 DUP3 ADD SWAP1 POP SWAP2 SWAP1 POP JUMP JUMPDEST PUSH1 0x0 PUSH2 0x388F PUSH1 0x9 DUP4 PUSH2 0x3CE0 JUMP JUMPDEST SWAP2 POP PUSH2 0x389A DUP3 PUSH2 0x4185 JUMP JUMPDEST PUSH1 0x20 DUP3 ADD SWAP1 POP SWAP2 SWAP1 POP JUMP JUMPDEST PUSH1 0x0 PUSH2 0x100 DUP4 ADD PUSH1 0x0 DUP4 ADD MLOAD PUSH2 0x38BE PUSH1 0x0 DUP7 ADD DUP3 PUSH2 0x363F JUMP JUMPDEST POP PUSH1 0x20 DUP4 ADD MLOAD DUP5 DUP3 SUB PUSH1 0x20 DUP7 ADD MSTORE PUSH2 0x38D6 DUP3 DUP3 PUSH2 0x366C JUMP JUMPDEST SWAP2 POP POP PUSH1 0x40 DUP4 ADD MLOAD PUSH2 0x38EB PUSH1 0x40 DUP7 ADD DUP3 PUSH2 0x3955 JUMP JUMPDEST POP PUSH1 0x60 DUP4 ADD MLOAD PUSH2 0x38FE PUSH1 0x60 DUP7 ADD DUP3 PUSH2 0x3955 JUMP JUMPDEST POP PUSH1 0x80 DUP4 ADD MLOAD PUSH2 0x3911 PUSH1 0x80 DUP7 ADD DUP3 PUSH2 0x3973 JUMP JUMPDEST POP PUSH1 0xA0 DUP4 ADD MLOAD PUSH2 0x3924 PUSH1 0xA0 DUP7 ADD DUP3 PUSH2 0x3973 JUMP JUMPDEST POP PUSH1 0xC0 DUP4 ADD MLOAD PUSH2 0x3937 PUSH1 0xC0 DUP7 ADD DUP3 PUSH2 0x365D JUMP JUMPDEST POP PUSH1 0xE0 DUP4 ADD MLOAD PUSH2 0x394A PUSH1 0xE0 DUP7 ADD DUP3 PUSH2 0x3955 JUMP JUMPDEST POP DUP1 SWAP2 POP POP SWAP3 SWAP2 POP POP JUMP JUMPDEST PUSH2 0x395E DUP2 PUSH2 0x3DEA JUMP JUMPDEST DUP3 MSTORE POP POP JUMP JUMPDEST PUSH2 0x396D DUP2 PUSH2 0x3DEA JUMP JUMPDEST DUP3 MSTORE POP POP JUMP JUMPDEST PUSH2 0x397C DUP2 PUSH2 0x3DF4 JUMP JUMPDEST DUP3 MSTORE POP POP JUMP JUMPDEST PUSH2 0x398B DUP2 PUSH2 0x3DF4 JUMP JUMPDEST DUP3 MSTORE POP POP JUMP JUMPDEST PUSH1 0x0 PUSH2 0x399C DUP3 PUSH2 0x37D3 JUMP JUMPDEST SWAP2 POP DUP2 SWAP1 POP SWAP2 SWAP1 POP JUMP JUMPDEST PUSH1 0x0 PUSH1 0x20 DUP3 ADD SWAP1 POP PUSH2 0x39BB PUSH1 0x0 DUP4 ADD DUP5 PUSH2 0x364E JUMP JUMPDEST SWAP3 SWAP2 POP POP JUMP JUMPDEST PUSH1 0x0 PUSH1 0x20 DUP3 ADD SWAP1 POP DUP2 DUP2 SUB PUSH1 0x0 DUP4 ADD MSTORE PUSH2 0x39DA DUP2 PUSH2 0x3701 JUMP JUMPDEST SWAP1 POP SWAP2 SWAP1 POP JUMP JUMPDEST PUSH1 0x0 PUSH1 0x20 DUP3 ADD SWAP1 POP DUP2 DUP2 SUB PUSH1 0x0 DUP4 ADD MSTORE PUSH2 0x39FA DUP2 PUSH2 0x3724 JUMP JUMPDEST SWAP1 POP SWAP2 SWAP1 POP JUMP JUMPDEST PUSH1 0x0 PUSH1 0x20 DUP3 ADD SWAP1 POP DUP2 DUP2 SUB PUSH1 0x0 DUP4 ADD MSTORE PUSH2 0x3A1A DUP2 PUSH2 0x3747 JUMP JUMPDEST SWAP1 POP SWAP2 SWAP1 POP JUMP JUMPDEST PUSH1 0x0 PUSH1 0x20 DUP3 ADD SWAP1 POP DUP2 DUP2 SUB PUSH1 0x0 DUP4 ADD MSTORE PUSH2 0x3A3A DUP2 PUSH2 0x376A JUMP JUMPDEST SWAP1 POP SWAP2 SWAP1 POP JUMP JUMPDEST PUSH1 0x0 PUSH1 0x20 DUP3 ADD SWAP1 POP DUP2 DUP2 SUB PUSH1 0x0 DUP4 ADD MSTORE PUSH2 0x3A5A DUP2 PUSH2 0x37B0 JUMP JUMPDEST SWAP1 POP SWAP2 SWAP1 POP JUMP JUMPDEST PUSH1 0x0 PUSH1 0x20 DUP3 ADD SWAP1 POP DUP2 DUP2 SUB PUSH1 0x0 DUP4 ADD MSTORE PUSH2 0x3A7A DUP2 PUSH2 0x37F6 JUMP JUMPDEST SWAP1 POP SWAP2 SWAP1 POP JUMP JUMPDEST PUSH1 0x0 PUSH1 0x20 DUP3 ADD SWAP1 POP DUP2 DUP2 SUB PUSH1 0x0 DUP4 ADD MSTORE PUSH2 0x3A9A DUP2 PUSH2 0x383C JUMP JUMPDEST SWAP1 POP SWAP2 SWAP1 POP JUMP JUMPDEST PUSH1 0x0 PUSH1 0x20 DUP3 ADD SWAP1 POP DUP2 DUP2 SUB PUSH1 0x0 DUP4 ADD MSTORE PUSH2 0x3ABA DUP2 PUSH2 0x385F JUMP JUMPDEST SWAP1 POP SWAP2 SWAP1 POP JUMP JUMPDEST PUSH1 0x0 PUSH1 0x20 DUP3 ADD SWAP1 POP DUP2 DUP2 SUB PUSH1 0x0 DUP4 ADD MSTORE PUSH2 0x3ADA DUP2 PUSH2 0x3882 JUMP JUMPDEST SWAP1 POP SWAP2 SWAP1 POP JUMP JUMPDEST PUSH1 0x0 PUSH1 0x20 DUP3 ADD SWAP1 POP DUP2 DUP2 SUB PUSH1 0x0 DUP4 ADD MSTORE PUSH2 0x3AFB DUP2 DUP5 PUSH2 0x38A5 JUMP JUMPDEST SWAP1 POP SWAP3 SWAP2 POP POP JUMP JUMPDEST PUSH1 0x0 PUSH1 0x20 DUP3 ADD SWAP1 POP PUSH2 0x3B18 PUSH1 0x0 DUP4 ADD DUP5 PUSH2 0x3964 JUMP JUMPDEST SWAP3 SWAP2 POP POP JUMP JUMPDEST PUSH1 0x0 PUSH1 0xC0 DUP3 ADD SWAP1 POP PUSH2 0x3B33 PUSH1 0x0 DUP4 ADD DUP10 PUSH2 0x3964 JUMP JUMPDEST DUP2 DUP2 SUB PUSH1 0x20 DUP4 ADD MSTORE PUSH2 0x3B45 DUP2 DUP9 PUSH2 0x36A5 JUMP JUMPDEST SWAP1 POP PUSH2 0x3B54 PUSH1 0x40 DUP4 ADD DUP8 PUSH2 0x3964 JUMP JUMPDEST PUSH2 0x3B61 PUSH1 0x60 DUP4 ADD DUP7 PUSH2 0x3964 JUMP JUMPDEST PUSH2 0x3B6E PUSH1 0x80 DUP4 ADD DUP6 PUSH2 0x3982 JUMP JUMPDEST PUSH2 0x3B7B PUSH1 0xA0 DUP4 ADD DUP5 PUSH2 0x3982 JUMP JUMPDEST SWAP8 SWAP7 POP POP POP POP POP POP POP JUMP JUMPDEST PUSH1 0x0 PUSH1 0x40 DUP3 ADD SWAP1 POP PUSH2 0x3B9B PUSH1 0x0 DUP4 ADD DUP6 PUSH2 0x3964 JUMP JUMPDEST PUSH2 0x3BA8 PUSH1 0x20 DUP4 ADD DUP5 PUSH2 0x3964 JUMP JUMPDEST SWAP4 SWAP3 POP POP POP JUMP JUMPDEST PUSH1 0x0 PUSH1 0x60 DUP3 ADD SWAP1 POP PUSH2 0x3BC4 PUSH1 0x0 DUP4 ADD DUP6 PUSH2 0x3964 JUMP JUMPDEST PUSH2 0x3BD1 PUSH1 0x20 DUP4 ADD DUP5 PUSH2 0x3964 JUMP JUMPDEST DUP2 DUP2 SUB PUSH1 0x40 DUP4 ADD MSTORE PUSH2 0x3BE2 DUP2 PUSH2 0x36DE JUMP JUMPDEST SWAP1 POP SWAP4 SWAP3 POP POP POP JUMP JUMPDEST PUSH1 0x0 PUSH1 0x60 DUP3 ADD SWAP1 POP PUSH2 0x3C00 PUSH1 0x0 DUP4 ADD DUP6 PUSH2 0x3964 JUMP JUMPDEST PUSH2 0x3C0D PUSH1 0x20 DUP4 ADD DUP5 PUSH2 0x3964 JUMP JUMPDEST DUP2 DUP2 SUB PUSH1 0x40 DUP4 ADD MSTORE PUSH2 0x3C1E DUP2 PUSH2 0x378D JUMP JUMPDEST SWAP1 POP SWAP4 SWAP3 POP POP POP JUMP JUMPDEST PUSH1 0x0 PUSH1 0x60 DUP3 ADD SWAP1 POP PUSH2 0x3C3C PUSH1 0x0 DUP4 ADD DUP6 PUSH2 0x3964 JUMP JUMPDEST PUSH2 0x3C49 PUSH1 0x20 DUP4 ADD DUP5 PUSH2 0x3964 JUMP JUMPDEST DUP2 DUP2 SUB PUSH1 0x40 DUP4 ADD MSTORE PUSH2 0x3C5A DUP2 PUSH2 0x3819 JUMP JUMPDEST SWAP1 POP SWAP4 SWAP3 POP POP POP JUMP JUMPDEST PUSH1 0x0 PUSH2 0x3C6D PUSH2 0x3C7E JUMP JUMPDEST SWAP1 POP PUSH2 0x3C79 DUP3 DUP3 PUSH2 0x3E78 JUMP JUMPDEST SWAP2 SWAP1 POP JUMP JUMPDEST PUSH1 0x0 PUSH1 0x40 MLOAD SWAP1 POP SWAP1 JUMP JUMPDEST PUSH1 0x0 PUSH8 0xFFFFFFFFFFFFFFFF DUP3 GT ISZERO PUSH2 0x3CA3 JUMPI PUSH2 0x3CA2 PUSH2 0x3F7F JUMP JUMPDEST JUMPDEST PUSH2 0x3CAC DUP3 PUSH2 0x3FAE JUMP JUMPDEST SWAP1 POP PUSH1 0x20 DUP2 ADD SWAP1 POP SWAP2 SWAP1 POP JUMP JUMPDEST PUSH1 0x0 DUP2 MLOAD SWAP1 POP SWAP2 SWAP1 POP JUMP JUMPDEST PUSH1 0x0 DUP2 SWAP1 POP SWAP3 SWAP2 POP POP JUMP JUMPDEST PUSH1 0x0 DUP3 DUP3 MSTORE PUSH1 0x20 DUP3 ADD SWAP1 POP SWAP3 SWAP2 POP POP JUMP JUMPDEST PUSH1 0x0 DUP3 DUP3 MSTORE PUSH1 0x20 DUP3 ADD SWAP1 POP SWAP3 SWAP2 POP POP JUMP JUMPDEST PUSH1 0x0 PUSH2 0x3CFC DUP3 PUSH2 0x3DEA JUMP JUMPDEST SWAP2 POP PUSH2 0x3D07 DUP4 PUSH2 0x3DEA JUMP JUMPDEST SWAP3 POP DUP3 PUSH32 0xFFFFFFFFFFFFFFFFFFFFFFFFFFFFFFFFFFFFFFFFFFFFFFFFFFFFFFFFFFFFFFFF SUB DUP3 GT ISZERO PUSH2 0x3D3C JUMPI PUSH2 0x3D3B PUSH2 0x3EF2 JUMP JUMPDEST JUMPDEST DUP3 DUP3 ADD SWAP1 POP SWAP3 SWAP2 POP POP JUMP JUMPDEST PUSH1 0x0 PUSH2 0x3D52 DUP3 PUSH2 0x3DEA JUMP JUMPDEST SWAP2 POP PUSH2 0x3D5D DUP4 PUSH2 0x3DEA JUMP JUMPDEST SWAP3 POP DUP3 PUSH2 0x3D6D JUMPI PUSH2 0x3D6C PUSH2 0x3F21 JUMP JUMPDEST JUMPDEST DUP3 DUP3 DIV SWAP1 POP SWAP3 SWAP2 POP POP JUMP JUMPDEST PUSH1 0x0 PUSH2 0x3D83 DUP3 PUSH2 0x3DEA JUMP JUMPDEST SWAP2 POP PUSH2 0x3D8E DUP4 PUSH2 0x3DEA JUMP JUMPDEST SWAP3 POP DUP3 DUP3 LT ISZERO PUSH2 0x3DA1 JUMPI PUSH2 0x3DA0 PUSH2 0x3EF2 JUMP JUMPDEST JUMPDEST DUP3 DUP3 SUB SWAP1 POP SWAP3 SWAP2 POP POP JUMP JUMPDEST PUSH1 0x0 PUSH2 0x3DB7 DUP3 PUSH2 0x3DCA JUMP JUMPDEST SWAP1 POP SWAP2 SWAP1 POP JUMP JUMPDEST PUSH1 0x0 DUP2 ISZERO ISZERO SWAP1 POP SWAP2 SWAP1 POP JUMP JUMPDEST PUSH1 0x0 PUSH20 0xFFFFFFFFFFFFFFFFFFFFFFFFFFFFFFFFFFFFFFFF DUP3 AND SWAP1 POP SWAP2 SWAP1 POP JUMP JUMPDEST PUSH1 0x0 DUP2 SWAP1 POP SWAP2 SWAP1 POP JUMP JUMPDEST PUSH1 0x0 PUSH4 0xFFFFFFFF DUP3 AND SWAP1 POP SWAP2 SWAP1 POP JUMP JUMPDEST DUP3 DUP2 DUP4 CALLDATACOPY PUSH1 0x0 DUP4 DUP4 ADD MSTORE POP POP POP JUMP JUMPDEST PUSH1 0x0 JUMPDEST DUP4 DUP2 LT ISZERO PUSH2 0x3E31 JUMPI DUP1 DUP3 ADD MLOAD DUP2 DUP5 ADD MSTORE PUSH1 0x20 DUP2 ADD SWAP1 POP PUSH2 0x3E16 JUMP JUMPDEST DUP4 DUP2 GT ISZERO PUSH2 0x3E40 JUMPI PUSH1 0x0 DUP5 DUP5 ADD MSTORE JUMPDEST POP POP POP POP JUMP JUMPDEST PUSH1 0x0 PUSH1 0x2 DUP3 DIV SWAP1 POP PUSH1 0x1 DUP3 AND DUP1 PUSH2 0x3E5E JUMPI PUSH1 0x7F DUP3 AND SWAP2 POP JUMPDEST PUSH1 0x20 DUP3 LT DUP2 EQ ISZERO PUSH2 0x3E72 JUMPI PUSH2 0x3E71 PUSH2 0x3F50 JUMP JUMPDEST JUMPDEST POP SWAP2 SWAP1 POP JUMP JUMPDEST PUSH2 0x3E81 DUP3 PUSH2 0x3FAE JUMP JUMPDEST DUP2 ADD DUP2 DUP2 LT PUSH8 0xFFFFFFFFFFFFFFFF DUP3 GT OR ISZERO PUSH2 0x3EA0 JUMPI PUSH2 0x3E9F PUSH2 0x3F7F JUMP JUMPDEST JUMPDEST DUP1 PUSH1 0x40 MSTORE POP POP POP JUMP JUMPDEST PUSH1 0x0 PUSH2 0x3EB4 DUP3 PUSH2 0x3DEA JUMP JUMPDEST SWAP2 POP PUSH32 0xFFFFFFFFFFFFFFFFFFFFFFFFFFFFFFFFFFFFFFFFFFFFFFFFFFFFFFFFFFFFFFFF DUP3 EQ ISZERO PUSH2 0x3EE7 JUMPI PUSH2 0x3EE6 PUSH2 0x3EF2 JUMP JUMPDEST JUMPDEST PUSH1 0x1 DUP3 ADD SWAP1 POP SWAP2 SWAP1 POP JUMP JUMPDEST PUSH32 0x4E487B7100000000000000000000000000000000000000000000000000000000 PUSH1 0x0 MSTORE PUSH1 0x11 PUSH1 0x4 MSTORE PUSH1 0x24 PUSH1 0x0 REVERT JUMPDEST PUSH32 0x4E487B7100000000000000000000000000000000000000000000000000000000 PUSH1 0x0 MSTORE PUSH1 0x12 PUSH1 0x4 MSTORE PUSH1 0x24 PUSH1 0x0 REVERT JUMPDEST PUSH32 0x4E487B7100000000000000000000000000000000000000000000000000000000 PUSH1 0x0 MSTORE PUSH1 0x22 PUSH1 0x4 MSTORE PUSH1 0x24 PUSH1 0x0 REVERT JUMPDEST PUSH32 0x4E487B7100000000000000000000000000000000000000000000000000000000 PUSH1 0x0 MSTORE PUSH1 0x41 PUSH1 0x4 MSTORE PUSH1 0x24 PUSH1 0x0 REVERT JUMPDEST PUSH1 0x0 PUSH1 0x1F NOT PUSH1 0x1F DUP4 ADD AND SWAP1 POP SWAP2 SWAP1 POP JUMP JUMPDEST PUSH32 0x73656E64206D6F726520636F6E747269627574696F6E00000000000000000000 PUSH1 0x0 DUP3 ADD MSTORE POP JUMP JUMPDEST PUSH32 0x656E64206174203E206D6178206475726174696F6E0000000000000000000000 PUSH1 0x0 DUP3 ADD MSTORE POP JUMP JUMPDEST PUSH32 0x4E6F742063726561746F72000000000000000000000000000000000000000000 PUSH1 0x0 DUP3 ADD MSTORE POP JUMP JUMPDEST PUSH32 0x656E64206174203C207374617274206174000000000000000000000000000000 PUSH1 0x0 DUP3 ADD MSTORE POP JUMP JUMPDEST PUSH32 0x7374617274206174203C206E6F77000000000000000000000000000000000000 PUSH1 0x0 DUP3 ADD MSTORE POP JUMP JUMPDEST PUSH32 0x706C6564676564203E3D20676F616C0000000000000000000000000000000000 PUSH1 0x0 DUP3 ADD MSTORE POP JUMP JUMPDEST PUSH32 0x7374617274656400000000000000000000000000000000000000000000000000 PUSH1 0x0 DUP3 ADD MSTORE POP JUMP JUMPDEST POP JUMP JUMPDEST PUSH32 0x7468652063616D7061696E672077617320636C61696D65640000000000000000 PUSH1 0x0 DUP3 ADD MSTORE POP JUMP JUMPDEST PUSH32 0x706C6564676564203C20676F616C000000000000000000000000000000000000 PUSH1 0x0 DUP3 ADD MSTORE POP JUMP JUMPDEST PUSH32 0x6E6F742073746172746564000000000000000000000000000000000000000000 PUSH1 0x0 DUP3 ADD MSTORE POP JUMP JUMPDEST PUSH32 0x656E646564000000000000000000000000000000000000000000000000000000 PUSH1 0x0 DUP3 ADD MSTORE POP JUMP JUMPDEST PUSH32 0x6E6F7420656E6465640000000000000000000000000000000000000000000000 PUSH1 0x0 DUP3 ADD MSTORE POP JUMP JUMPDEST PUSH2 0x41B7 DUP2 PUSH2 0x3DEA JUMP JUMPDEST DUP2 EQ PUSH2 0x41C2 JUMPI PUSH1 0x0 DUP1 REVERT JUMPDEST POP JUMP JUMPDEST PUSH2 0x41CE DUP2 PUSH2 0x3DF4 JUMP JUMPDEST DUP2 EQ PUSH2 0x41D9 JUMPI PUSH1 0x0 DUP1 REVERT JUMPDEST POP JUMP INVALID LOG2 PUSH5 0x6970667358 0x22 SLT KECCAK256 PUSH7 0xA1557E32232B1B 0x5E SWAP10 0x49 PUSH14 0xAEED6CC470570328117A2FF31B5C SWAP13 SWAP9 0x5D GASPRICE SWAP15 PUSH18 0x64736F6C6343000804003300000000000000 "
        },
        "gasEstimates": {
          "creation": {
            "codeDepositCost": "3382800",
            "executionCost": "infinite",
            "totalCost": "infinite"
          },
          "external": {
            "cancel(uint256)": "infinite",
            "claim(uint256)": "infinite",
            "getBalance()": "infinite",
            "getCampaignAtIndex(uint256)": "infinite",
            "getCampignsCount()": "infinite",
            "getMyPledgedAmount(uint256)": "infinite",
            "getOwner()": "infinite",
            "launchCampign(string,uint256,uint256,uint32,uint32)": "infinite",
            "pledge(uint256)": "infinite",
            "refund(uint256)": "infinite",
            "unpledge(uint256,uint256)": "infinite"
          },
          "internal": {
            "c_0x67ad062e(bytes32)": "11"
          }
        },
        "methodIdentifiers": {
          "cancel(uint256)": "40e58ee5",
          "claim(uint256)": "379607f5",
          "getBalance()": "12065fe0",
          "getCampaignAtIndex(uint256)": "6576216d",
          "getCampignsCount()": "8c6f0af2",
          "getMyPledgedAmount(uint256)": "3d1709f2",
          "getOwner()": "893d20e8",
          "launchCampign(string,uint256,uint256,uint32,uint32)": "72e8a6c8",
          "pledge(uint256)": "7326c9c0",
          "refund(uint256)": "278ecde1",
          "unpledge(uint256,uint256)": "711853ab"
        }
      },
      "storageLayout": {
        "storage": [
          {
            "astId": 114,
            "contract": "contracts/Crowdfund.sol:Crowdfund",
            "label": "s_campaignCount",
            "offset": 0,
            "slot": "0",
            "type": "t_uint256"
          },
          {
            "astId": 119,
            "contract": "contracts/Crowdfund.sol:Crowdfund",
            "label": "s_campaigns",
            "offset": 0,
            "slot": "1",
            "type": "t_mapping(t_uint256,t_struct(Campaign)110_storage)"
          },
          {
            "astId": 125,
            "contract": "contracts/Crowdfund.sol:Crowdfund",
            "label": "s_pledgedAmount",
            "offset": 0,
            "slot": "2",
            "type": "t_mapping(t_uint256,t_mapping(t_address,t_uint256))"
          }
        ],
        "types": {
          "t_address": {
            "encoding": "inplace",
            "label": "address",
            "numberOfBytes": "20"
          },
          "t_bool": {
            "encoding": "inplace",
            "label": "bool",
            "numberOfBytes": "1"
          },
          "t_mapping(t_address,t_uint256)": {
            "encoding": "mapping",
            "key": "t_address",
            "label": "mapping(address => uint256)",
            "numberOfBytes": "32",
            "value": "t_uint256"
          },
          "t_mapping(t_uint256,t_mapping(t_address,t_uint256))": {
            "encoding": "mapping",
            "key": "t_uint256",
            "label": "mapping(uint256 => mapping(address => uint256))",
            "numberOfBytes": "32",
            "value": "t_mapping(t_address,t_uint256)"
          },
          "t_mapping(t_uint256,t_struct(Campaign)110_storage)": {
            "encoding": "mapping",
            "key": "t_uint256",
            "label": "mapping(uint256 => struct Crowdfund.Campaign)",
            "numberOfBytes": "32",
            "value": "t_struct(Campaign)110_storage"
          },
          "t_string_storage": {
            "encoding": "bytes",
            "label": "string",
            "numberOfBytes": "32"
          },
          "t_struct(Campaign)110_storage": {
            "encoding": "inplace",
            "label": "struct Crowdfund.Campaign",
            "members": [
              {
                "astId": 95,
                "contract": "contracts/Crowdfund.sol:Crowdfund",
                "label": "creator",
                "offset": 0,
                "slot": "0",
                "type": "t_address"
              },
              {
                "astId": 97,
                "contract": "contracts/Crowdfund.sol:Crowdfund",
                "label": "description",
                "offset": 0,
                "slot": "1",
                "type": "t_string_storage"
              },
              {
                "astId": 99,
                "contract": "contracts/Crowdfund.sol:Crowdfund",
                "label": "goal",
                "offset": 0,
                "slot": "2",
                "type": "t_uint256"
              },
              {
                "astId": 101,
                "contract": "contracts/Crowdfund.sol:Crowdfund",
                "label": "pledged",
                "offset": 0,
                "slot": "3",
                "type": "t_uint256"
              },
              {
                "astId": 103,
                "contract": "contracts/Crowdfund.sol:Crowdfund",
                "label": "startAt",
                "offset": 0,
                "slot": "4",
                "type": "t_uint32"
              },
              {
                "astId": 105,
                "contract": "contracts/Crowdfund.sol:Crowdfund",
                "label": "endAt",
                "offset": 4,
                "slot": "4",
                "type": "t_uint32"
              },
              {
                "astId": 107,
                "contract": "contracts/Crowdfund.sol:Crowdfund",
                "label": "claimed",
                "offset": 8,
                "slot": "4",
                "type": "t_bool"
              },
              {
                "astId": 109,
                "contract": "contracts/Crowdfund.sol:Crowdfund",
                "label": "minimumContribution",
                "offset": 0,
                "slot": "5",
                "type": "t_uint256"
              }
            ],
            "numberOfBytes": "192"
          },
          "t_uint256": {
            "encoding": "inplace",
            "label": "uint256",
            "numberOfBytes": "32"
          },
          "t_uint32": {
            "encoding": "inplace",
            "label": "uint32",
            "numberOfBytes": "4"
          }
        }
      },
      "userdoc": {
        "kind": "user",
        "methods": {},
        "version": 1
      }
    }
  }
}