{
  "_format": "hh-sol-artifact-1",
  "contractName": "CrowdfundFactory",
  "sourceName": "contracts/CrowdfundFactory.sol",
  "abi": [
    {
      "inputs": [],
      "stateMutability": "nonpayable",
      "type": "constructor"
    },
    {
      "anonymous": false,
      "inputs": [
        {
          "indexed": false,
          "internalType": "address",
          "name": "crowdfundAddress",
          "type": "address"
        }
      ],
      "name": "crowdfundCreated",
      "type": "event"
    },
    {
      "inputs": [],
      "name": "createCrowdfund",
      "outputs": [],
      "stateMutability": "nonpayable",
      "type": "function"
    },
    {
      "inputs": [],
      "name": "getCrowdfundDeployed",
      "outputs": [
        {
          "internalType": "contract Crowdfund[]",
          "name": "",
          "type": "address[]"
        }
      ],
      "stateMutability": "view",
      "type": "function"
    },
    {
      "inputs": [],
      "name": "i_owner",
      "outputs": [
        {
          "internalType": "address",
          "name": "",
          "type": "address"
        }
      ],
      "stateMutability": "view",
      "type": "function"
    }
  ],
  "bytecode": "0x60a060405234801561001057600080fd5b503373ffffffffffffffffffffffffffffffffffffffff1660808173ffffffffffffffffffffffffffffffffffffffff1660601b8152505060805160601c61297e61006c6000396000818160900152610211015261297e6000f3fe608060405234801561001057600080fd5b50600436106100415760003560e01c80630353c9ee146100465780631ad9cee814610050578063dba6335f1461006e575b600080fd5b61004e61008c565b005b610058610181565b60405161006591906102ef565b60405180910390f35b61007661020f565b60405161008391906102d4565b60405180910390f35b60007f00000000000000000000000000000000000000000000000000000000000000006040516100bb90610233565b6100c591906102d4565b604051809103906000f0801580156100e1573d6000803e3d6000fd5b5090506000819080600181540180825580915050600190039060005260206000200160009091909190916101000a81548173ffffffffffffffffffffffffffffffffffffffff021916908373ffffffffffffffffffffffffffffffffffffffff1602179055507fea95889548f593b6f6d4b5ede4a70e37ba876d127623ab5005c2ea5aae6c30b48160405161017691906102d4565b60405180910390a150565b6060600080548060200260200160405190810160405280929190818152602001828054801561020557602002820191906000526020600020905b8160009054906101000a900473ffffffffffffffffffffffffffffffffffffffff1673ffffffffffffffffffffffffffffffffffffffff16815260200190600101908083116101bb575b5050505050905090565b7f000000000000000000000000000000000000000000000000000000000000000081565b6125a8806103a183390190565b600061024c83836102c5565b60208301905092915050565b6102618161034a565b82525050565b600061027282610321565b61027c8185610339565b935061028783610311565b8060005b838110156102b857815161029f8882610240565b97506102aa8361032c565b92505060018101905061028b565b5085935050505092915050565b6102ce8161037c565b82525050565b60006020820190506102e96000830184610258565b92915050565b600060208201905081810360008301526103098184610267565b905092915050565b6000819050602082019050919050565b600081519050919050565b6000602082019050919050565b600082825260208201905092915050565b60006103558261035c565b9050919050565b600073ffffffffffffffffffffffffffffffffffffffff82169050919050565b60006103878261038e565b9050919050565b60006103998261035c565b905091905056fe60a06040523480156200001157600080fd5b50604051620025a8380380620025a883398181016040528101906200003791906200008c565b8073ffffffffffffffffffffffffffffffffffffffff1660808173ffffffffffffffffffffffffffffffffffffffff1660601b815250505062000106565b6000815190506200008681620000ec565b92915050565b6000602082840312156200009f57600080fd5b6000620000af8482850162000075565b91505092915050565b6000620000c582620000cc565b9050919050565b600073ffffffffffffffffffffffffffffffffffffffff82169050919050565b620000f781620000b8565b81146200010357600080fd5b50565b60805160601c61247c6200012c6000396000818161084a01526115c6015261247c6000f3fe60806040526004361061009c5760003560e01c80636576216d116100645780636576216d14610184578063711853ab146101c157806372e8a6c8146101ea5780637326c9c014610213578063893d20e81461022f5780638c6f0af21461025a5761009c565b806312065fe0146100a1578063278ecde1146100cc578063379607f5146100f55780633d1709f21461011e57806340e58ee51461015b575b600080fd5b3480156100ad57600080fd5b506100b6610285565b6040516100c39190611da9565b60405180910390f35b3480156100d857600080fd5b506100f360048036038101906100ee9190611860565b61028d565b005b34801561010157600080fd5b5061011c60048036038101906101179190611860565b610659565b005b34801561012a57600080fd5b5061014560048036038101906101409190611860565b6109eb565b6040516101529190611da9565b60405180910390f35b34801561016757600080fd5b50610182600480360381019061017d9190611860565b610a45565b005b34801561019057600080fd5b506101ab60048036038101906101a69190611860565b610d76565b6040516101b89190611d87565b60405180910390f35b3480156101cd57600080fd5b506101e860048036038101906101e39190611889565b610f11565b005b3480156101f657600080fd5b50610211600480360381019061020c91906117d1565b6110ff565b005b61022d60048036038101906102289190611860565b6113cd565b005b34801561023b57600080fd5b506102446115c2565b6040516102519190611c2c565b60405180910390f35b34801561026657600080fd5b5061026f6115ea565b60405161027c9190611da9565b60405180910390f35b600047905090565b600060016000838152602001908152602001600020604051806101000160405290816000820160009054906101000a900473ffffffffffffffffffffffffffffffffffffffff1673ffffffffffffffffffffffffffffffffffffffff1673ffffffffffffffffffffffffffffffffffffffff168152602001600182018054610314906120b0565b80601f0160208091040260200160405190810160405280929190818152602001828054610340906120b0565b801561038d5780601f106103625761010080835404028352916020019161038d565b820191906000526020600020905b81548152906001019060200180831161037057829003601f168201915b5050505050815260200160028201548152602001600382015481526020016004820160009054906101000a900463ffffffff1663ffffffff1663ffffffff1681526020016004820160049054906101000a900463ffffffff1663ffffffff1663ffffffff1681526020016004820160089054906101000a900460ff1615151515815260200160058201548152505090508060a0015163ffffffff1642101561046a576040517f92c18e6400000000000000000000000000000000000000000000000000000000815260040161046190611d67565b60405180910390fd5b8060400151816060015111156104b5576040517f92c18e640000000000000000000000000000000000000000000000000000000081526004016104ac90611cc7565b60405180910390fd5b60006002600084815260200190815260200160002060003373ffffffffffffffffffffffffffffffffffffffff1673ffffffffffffffffffffffffffffffffffffffff16815260200190815260200160002054905060006002600085815260200190815260200160002060003373ffffffffffffffffffffffffffffffffffffffff1673ffffffffffffffffffffffffffffffffffffffff1681526020019081526020016000208190555060003373ffffffffffffffffffffffffffffffffffffffff168260405161058690611c17565b60006040518083038185875af1925050503d80600081146105c3576040519150601f19603f3d011682016040523d82523d6000602084013e6105c8565b606091505b5050905080610603576040517f397a23d500000000000000000000000000000000000000000000000000000000815260040160405180910390fd5b3373ffffffffffffffffffffffffffffffffffffffff167f21e12a7cad0da5928167e1084ea4d5fdf8d9af66657a2543a9ac76a0ca081477858460405161064b929190611e2c565b60405180910390a250505050565b60006001600083815260200190815260200160002090503373ffffffffffffffffffffffffffffffffffffffff168160000160009054906101000a900473ffffffffffffffffffffffffffffffffffffffff1673ffffffffffffffffffffffffffffffffffffffff1614610702576040517f6eaf9ef40000000000000000000000000000000000000000000000000000000081526004016106f990611c67565b60405180910390fd5b8060040160049054906101000a900463ffffffff1663ffffffff1642101561075f576040517f92c18e6400000000000000000000000000000000000000000000000000000000815260040161075690611d67565b60405180910390fd5b8060020154816003015410156107b657806003015481600201546040517fea4aa32b0000000000000000000000000000000000000000000000000000000081526004016107ad929190611e91565b60405180910390fd5b8060040160089054906101000a900460ff1615610808576040517f1fba87d90000000000000000000000000000000000000000000000000000000081526004016107ff90611d07565b60405180910390fd5b60006064826002015461081b9190611fb1565b905060008260000160009054906101000a900473ffffffffffffffffffffffffffffffffffffffff16905060007f000000000000000000000000000000000000000000000000000000000000000073ffffffffffffffffffffffffffffffffffffffff168360405161088c90611c17565b60006040518083038185875af1925050503d80600081146108c9576040519150601f19603f3d011682016040523d82523d6000602084013e6108ce565b606091505b5050905060008273ffffffffffffffffffffffffffffffffffffffff168486600301546108fb9190611fe2565b60405161090790611c17565b60006040518083038185875af1925050503d8060008114610944576040519150601f19603f3d011682016040523d82523d6000602084013e610949565b606091505b50509050801580610958575081155b1561098f576040517f397a23d500000000000000000000000000000000000000000000000000000000815260040160405180910390fd5b60018560040160086101000a81548160ff0219169083151502179055507f7bb2b3c10797baccb6f8c4791f1edd6ca2f0d028ee0eda64b01a9a57e3a653f7866040516109db9190611da9565b60405180910390a1505050505050565b60006002600083815260200190815260200160002060003373ffffffffffffffffffffffffffffffffffffffff1673ffffffffffffffffffffffffffffffffffffffff168152602001908152602001600020549050919050565b600060016000838152602001908152602001600020604051806101000160405290816000820160009054906101000a900473ffffffffffffffffffffffffffffffffffffffff1673ffffffffffffffffffffffffffffffffffffffff1673ffffffffffffffffffffffffffffffffffffffff168152602001600182018054610acc906120b0565b80601f0160208091040260200160405190810160405280929190818152602001828054610af8906120b0565b8015610b455780601f10610b1a57610100808354040283529160200191610b45565b820191906000526020600020905b815481529060010190602001808311610b2857829003601f168201915b5050505050815260200160028201548152602001600382015481526020016004820160009054906101000a900463ffffffff1663ffffffff1663ffffffff1681526020016004820160049054906101000a900463ffffffff1663ffffffff1663ffffffff1681526020016004820160089054906101000a900460ff1615151515815260200160058201548152505090503373ffffffffffffffffffffffffffffffffffffffff16816000015173ffffffffffffffffffffffffffffffffffffffff1614610c47576040517f6eaf9ef4000000000000000000000000000000000000000000000000000000008152600401610c3e90611c67565b60405180910390fd5b806080015163ffffffff16421115610c94576040517f92c18e64000000000000000000000000000000000000000000000000000000008152600401610c8b90611ce7565b60405180910390fd5b60016000838152602001908152602001600020600080820160006101000a81549073ffffffffffffffffffffffffffffffffffffffff0219169055600182016000610cdf91906115f3565b600282016000905560038201600090556004820160006101000a81549063ffffffff02191690556004820160046101000a81549063ffffffff02191690556004820160086101000a81549060ff0219169055600582016000905550507f8bf30e7ff26833413be5f69e1d373744864d600b664204b4a2f9844a8eedb9ed82604051610d6a9190611da9565b60405180910390a15050565b610d7e611633565b60016000838152602001908152602001600020604051806101000160405290816000820160009054906101000a900473ffffffffffffffffffffffffffffffffffffffff1673ffffffffffffffffffffffffffffffffffffffff1673ffffffffffffffffffffffffffffffffffffffff168152602001600182018054610e03906120b0565b80601f0160208091040260200160405190810160405280929190818152602001828054610e2f906120b0565b8015610e7c5780601f10610e5157610100808354040283529160200191610e7c565b820191906000526020600020905b815481529060010190602001808311610e5f57829003601f168201915b5050505050815260200160028201548152602001600382015481526020016004820160009054906101000a900463ffffffff1663ffffffff1663ffffffff1681526020016004820160049054906101000a900463ffffffff1663ffffffff1663ffffffff1681526020016004820160089054906101000a900460ff161515151581526020016005820154815250509050919050565b60006001600084815260200190815260200160002090508060040160049054906101000a900463ffffffff1663ffffffff16421115610f85576040517f92c18e64000000000000000000000000000000000000000000000000000000008152600401610f7c90611d47565b60405180910390fd5b81816003016000828254610f999190611fe2565b92505081905550816002600085815260200190815260200160002060003373ffffffffffffffffffffffffffffffffffffffff1673ffffffffffffffffffffffffffffffffffffffff16815260200190815260200160002060008282546110009190611fe2565b9250508190555060003373ffffffffffffffffffffffffffffffffffffffff168360405161102d90611c17565b60006040518083038185875af1925050503d806000811461106a576040519150601f19603f3d011682016040523d82523d6000602084013e61106f565b606091505b50509050806110aa576040517f397a23d500000000000000000000000000000000000000000000000000000000815260040160405180910390fd5b3373ffffffffffffffffffffffffffffffffffffffff16847f2eeeab891b26a214d1b25749f88a406bdea852bd8c9bfda977e0ef8114c180ba856040516110f19190611da9565b60405180910390a350505050565b428263ffffffff161015611148576040517f92c18e6400000000000000000000000000000000000000000000000000000000815260040161113f90611ca7565b60405180910390fd5b8163ffffffff168163ffffffff161015611197576040517f92c18e6400000000000000000000000000000000000000000000000000000000815260040161118e90611c87565b60405180910390fd5b629e3400426111a69190611f5b565b8163ffffffff1611156111ee576040517f92c18e640000000000000000000000000000000000000000000000000000000081526004016111e590611c47565b60405180910390fd5b60008081548092919061120090612113565b91905055506040518061010001604052803373ffffffffffffffffffffffffffffffffffffffff168152602001868152602001858152602001600081526020018363ffffffff1681526020018263ffffffff16815260200160001515815260200184815250600160008054815260200190815260200160002060008201518160000160006101000a81548173ffffffffffffffffffffffffffffffffffffffff021916908373ffffffffffffffffffffffffffffffffffffffff16021790555060208201518160010190805190602001906112dc92919061169c565b50604082015181600201556060820151816003015560808201518160040160006101000a81548163ffffffff021916908363ffffffff16021790555060a08201518160040160046101000a81548163ffffffff021916908363ffffffff16021790555060c08201518160040160086101000a81548160ff02191690831515021790555060e082015181600501559050503373ffffffffffffffffffffffffffffffffffffffff167fb680f4a81a5ec2568fea4b180e7a699b5ce52912daf0724701218b2b7ee0f90460005487878787876040516113be96959493929190611dc4565b60405180910390a25050505050565b60006001600083815260200190815260200160002090508060040160009054906101000a900463ffffffff1663ffffffff16421015611441576040517f92c18e6400000000000000000000000000000000000000000000000000000000815260040161143890611d27565b60405180910390fd5b8060040160049054906101000a900463ffffffff1663ffffffff1642111561149e576040517f92c18e6400000000000000000000000000000000000000000000000000000000815260040161149590611d47565b60405180910390fd5b80600501543410156114ed578060050154346040517feb70789f0000000000000000000000000000000000000000000000000000000081526004016114e4929190611e55565b60405180910390fd5b348160030160008282546115019190611f5b565b92505081905550346002600084815260200190815260200160002060003373ffffffffffffffffffffffffffffffffffffffff1673ffffffffffffffffffffffffffffffffffffffff16815260200190815260200160002060008282546115689190611f5b565b925050819055503373ffffffffffffffffffffffffffffffffffffffff16827f06bdb975df800a73232998e71ed585d536222f1dfeaa622d7f62a23ada686c82346040516115b69190611da9565b60405180910390a35050565b60007f0000000000000000000000000000000000000000000000000000000000000000905090565b60008054905090565b5080546115ff906120b0565b6000825580601f106116115750611630565b601f01602090049060005260206000209081019061162f9190611722565b5b50565b604051806101000160405280600073ffffffffffffffffffffffffffffffffffffffff168152602001606081526020016000815260200160008152602001600063ffffffff168152602001600063ffffffff168152602001600015158152602001600081525090565b8280546116a8906120b0565b90600052602060002090601f0160209004810192826116ca5760008555611711565b82601f106116e357805160ff1916838001178555611711565b82800160010185558215611711579182015b828111156117105782518255916020019190600101906116f5565b5b50905061171e9190611722565b5090565b5b8082111561173b576000816000905550600101611723565b5090565b600061175261174d84611ef2565b611ecd565b90508281526020810184848401111561176a57600080fd5b61177584828561206e565b509392505050565b600082601f83011261178e57600080fd5b813561179e84826020860161173f565b91505092915050565b6000813590506117b681612418565b92915050565b6000813590506117cb8161242f565b92915050565b600080600080600060a086880312156117e957600080fd5b600086013567ffffffffffffffff81111561180357600080fd5b61180f8882890161177d565b9550506020611820888289016117a7565b9450506040611831888289016117a7565b9350506060611842888289016117bc565b9250506080611853888289016117bc565b9150509295509295909350565b60006020828403121561187257600080fd5b6000611880848285016117a7565b91505092915050565b6000806040838503121561189c57600080fd5b60006118aa858286016117a7565b92505060206118bb858286016117a7565b9150509250929050565b6118ce81612016565b82525050565b6118dd81612016565b82525050565b6118ec81612028565b82525050565b60006118fd82611f23565b6119078185611f39565b935061191781856020860161207d565b61192081612218565b840191505092915050565b600061193682611f23565b6119408185611f4a565b935061195081856020860161207d565b61195981612218565b840191505092915050565b6000611971601683611f4a565b915061197c82612229565b602082019050919050565b6000611994601583611f4a565b915061199f82612252565b602082019050919050565b60006119b7600b83611f4a565b91506119c28261227b565b602082019050919050565b60006119da601183611f4a565b91506119e5826122a4565b602082019050919050565b60006119fd600e83611f4a565b9150611a08826122cd565b602082019050919050565b6000611a20600f83611f4a565b9150611a2b826122f6565b602082019050919050565b6000611a43600783611f4a565b9150611a4e8261231f565b602082019050919050565b6000611a66600083611f2e565b9150611a7182612348565b600082019050919050565b6000611a89601883611f4a565b9150611a948261234b565b602082019050919050565b6000611aac600e83611f4a565b9150611ab782612374565b602082019050919050565b6000611acf600b83611f4a565b9150611ada8261239d565b602082019050919050565b6000611af2600583611f4a565b9150611afd826123c6565b602082019050919050565b6000611b15600983611f4a565b9150611b20826123ef565b602082019050919050565b600061010083016000830151611b4460008601826118c5565b5060208301518482036020860152611b5c82826118f2565b9150506040830151611b716040860182611bdb565b506060830151611b846060860182611bdb565b506080830151611b976080860182611bf9565b5060a0830151611baa60a0860182611bf9565b5060c0830151611bbd60c08601826118e3565b5060e0830151611bd060e0860182611bdb565b508091505092915050565b611be481612054565b82525050565b611bf381612054565b82525050565b611c028161205e565b82525050565b611c118161205e565b82525050565b6000611c2282611a59565b9150819050919050565b6000602082019050611c4160008301846118d4565b92915050565b60006020820190508181036000830152611c6081611987565b9050919050565b60006020820190508181036000830152611c80816119aa565b9050919050565b60006020820190508181036000830152611ca0816119cd565b9050919050565b60006020820190508181036000830152611cc0816119f0565b9050919050565b60006020820190508181036000830152611ce081611a13565b9050919050565b60006020820190508181036000830152611d0081611a36565b9050919050565b60006020820190508181036000830152611d2081611a7c565b9050919050565b60006020820190508181036000830152611d4081611ac2565b9050919050565b60006020820190508181036000830152611d6081611ae5565b9050919050565b60006020820190508181036000830152611d8081611b08565b9050919050565b60006020820190508181036000830152611da18184611b2b565b905092915050565b6000602082019050611dbe6000830184611bea565b92915050565b600060c082019050611dd96000830189611bea565b8181036020830152611deb818861192b565b9050611dfa6040830187611bea565b611e076060830186611bea565b611e146080830185611c08565b611e2160a0830184611c08565b979650505050505050565b6000604082019050611e416000830185611bea565b611e4e6020830184611bea565b9392505050565b6000606082019050611e6a6000830185611bea565b611e776020830184611bea565b8181036040830152611e8881611964565b90509392505050565b6000606082019050611ea66000830185611bea565b611eb36020830184611bea565b8181036040830152611ec481611a9f565b90509392505050565b6000611ed7611ee8565b9050611ee382826120e2565b919050565b6000604051905090565b600067ffffffffffffffff821115611f0d57611f0c6121e9565b5b611f1682612218565b9050602081019050919050565b600081519050919050565b600081905092915050565b600082825260208201905092915050565b600082825260208201905092915050565b6000611f6682612054565b9150611f7183612054565b9250827fffffffffffffffffffffffffffffffffffffffffffffffffffffffffffffffff03821115611fa657611fa561215c565b5b828201905092915050565b6000611fbc82612054565b9150611fc783612054565b925082611fd757611fd661218b565b5b828204905092915050565b6000611fed82612054565b9150611ff883612054565b92508282101561200b5761200a61215c565b5b828203905092915050565b600061202182612034565b9050919050565b60008115159050919050565b600073ffffffffffffffffffffffffffffffffffffffff82169050919050565b6000819050919050565b600063ffffffff82169050919050565b82818337600083830152505050565b60005b8381101561209b578082015181840152602081019050612080565b838111156120aa576000848401525b50505050565b600060028204905060018216806120c857607f821691505b602082108114156120dc576120db6121ba565b5b50919050565b6120eb82612218565b810181811067ffffffffffffffff8211171561210a576121096121e9565b5b80604052505050565b600061211e82612054565b91507fffffffffffffffffffffffffffffffffffffffffffffffffffffffffffffffff8214156121515761215061215c565b5b600182019050919050565b7f4e487b7100000000000000000000000000000000000000000000000000000000600052601160045260246000fd5b7f4e487b7100000000000000000000000000000000000000000000000000000000600052601260045260246000fd5b7f4e487b7100000000000000000000000000000000000000000000000000000000600052602260045260246000fd5b7f4e487b7100000000000000000000000000000000000000000000000000000000600052604160045260246000fd5b6000601f19601f8301169050919050565b7f73656e64206d6f726520636f6e747269627574696f6e00000000000000000000600082015250565b7f656e64206174203e206d6178206475726174696f6e0000000000000000000000600082015250565b7f4e6f742063726561746f72000000000000000000000000000000000000000000600082015250565b7f656e64206174203c207374617274206174000000000000000000000000000000600082015250565b7f7374617274206174203c206e6f77000000000000000000000000000000000000600082015250565b7f706c6564676564203e3d20676f616c0000000000000000000000000000000000600082015250565b7f7374617274656400000000000000000000000000000000000000000000000000600082015250565b50565b7f7468652063616d7061696e672077617320636c61696d65640000000000000000600082015250565b7f706c6564676564203c20676f616c000000000000000000000000000000000000600082015250565b7f6e6f742073746172746564000000000000000000000000000000000000000000600082015250565b7f656e646564000000000000000000000000000000000000000000000000000000600082015250565b7f6e6f7420656e6465640000000000000000000000000000000000000000000000600082015250565b61242181612054565b811461242c57600080fd5b50565b6124388161205e565b811461244357600080fd5b5056fea2646970667358221220c7329317653d989235fc617f9a946c53e69903372ddf46f3d3ca2ca9cdad719d64736f6c63430008040033a2646970667358221220ab4d381d3752524c8e1d4051093c22b7a45f4dc3f0a741eb9cd06a8599fa6ecc64736f6c63430008040033",
  "linkReferences": {},
  "deployedLinkReferences": {}
}