{
  "_format": "hh-sol-artifact-1",
  "contractName": "Crowdfund",
  "sourceName": "contracts/Crowdfund.sol",
  "abi": [
    {
      "inputs": [
        {
          "internalType": "address",
          "name": "_owner",
          "type": "address"
        }
      ],
      "stateMutability": "nonpayable",
      "type": "constructor"
    },
    {
      "inputs": [],
      "name": "CrowdFund__AmountFail",
      "type": "error"
    },
    {
      "inputs": [
        {
          "internalType": "uint256",
          "name": "pledged",
          "type": "uint256"
        },
        {
          "internalType": "uint256",
          "name": "goal",
          "type": "uint256"
        },
        {
          "internalType": "string",
          "name": "message",
          "type": "string"
        }
      ],
      "name": "CrowdFund__Goal",
      "type": "error"
    },
    {
      "inputs": [
        {
          "internalType": "string",
          "name": "message",
          "type": "string"
        }
      ],
      "name": "CrowdFund__HasClaimed",
      "type": "error"
    },
    {
      "inputs": [
        {
          "internalType": "uint256",
          "name": "requiered",
          "type": "uint256"
        },
        {
          "internalType": "uint256",
          "name": "actual",
          "type": "uint256"
        },
        {
          "internalType": "string",
          "name": "message",
          "type": "string"
        }
      ],
      "name": "CrowdFund__MinimumContribution",
      "type": "error"
    },
    {
      "inputs": [
        {
          "internalType": "string",
          "name": "message",
          "type": "string"
        }
      ],
      "name": "CrowdFund__NotCreator",
      "type": "error"
    },
    {
      "inputs": [
        {
          "internalType": "string",
          "name": "message",
          "type": "string"
        }
      ],
      "name": "CrowdFund__TimeFailing",
      "type": "error"
    },
    {
      "inputs": [],
      "name": "CrowdFund__TransferFailed",
      "type": "error"
    },
    {
      "anonymous": false,
      "inputs": [
        {
          "indexed": false,
          "internalType": "uint256",
          "name": "id",
          "type": "uint256"
        }
      ],
      "name": "Cancel",
      "type": "event"
    },
    {
      "anonymous": false,
      "inputs": [
        {
          "indexed": false,
          "internalType": "uint256",
          "name": "id",
          "type": "uint256"
        }
      ],
      "name": "Claim",
      "type": "event"
    },
    {
      "anonymous": false,
      "inputs": [
        {
          "indexed": false,
          "internalType": "uint256",
          "name": "id",
          "type": "uint256"
        },
        {
          "indexed": true,
          "internalType": "address",
          "name": "creator",
          "type": "address"
        },
        {
          "indexed": false,
          "internalType": "string",
          "name": "description",
          "type": "string"
        },
        {
          "indexed": false,
          "internalType": "uint256",
          "name": "goal",
          "type": "uint256"
        },
        {
          "indexed": false,
          "internalType": "uint256",
          "name": "minimumContribution",
          "type": "uint256"
        },
        {
          "indexed": false,
          "internalType": "uint32",
          "name": "startAt",
          "type": "uint32"
        },
        {
          "indexed": false,
          "internalType": "uint32",
          "name": "endAt",
          "type": "uint32"
        }
      ],
      "name": "LaunchCampign",
      "type": "event"
    },
    {
      "anonymous": false,
      "inputs": [
        {
          "indexed": true,
          "internalType": "uint256",
          "name": "id",
          "type": "uint256"
        },
        {
          "indexed": true,
          "internalType": "address",
          "name": "caller",
          "type": "address"
        },
        {
          "indexed": false,
          "internalType": "uint256",
          "name": "amount",
          "type": "uint256"
        }
      ],
      "name": "Pledge",
      "type": "event"
    },
    {
      "anonymous": false,
      "inputs": [
        {
          "indexed": false,
          "internalType": "uint256",
          "name": "id",
          "type": "uint256"
        },
        {
          "indexed": true,
          "internalType": "address",
          "name": "caller",
          "type": "address"
        },
        {
          "indexed": false,
          "internalType": "uint256",
          "name": "amount",
          "type": "uint256"
        }
      ],
      "name": "Refund",
      "type": "event"
    },
    {
      "anonymous": false,
      "inputs": [
        {
          "indexed": true,
          "internalType": "uint256",
          "name": "id",
          "type": "uint256"
        },
        {
          "indexed": true,
          "internalType": "address",
          "name": "caller",
          "type": "address"
        },
        {
          "indexed": false,
          "internalType": "uint256",
          "name": "amount",
          "type": "uint256"
        }
      ],
      "name": "Unpledge",
      "type": "event"
    },
    {
      "inputs": [
        {
          "internalType": "uint256",
          "name": "_id",
          "type": "uint256"
        }
      ],
      "name": "cancel",
      "outputs": [],
      "stateMutability": "nonpayable",
      "type": "function"
    },
    {
      "inputs": [
        {
          "internalType": "uint256",
          "name": "_id",
          "type": "uint256"
        }
      ],
      "name": "claim",
      "outputs": [],
      "stateMutability": "nonpayable",
      "type": "function"
    },
    {
      "inputs": [],
      "name": "getBalance",
      "outputs": [
        {
          "internalType": "uint256",
          "name": "",
          "type": "uint256"
        }
      ],
      "stateMutability": "view",
      "type": "function"
    },
    {
      "inputs": [
        {
          "internalType": "uint256",
          "name": "index",
          "type": "uint256"
        }
      ],
      "name": "getCampaignAtIndex",
      "outputs": [
        {
          "components": [
            {
              "internalType": "address",
              "name": "creator",
              "type": "address"
            },
            {
              "internalType": "string",
              "name": "description",
              "type": "string"
            },
            {
              "internalType": "uint256",
              "name": "goal",
              "type": "uint256"
            },
            {
              "internalType": "uint256",
              "name": "pledged",
              "type": "uint256"
            },
            {
              "internalType": "uint32",
              "name": "startAt",
              "type": "uint32"
            },
            {
              "internalType": "uint32",
              "name": "endAt",
              "type": "uint32"
            },
            {
              "internalType": "bool",
              "name": "claimed",
              "type": "bool"
            },
            {
              "internalType": "uint256",
              "name": "minimumContribution",
              "type": "uint256"
            }
          ],
          "internalType": "struct Crowdfund.Campaign",
          "name": "",
          "type": "tuple"
        }
      ],
      "stateMutability": "view",
      "type": "function"
    },
    {
      "inputs": [],
      "name": "getCampignsCount",
      "outputs": [
        {
          "internalType": "uint256",
          "name": "",
          "type": "uint256"
        }
      ],
      "stateMutability": "view",
      "type": "function"
    },
    {
      "inputs": [
        {
          "internalType": "uint256",
          "name": "index",
          "type": "uint256"
        }
      ],
      "name": "getMyPledgedAmount",
      "outputs": [
        {
          "internalType": "uint256",
          "name": "",
          "type": "uint256"
        }
      ],
      "stateMutability": "view",
      "type": "function"
    },
    {
      "inputs": [],
      "name": "getOwner",
      "outputs": [
        {
          "internalType": "address",
          "name": "",
          "type": "address"
        }
      ],
      "stateMutability": "view",
      "type": "function"
    },
    {
      "inputs": [
        {
          "internalType": "string",
          "name": "_description",
          "type": "string"
        },
        {
          "internalType": "uint256",
          "name": "_goal",
          "type": "uint256"
        },
        {
          "internalType": "uint256",
          "name": "_minimumContribution",
          "type": "uint256"
        },
        {
          "internalType": "uint32",
          "name": "_startAt",
          "type": "uint32"
        },
        {
          "internalType": "uint32",
          "name": "_endAt",
          "type": "uint32"
        }
      ],
      "name": "launchCampign",
      "outputs": [],
      "stateMutability": "nonpayable",
      "type": "function"
    },
    {
      "inputs": [
        {
          "internalType": "uint256",
          "name": "_id",
          "type": "uint256"
        }
      ],
      "name": "pledge",
      "outputs": [],
      "stateMutability": "payable",
      "type": "function"
    },
    {
      "inputs": [
        {
          "internalType": "uint256",
          "name": "_id",
          "type": "uint256"
        }
      ],
      "name": "refund",
      "outputs": [],
      "stateMutability": "nonpayable",
      "type": "function"
    },
    {
      "inputs": [
        {
          "internalType": "uint256",
          "name": "_id",
          "type": "uint256"
        },
        {
          "internalType": "uint256",
          "name": "_amount",
          "type": "uint256"
        }
      ],
      "name": "unpledge",
      "outputs": [],
      "stateMutability": "nonpayable",
      "type": "function"
    }
  ],
  "bytecode": "0x60a06040523480156200001157600080fd5b50604051620043dd380380620043dd83398181016040528101906200003791906200012b565b6200006b7fcb849ae7ecc93b54836ede0e818bc2e03c4bcf737459a952ff8eb47c1b503c8660001b6200011160201b60201c565b6200009f7f67cf616ffd984f2f56faf60418366ac32fe60797baee00b83bbd6f94a20daa9f60001b6200011160201b60201c565b620000d37ff96b0adcc2d4fdc1a41addd6795cfc803a0876aa75a62cec7d56ea9fd21d876660001b6200011160201b60201c565b8073ffffffffffffffffffffffffffffffffffffffff1660808173ffffffffffffffffffffffffffffffffffffffff1660601b8152505050620001a5565b50565b60008151905062000125816200018b565b92915050565b6000602082840312156200013e57600080fd5b60006200014e8482850162000114565b91505092915050565b600062000164826200016b565b9050919050565b600073ffffffffffffffffffffffffffffffffffffffff82169050919050565b620001968162000157565b8114620001a257600080fd5b50565b60805160601c614212620001cb6000396000818161124e01526132b801526142126000f3fe60806040526004361061009c5760003560e01c80636576216d116100645780636576216d14610184578063711853ab146101c157806372e8a6c8146101ea5780637326c9c014610213578063893d20e81461022f5780638c6f0af21461025a5761009c565b806312065fe0146100a1578063278ecde1146100cc578063379607f5146100f55780633d1709f21461011e57806340e58ee51461015b575b600080fd5b3480156100ad57600080fd5b506100b6610285565b6040516100c39190613b03565b60405180910390f35b3480156100d857600080fd5b506100f360048036038101906100ee91906135da565b610311565b005b34801561010157600080fd5b5061011c600480360381019061011791906135da565b610b61565b005b34801561012a57600080fd5b50610145600480360381019061014091906135da565b6115d3565b6040516101529190613b03565b60405180910390f35b34801561016757600080fd5b50610182600480360381019061017d91906135da565b6116b1565b005b34801561019057600080fd5b506101ab60048036038101906101a691906135da565b611ca2565b6040516101b89190613ae1565b60405180910390f35b3480156101cd57600080fd5b506101e860048036038101906101e39190613603565b611ec1565b005b3480156101f657600080fd5b50610211600480360381019061020c919061354b565b6125b1565b005b61022d600480360381019061022891906135da565b612c1b565b005b34801561023b57600080fd5b50610244613230565b60405161025191906139a6565b60405180910390f35b34801561026657600080fd5b5061026f6132dc565b60405161027c9190613b03565b60405180910390f35b60006102b37ff4e4d614a56c0a594db2c8f1d928cd1f42d6d22b36a4ad7ddd7e7acebf1eadac60001b61336a565b6102df7fec614b6c560b28e03ef7d9dd23824e522fb6454a6eddaab0cbe10c0ba43ada1160001b61336a565b61030b7ffca74fdabf18548dbc27f7e20e0e73190e88eacca114beda7ed2dfb25333eef160001b61336a565b47905090565b61033d7fe2448011cc1100e92de44d15398defde77f0020d94bcaa97e2609bcb87a392d960001b61336a565b6103697fd05b6c8fcbebe5943b5578ac8d5db4c1422eac63c883da70e9db355113fb0ec360001b61336a565b6103957fc85577afb69c03b6352ca714ff48d23d29250bfe845e5e242538eebc6d4d71c160001b61336a565b600060016000838152602001908152602001600020604051806101000160405290816000820160009054906101000a900473ffffffffffffffffffffffffffffffffffffffff1673ffffffffffffffffffffffffffffffffffffffff1673ffffffffffffffffffffffffffffffffffffffff16815260200160018201805461041c90613e46565b80601f016020809104026020016040519081016040528092919081815260200182805461044890613e46565b80156104955780601f1061046a57610100808354040283529160200191610495565b820191906000526020600020905b81548152906001019060200180831161047857829003601f168201915b5050505050815260200160028201548152602001600382015481526020016004820160009054906101000a900463ffffffff1663ffffffff1663ffffffff1681526020016004820160049054906101000a900463ffffffff1663ffffffff1663ffffffff1681526020016004820160089054906101000a900460ff1615151515815260200160058201548152505090506105517f86a7fead816d8a603bbf5ef0979e053d484231d7b120a447041a5c9ed55e1ff960001b61336a565b61057d7f05731b7ad747a2198782fd5d9eab0571a04ff4cc38822deb0d2e9ad8f712cfd560001b61336a565b8060a0015163ffffffff16421015610622576105bb7f26d2b71eeef3d9c9ed6233b214766bd64472a40a78bc46df999398f12677301e60001b61336a565b6105e77ff57998f18f6a370d1a7e4be699b17f377426681225d3ec3cf353b9ffdba9f64c60001b61336a565b6040517f92c18e6400000000000000000000000000000000000000000000000000000000815260040161061990613ac1565b60405180910390fd5b61064e7f3ffa723e6de053d5a18b5760602ec0c03ccbd1200e6d67ae719215d410be7efc60001b61336a565b61067a7f1deed286b8c509b519411514c54fdb1a87f33ff962005e27b5385af617cef38060001b61336a565b6106a67ff05587efc2f3c0b5c86b83745fdb13dd5541a77a307ba3cbc0c4c5877052e3d260001b61336a565b806040015181606001511115610755576106e27ff385de0738df56754df62390c6ac887776d6c1ad28ffc3b2b36a57f635cd70f160001b61336a565b61070e7f29c4d14a5ccca23d1368456761a4d1064750903607204245e011fec79ac9dfe060001b61336a565b806060015181604001516040517f3e9d646000000000000000000000000000000000000000000000000000000000815260040161074c929190613beb565b60405180910390fd5b6107817faac63b9d7b7162b08645797320d371c1a962007574b742ff8e0ae269da6bf12960001b61336a565b6107ad7fb02170413631fba38493495b1f2df542d8851911a3a3cc2d94cdc3e5ecceb3ee60001b61336a565b6107d97fb3daf6d99e4e04448fa13ac28d2747c30c9bd336e941b096226fa52b5675c2c760001b61336a565b60006002600084815260200190815260200160002060003373ffffffffffffffffffffffffffffffffffffffff1673ffffffffffffffffffffffffffffffffffffffff16815260200190815260200160002054905061085a7f88110d8f07b7594dd2157246fcee29afd05b93bc52bec0c0c6f4053fbbd7423c60001b61336a565b6108867f8e2ac6354c3a8b8a44bfca70a9eaab3852a2d74768286d5739d53f730cbbcd6960001b61336a565b60006002600085815260200190815260200160002060003373ffffffffffffffffffffffffffffffffffffffff1673ffffffffffffffffffffffffffffffffffffffff168152602001908152602001600020819055506109087fb92e95f11935109652eab900fd3c64448286513926b322b8ec31b6238795dced60001b61336a565b6109347f46266c6625c0c7187cb981f46e54e51cf1cfdcaf11dc5309b9bc4efe7dd0684560001b61336a565b60003373ffffffffffffffffffffffffffffffffffffffff168260405161095a90613991565b60006040518083038185875af1925050503d8060008114610997576040519150601f19603f3d011682016040523d82523d6000602084013e61099c565b606091505b505090506109cc7f445d66af8f94eabd8f2c68df1a8f319d178f533cf461334bdc40dbce9da704ae60001b61336a565b6109f87f3612f7ab8fe230679fec8c1e5fe4585550f12c3c6722bb9192bbdd01392f6b1160001b61336a565b80610a8757610a297f23a5fd6c5c45169fc8bcff94e58a7230bfe4467467933ceab44b1be0b3d7538360001b61336a565b610a557fe9b5f9113fc71973817d7f9ffb263b9e1a4b76ebd01825fe12844fdfdb392d4360001b61336a565b6040517f397a23d500000000000000000000000000000000000000000000000000000000815260040160405180910390fd5b610ab37f1b5b51dbd87240d100abf2136f7bf955c2b990c4a0051ba5f89e4443304feb5e60001b61336a565b610adf7fc2fcecc9dd7eb964e668ef1bff6a5a2d9a61a0e02b74f7a539b17cb178c0f8b860001b61336a565b610b0b7f42932cba279a0cecc5f3b8d116369ea7f35ec8c0209e2f03bb7ab92886f386ce60001b61336a565b3373ffffffffffffffffffffffffffffffffffffffff167f21e12a7cad0da5928167e1084ea4d5fdf8d9af66657a2543a9ac76a0ca0814778584604051610b53929190613b86565b60405180910390a250505050565b610b8d7f877b1cf55eef0e9663947795c5a3dde4d1932cadf5c4e1ce0326be0765bb6e4960001b61336a565b610bb97fdf648ea3a781fe3a48be498bdd3b1313d5be58cb9b64426f6949851fb14daa7160001b61336a565b610be57fec93851c38211ad552a8fd7d3c8d4bd3aa66213ffdc89169e038a8cbcfdf02e760001b61336a565b6000600160008381526020019081526020016000209050610c287fec5360092565111c474840753b2dc4dbc83772abed5f61a57eb3f2e0cac6f3c560001b61336a565b610c547f87bac2c15a3d552a41e8f5db9eca4592f86e9136dd83748399342f83f339ba1860001b61336a565b3373ffffffffffffffffffffffffffffffffffffffff168160000160009054906101000a900473ffffffffffffffffffffffffffffffffffffffff1673ffffffffffffffffffffffffffffffffffffffff1614610d3e57610cd77f885dec40dff9c45c9694bf360c0adf932257d4382fba31f076ad732fe11c0d3a60001b61336a565b610d037fa1b54b88dc6dd17ac1b3375dac6b6548fef7612e677f32a6c2d083873f6de7b660001b61336a565b6040517f6eaf9ef4000000000000000000000000000000000000000000000000000000008152600401610d35906139e1565b60405180910390fd5b610d6a7f4b277489374eb61d26afa04872b42ee72a4104104f8fab7daa2458bd4fa2ffa160001b61336a565b610d967f96c0f2151e06cb053ba77726fe516deb5b879f6f7972fc8a02a9de99478a40f860001b61336a565b610dc27f3b99fe682ac3d360fa336d4dabb54157ad9115d1a1f0f15ac4f82af06cc541bb60001b61336a565b8060040160049054906101000a900463ffffffff1663ffffffff16421015610e7757610e107f6ed3e84619d2d886e3b32ec61a9ad0ddae9afd2602f592dae404af71829e0da760001b61336a565b610e3c7f10f3989f90ba356ba6595aca99022e25074ede9b7d9270abb1709e484e07564d60001b61336a565b6040517f92c18e64000000000000000000000000000000000000000000000000000000008152600401610e6e90613ac1565b60405180910390fd5b610ea37f756822b6c73a047d1cd3888b813acd339c064a52fb672e00cd1bded617d5512460001b61336a565b610ecf7f7b87121ce9cde1af1b09a962c3888f1f013286e89ef643bf209647f374c753f560001b61336a565b610efb7f31018fcf0d41ea4a9684981e947d46fa581a33347b5492339c75e053f7379ce960001b61336a565b806002015481600301541015610faa57610f377f8019b2e12a89d60828968f5ee85ea2c8a1534577e99168fde1d37a52f5cd649860001b61336a565b610f637f5ac1b30b0840fe7bc996bbc1c2db582867ddb85a1457f35a3dd4a59805f9bcc360001b61336a565b806003015481600201546040517f3e9d6460000000000000000000000000000000000000000000000000000000008152600401610fa1929190613c27565b60405180910390fd5b610fd67f9fb6ed986fcc28e54b1cf99512fdab073f1f64106ae51a6f8ba018541084eb1460001b61336a565b6110027fea6e8458d94fa3c14b7b88f92b0a3acfc4bd64b4f6fdafde0032320299db433460001b61336a565b61102e7f1a31ce8f325ac00e224d4fb0586e5fac0310344ef0a36e7d26f56002c14b2dcc60001b61336a565b8060040160089054906101000a900460ff16156110d8576110717f7f5a8c45cf45dfed45cc68f21d5230489ef0995511d9272fe6eb9ece7c21dfb160001b61336a565b61109d7f8e8603660f9d53c3eb1a2ff99bb7ebcbc9b00a6c5bdf31063ebfa47396f36d9360001b61336a565b6040517f1fba87d90000000000000000000000000000000000000000000000000000000081526004016110cf90613a61565b60405180910390fd5b6111047fc4e0515b977478e21dcfb354e2cb487de0a5f4351f4ff8d203c17c27c82b4e7060001b61336a565b6111307fe0eaa7b069db552327fb29284595d8b8f4978e77058eb915e5295f1c7c9a5f1f60001b61336a565b61115c7fcd6acc35dc44006d7e18e2e652fcf0a0efef46a2f8759a734cd3f0e69aa6e16860001b61336a565b60006064826002015461116f9190613d47565b905061119d7f373e3299e96ff49cff118f8d9f60a4771bae6fed03ae4e8aa6fdb65a50b4f39960001b61336a565b6111c97f354e2853446e2a66c6cb542ea075a4d69b0ba44fcb1ae8949cf70a486c4e36b960001b61336a565b60008260000160009054906101000a900473ffffffffffffffffffffffffffffffffffffffff16905061121e7fd9b08e40a56ecf49d0751af09236350b2e6aad518a29ac258a641d244b84444c60001b61336a565b61124a7ff6049de179ec46ef76c0ffe507c1a5c7356cc42c4d228cd98a0e63dbf81dac2260001b61336a565b60007f000000000000000000000000000000000000000000000000000000000000000073ffffffffffffffffffffffffffffffffffffffff168360405161129090613991565b60006040518083038185875af1925050503d80600081146112cd576040519150601f19603f3d011682016040523d82523d6000602084013e6112d2565b606091505b505090506113027f39ac60d3659fc3b6e4e40bbf9085635ae47e7572fa16542ce51156d644db629060001b61336a565b61132e7f0af6a0998902cdfe4b6e1f9001b34e09e4f4170f2269cb37f354c06262fe1a6360001b61336a565b60008273ffffffffffffffffffffffffffffffffffffffff168486600301546113579190613d78565b60405161136390613991565b60006040518083038185875af1925050503d80600081146113a0576040519150601f19603f3d011682016040523d82523d6000602084013e6113a5565b606091505b505090506113d57f7837b7fc10febcd5d12ce91f7c16ba48f5731fa3885288ba5d2a1605ef33780860001b61336a565b6114017fd7b8c66265144af6a58662b34455f96ef5f1408e6b24422f8856536b00ef3a6660001b61336a565b80158061140c575081155b1561149b5761143d7f1cbb8eb9f7a866cc8d429e4684acd97dfef8cc7431ef5768e965cf955bed805460001b61336a565b6114697f3f320e21deb208ed926f073db588f0c2e0c7b03bd112390eb0ea77d349e5a60f60001b61336a565b6040517f397a23d500000000000000000000000000000000000000000000000000000000815260040160405180910390fd5b6114c77fdc49e325dee1c450d8e9d5bfce8d32828c7a135e9e3b5660a50c1bc238d7535e60001b61336a565b6114f37fa15e7d0cd54f3ea49755a40616ccece679009420cc3f3d37021abd782963c01d60001b61336a565b61151f7fc22c4cf539b11181161d078dfc2af3fc06afe434d6ca285d28a2d30120a3def760001b61336a565b60018560040160086101000a81548160ff0219169083151502179055506115687f8aecb968dec38f93df8afd85ea9277aea768c2c456141a18a82f38da923f121960001b61336a565b6115947f6e27d82c5a89dde94cf3a0b7a64bd4614765f69bcee28b802364866848f19bcf60001b61336a565b7f7bb2b3c10797baccb6f8c4791f1edd6ca2f0d028ee0eda64b01a9a57e3a653f7866040516115c39190613b03565b60405180910390a1505050505050565b60006116017ff4f62105238bcb75e710a5b4509c920f3d7238f1f77932c5c498585d927e4d9560001b61336a565b61162d7faf11e139ef34a605f35f5d787961c8f1d9e85ed0cf80dd6980f925b8f8a0e3e060001b61336a565b6116597fa8df8508531f278cce3acd11ad2d708ac007ea82d69c0435063a0240d9a3bb0360001b61336a565b6002600083815260200190815260200160002060003373ffffffffffffffffffffffffffffffffffffffff1673ffffffffffffffffffffffffffffffffffffffff168152602001908152602001600020549050919050565b6116dd7f8168087d93c95a6d43a7104b21919a09645ed8d14fbaff0f539d9a0d4e446e4060001b61336a565b6117097fddd9fb81f69492ffc24cfc25cf6ec7480db694fbcbec8d2d0ca432ac9fd372ec60001b61336a565b6117357f35f7a0ac50643f1b99dd2261240037b3ea1d68865c443f8fdc631f048402e9d660001b61336a565b600060016000838152602001908152602001600020604051806101000160405290816000820160009054906101000a900473ffffffffffffffffffffffffffffffffffffffff1673ffffffffffffffffffffffffffffffffffffffff1673ffffffffffffffffffffffffffffffffffffffff1681526020016001820180546117bc90613e46565b80601f01602080910402602001604051908101604052809291908181526020018280546117e890613e46565b80156118355780601f1061180a57610100808354040283529160200191611835565b820191906000526020600020905b81548152906001019060200180831161181857829003601f168201915b5050505050815260200160028201548152602001600382015481526020016004820160009054906101000a900463ffffffff1663ffffffff1663ffffffff1681526020016004820160049054906101000a900463ffffffff1663ffffffff1663ffffffff1681526020016004820160089054906101000a900460ff1615151515815260200160058201548152505090506118f17f802b684071f88d456e77b6a7592b7b7d84782ba7afe47a649f925522923e30c560001b61336a565b61191d7fe1bf7ca9ef563a08c9da387ec73675f53654ad6976320ec4c78151660a92745460001b61336a565b3373ffffffffffffffffffffffffffffffffffffffff16816000015173ffffffffffffffffffffffffffffffffffffffff16146119e7576119807ff775d869b5e3cb26ed0376574cae970eb58bee2788a0d07e6bc65dfe47bf08ae60001b61336a565b6119ac7f3f129ecabe4063c2fb7115761ff022575cfd3afe5714291935644d03a06a134060001b61336a565b6040517f6eaf9ef40000000000000000000000000000000000000000000000000000000081526004016119de906139e1565b60405180910390fd5b611a137f3d526bca215827ac96acacc87c7b1a8a3c5b2649ebc3e1228a43d9fd841f648960001b61336a565b611a3f7f225c309e65572d860077e95a9aff19b1c83ada5a137073a3cd127e73440cf9d560001b61336a565b611a6b7fa2afb487e9acd402a20c0c9ba66e25fb05a806f6bd68ed03adbc0ebcc4383d5660001b61336a565b806080015163ffffffff16421115611b1057611aa97f0a07bbf56f705004e4c725e43d8dbba0e27acd1851d9118349893278970cd6e660001b61336a565b611ad57f1639ff2c1014e7c0953d9529b3b38e396581e3056f0f4bcc89187429b11d9d7360001b61336a565b6040517f92c18e64000000000000000000000000000000000000000000000000000000008152600401611b0790613a41565b60405180910390fd5b611b3c7f771961ab0e82c61c6dae4c8096a06e1224745ded6465117db2e8a5f9252d3ce060001b61336a565b611b687f8936b28bc88a77df1de2c5c84cea15f2310a7cba30669d30666cf76a214d5d5360001b61336a565b60016000838152602001908152602001600020600080820160006101000a81549073ffffffffffffffffffffffffffffffffffffffff0219169055600182016000611bb3919061336d565b600282016000905560038201600090556004820160006101000a81549063ffffffff02191690556004820160046101000a81549063ffffffff02191690556004820160086101000a81549060ff021916905560058201600090555050611c3b7f7111238a526c74bdfb33ffdb25bfc1f03ee698780c5549e1ad1ebc999b79906e60001b61336a565b611c677ff6953624d846b9173921265a7bd51376e7bdbdc0da8bb213dba6d80ce4bba6aa60001b61336a565b7f8bf30e7ff26833413be5f69e1d373744864d600b664204b4a2f9844a8eedb9ed82604051611c969190613b03565b60405180910390a15050565b611caa6133ad565b611cd67f24b7762c8bc7b3fa324db8bc4289116a347b31f84e94f982215fab769d80660d60001b61336a565b611d027f495130575288d8a93ec8c86c7ab23d149a2793ace9eeb2d796e32673991ccb7b60001b61336a565b611d2e7f32e000526a96d9a3ba5e4b5e305249c1576cab9abcb704528747ccf882c715cb60001b61336a565b60016000838152602001908152602001600020604051806101000160405290816000820160009054906101000a900473ffffffffffffffffffffffffffffffffffffffff1673ffffffffffffffffffffffffffffffffffffffff1673ffffffffffffffffffffffffffffffffffffffff168152602001600182018054611db390613e46565b80601f0160208091040260200160405190810160405280929190818152602001828054611ddf90613e46565b8015611e2c5780601f10611e0157610100808354040283529160200191611e2c565b820191906000526020600020905b815481529060010190602001808311611e0f57829003601f168201915b5050505050815260200160028201548152602001600382015481526020016004820160009054906101000a900463ffffffff1663ffffffff1663ffffffff1681526020016004820160049054906101000a900463ffffffff1663ffffffff1663ffffffff1681526020016004820160089054906101000a900460ff161515151581526020016005820154815250509050919050565b611eed7f1fe1217f7b3b9254957f93dbc5d91739b809bfb3dd73506fcf76e113992b415660001b61336a565b611f197f19ce6780656646bac6e09978fb6038fdea103213a0fb1a0a49858d354725f5e060001b61336a565b611f457f64e2b9165a2987787d97ab002fb4a3ce960c17f0fad2a721afe6e6234c75d1f460001b61336a565b6000600160008481526020019081526020016000209050611f887fce3d1152e050ea3f3041687ecffc431943537239a79c15dc50d3ba20fe3ee56260001b61336a565b611fb47fcf26c40e574b6086e834b2e55c415549526111cc628bdac680aaf0c12f8d742d60001b61336a565b8060040160049054906101000a900463ffffffff1663ffffffff16421115612069576120027f681770027a34c927e264d0dfecb6a91dfcbfe000a08792838be0547c0bfcdccb60001b61336a565b61202e7f1e999cd2ba162dc0acdc0bbb8a59949362fe2d9ac21137db048ac3d52e3b964660001b61336a565b6040517f92c18e6400000000000000000000000000000000000000000000000000000000815260040161206090613aa1565b60405180910390fd5b6120957fd7780664e3cddad2a87b35db1c202d23f2707c84f21b3732f230779a7f9b8cc660001b61336a565b6120c17fe48189449eee9ce057d398ef262846f7c1ce2a1fbd43def47bbeb39cc8f5df6360001b61336a565b6120ed7f157d45eecd54c0588e904f8bb7d5c171f04aa543e298a987dc1de380a886702c60001b61336a565b816002600085815260200190815260200160002060003373ffffffffffffffffffffffffffffffffffffffff1673ffffffffffffffffffffffffffffffffffffffff1681526020019081526020016000205410156121cf576121717fa1351321d637c27de807706b1cbe92f798da4b1dd0c565c6a882f8ac254851d060001b61336a565b61219d7fda7d0ff894f5cd8b8df38c8dc5af6fdb5ce234da483b19f6a7cc55e0b19adcc860001b61336a565b6040517f55c435f200000000000000000000000000000000000000000000000000000000815260040160405180910390fd5b6121fb7f31629e8182c0142df2e8ec4e68f5e25a97df0898efacb73cffcce7531968fd5b60001b61336a565b6122277f4f5b8c515f4d72c1129d45d0ec7210c466fe95f7d53cf8cec1f4e710cf672cb960001b61336a565b6122537ff046df25e5cb6cd7c5f51d6217c300854ee6e31650ae6c5f086a8c45415d9f5760001b61336a565b818160030160008282546122679190613d78565b9250508190555061229a7fe64a249e77598b7fc2871f87cac9960f3f91929deebfbf28218d7dbfe2a8f9b860001b61336a565b6122c67f42901346b9b01c8019324c7fc5103b2ae321239197b80f7519cdca62c2c3624360001b61336a565b816002600085815260200190815260200160002060003373ffffffffffffffffffffffffffffffffffffffff1673ffffffffffffffffffffffffffffffffffffffff16815260200190815260200160002060008282546123269190613d78565b925050819055506123597f8247a613ef49044af8296e587e9cff98dfee62fa337e316957bc3dfa2917b9ff60001b61336a565b6123857f73885c399d55d5140796b7afc924fd7fa78114e8e02004ba1566d1ae82920d8e60001b61336a565b60003373ffffffffffffffffffffffffffffffffffffffff16836040516123ab90613991565b60006040518083038185875af1925050503d80600081146123e8576040519150601f19603f3d011682016040523d82523d6000602084013e6123ed565b606091505b5050905061241d7f8da00f63788ca8549c6fc63dc3481f2f89471c692cd6aed1438603550020689560001b61336a565b6124497fefbd278f3a88c3cf11f7d92080ce97b7319ab588947451521dbd4b314439f90960001b61336a565b806124d85761247a7fe26604f6f46e093481844c31fe8c06c0b16ccd980fe8cf7e6cde55bac22f1b3560001b61336a565b6124a67f412c47a3ded07bc881cf3a5d6fb5b3f79520fd80ba35889fc4b84aafec817b6660001b61336a565b6040517f397a23d500000000000000000000000000000000000000000000000000000000815260040160405180910390fd5b6125047fffe9f9754acf8106d35cf45dfd69351932c634321e31b171611f6373129bfd5460001b61336a565b6125307ff3bd3cf051e0af96884433dd09004218f2bcca6661ce61514de18c5edfcb8cbf60001b61336a565b61255c7f492afcbcda51f084c574a060a11fbef6154cd941226eccaa42682e1685f9a62f60001b61336a565b3373ffffffffffffffffffffffffffffffffffffffff16847f2eeeab891b26a214d1b25749f88a406bdea852bd8c9bfda977e0ef8114c180ba856040516125a39190613b03565b60405180910390a350505050565b6125dd7f78c210ce1bad38188293cbc5e37e6240881912ac21319c1b978b57436c23781160001b61336a565b6126097fcf0ea156230d4051410626330ead1fed57c560b7fbc4f57b8274b20570688f0060001b61336a565b6126357f145d465c09818e63fa2565a33205cd9d2919b417ed706fe3f531192118f0156d60001b61336a565b428263ffffffff1610156126d65761266f7f1fbd58e3f1bbeb1dcac2a4a853027007a058663bf0ad54f4d9962e1b1e9a177960001b61336a565b61269b7f667078f5a7e11b6db63774e0561fc014084d4de4da4080cc832606f1dd31620860001b61336a565b6040517f92c18e640000000000000000000000000000000000000000000000000000000081526004016126cd90613a21565b60405180910390fd5b6127027fb0aa6a33f7d7086c2e19c942977e6da7bf5f004e72cf742f2138517921333b5b60001b61336a565b61272e7f0379a6f808d6b6e2ec0e0bfa8afa13aa67e1904c531e3c0d5a1fe223b7a3639960001b61336a565b61275a7fe71cc6ff24d279c1d38f974304174f84ddacdaa0084ec362d3ca7e641c788b6e60001b61336a565b8163ffffffff168163ffffffff1610156128015761279a7f22a35918155c0495b7a025cebb1d09d155f7f12ad102caa655f57f2d88e6446760001b61336a565b6127c67f6a2debc9dd48ea3867c25a2993351854e7471ad0cddcb7ee67e9e3b655e7acf160001b61336a565b6040517f92c18e640000000000000000000000000000000000000000000000000000000081526004016127f890613a01565b60405180910390fd5b61282d7fe03cbb0357c20c41b1d18d781ee7949a8d21029749ebd49dcebf5fc959c6b59160001b61336a565b6128597fdf6a2656716a76296b40431aa8b7befd9a8ac1f893bd2e54fdc264874e50badb60001b61336a565b6128857f2dbcfb5cecaaecd1d69efebaff562ca12fa0ac48a388266da9646c00117185b360001b61336a565b629e3400426128949190613cf1565b8163ffffffff161115612934576128cd7fc72f89c6d9177fc5b9e62e2d4448f8689327c0ca88ea1a4255471c62fcfe6d3a60001b61336a565b6128f97ff2c75641bff2ea4cc9936c7969cc6d96a50334b2a48b3dc1aa8a62667cbeb46160001b61336a565b6040517f92c18e6400000000000000000000000000000000000000000000000000000000815260040161292b906139c1565b60405180910390fd5b6129607f023a72745649cbc8dbc18c8107414979f2cf2887e83646cf5681dc95e9edf50760001b61336a565b61298c7f664018bfc668b7d96597c2fdb5dd41accaedffa215e7f0ffc2bec4834a2ea59860001b61336a565b60008081548092919061299e90613ea9565b91905055506129cf7fb5c65d158f452b386aca0ddc10112dfe96f70c8992de215df37773aa0b53ac1f60001b61336a565b6129fb7f538b60618a366a32cc785d078dbbdf2b2a69db891fbc2b97fe936e2632a12f2160001b61336a565b6040518061010001604052803373ffffffffffffffffffffffffffffffffffffffff168152602001868152602001858152602001600081526020018363ffffffff1681526020018263ffffffff16815260200160001515815260200184815250600160008054815260200190815260200160002060008201518160000160006101000a81548173ffffffffffffffffffffffffffffffffffffffff021916908373ffffffffffffffffffffffffffffffffffffffff1602179055506020820151816001019080519060200190612ad2929190613416565b50604082015181600201556060820151816003015560808201518160040160006101000a81548163ffffffff021916908363ffffffff16021790555060a08201518160040160046101000a81548163ffffffff021916908363ffffffff16021790555060c08201518160040160086101000a81548160ff02191690831515021790555060e08201518160050155905050612b8e7f83dcbc2ccc440159484e52399c51ada39bb4927417287cbebea866d260824cce60001b61336a565b612bba7fc033866e1d93ec049e33489a11acc8936d57c1d213648bcd4b9b11533c3bffed60001b61336a565b3373ffffffffffffffffffffffffffffffffffffffff167fb680f4a81a5ec2568fea4b180e7a699b5ce52912daf0724701218b2b7ee0f9046000548787878787604051612c0c96959493929190613b1e565b60405180910390a25050505050565b612c477ff2e532cbd3ef9c1b45a517aa6d931b8d0966031762b947b3825b80f8bfbcfb6760001b61336a565b612c737fd067b30739cce1dbbac39041b6b8a48693270711f924ff6c95868263ecbaecfc60001b61336a565b612c9f7f7b414417fbc01b2f15e778ba7a173e5f76db8301857f418bf2e07cefd85120a860001b61336a565b6000600160008381526020019081526020016000209050612ce27f61d28034205113254429a933db347c9818ac24c99ee9b10b9214501568d8de3560001b61336a565b612d0e7f263257a6b0f527c3353c4e84f604e0adaf7a472695f7d06fddc17466ac4a00b560001b61336a565b8060040160009054906101000a900463ffffffff1663ffffffff16421015612dc357612d5c7fbc0a4bcae9fe96ac849e6ee8f8cee6e887616192a6ba980c2381c61bf843fedc60001b61336a565b612d887fc9bbcb1901d3aa5e32cdb3435b9e56ccf5365fbaa0d1cf11e116bd426ffb953f60001b61336a565b6040517f92c18e64000000000000000000000000000000000000000000000000000000008152600401612dba90613a81565b60405180910390fd5b612def7f4ad7d3e78469408111a445371e5955c28fe85ab6bb5f43a081e9964de926e23d60001b61336a565b612e1b7fb4da9f7f4d319d8d4796aedc1f4e8c24a1eb83293208c102cfdd22e75bde8e6e60001b61336a565b612e477faa4f2ff6989ed53909323e8852d7810b530238415b22dec971f4e1be041b922260001b61336a565b8060040160049054906101000a900463ffffffff1663ffffffff16421115612efc57612e957fb8431d90def278e8954e8ccc41e9b3b2e8e9e0d71e4c5daa76b94406a61508ef60001b61336a565b612ec17f96286799944011edec8a3d2a0fde0c9930019a0545bd8536d2f67997a9a9d01960001b61336a565b6040517f92c18e64000000000000000000000000000000000000000000000000000000008152600401612ef390613aa1565b60405180910390fd5b612f287fd9bc54eb27c4ed905f2e8cdce9af52bd6652e63bea5383410f2a7792b6426b6760001b61336a565b612f547f21e7b3680ff08aaee6d68fea32a4a95c081975d300a0ab12efc6c941bd4a7efa60001b61336a565b612f807f030b0a00999f1234c7a2380607c3c50e4fbf588d994ad89bafde28e242f5ed4560001b61336a565b806005015434101561302757612fb87feae6382b798e02714f72f1564e88ab9e08e3359bec036eabcd87c86b097cd2d060001b61336a565b612fe47f3a5d5f207ecce15686570a5f61ee07c95136a680b36af1d5f414af3a9507964460001b61336a565b8060050154346040517feb70789f00000000000000000000000000000000000000000000000000000000815260040161301e929190613baf565b60405180910390fd5b6130537fa0462bb5376e744f43982bb4870720fd24770f9e25d4c067f5a7f3120021d8c460001b61336a565b61307f7f7f566d95363eb50b1073b611bf1a2ab0e2f593d6928bfcec0e14707b97c8530360001b61336a565b6130ab7fed0768b225e92d225d69b76901d650b58058c9c6c157718f258ca0ec4e01f08d60001b61336a565b348160030160008282546130bf9190613cf1565b925050819055506130f27f976c82509273c566dedb749219ae784c841c497f0d74a88733b43624e67c38fb60001b61336a565b61311e7fcd4aadcf7b08be8d66e5d9d07d2e77a355d3251d9e228f22be0515958c4412e760001b61336a565b346002600084815260200190815260200160002060003373ffffffffffffffffffffffffffffffffffffffff1673ffffffffffffffffffffffffffffffffffffffff168152602001908152602001600020600082825461317e9190613cf1565b925050819055506131b17f2b98ba96537a510fee9f75fe3886f3c088f3e039f0ff60d287ea5018995d5d1560001b61336a565b6131dd7f1e4b151862191bf0fdb2f3799c37b336bbd1c49ccb58a3782dd8e92302e8305460001b61336a565b3373ffffffffffffffffffffffffffffffffffffffff16827f06bdb975df800a73232998e71ed585d536222f1dfeaa622d7f62a23ada686c82346040516132249190613b03565b60405180910390a35050565b600061325e7f22cc9554e1c21bf859a19390b2146da54237b8a5401568be98908ccbd3de269560001b61336a565b61328a7fef40f6fa20a18f37e67c8f3091c547f156798fc2531dd972799c5b85814c23ee60001b61336a565b6132b67ff235890a25889f094d1892eb85cf8de87584d971605de6f0c05bc0c706395f4260001b61336a565b7f0000000000000000000000000000000000000000000000000000000000000000905090565b600061330a7f59a5b66ac43e584654ea749b50a52ea70234799adc332c0380adb6d3d5401bf860001b61336a565b6133367fb95d642368c8856bc0b29434a8fab805a40153132bd4a4637f561b9fba78530960001b61336a565b6133627f26f8833f3f266ecd0ae69a865744243201a62c2df0dbd4e4c60db619d52aa41f60001b61336a565b600054905090565b50565b50805461337990613e46565b6000825580601f1061338b57506133aa565b601f0160209004906000526020600020908101906133a9919061349c565b5b50565b604051806101000160405280600073ffffffffffffffffffffffffffffffffffffffff168152602001606081526020016000815260200160008152602001600063ffffffff168152602001600063ffffffff168152602001600015158152602001600081525090565b82805461342290613e46565b90600052602060002090601f016020900481019282613444576000855561348b565b82601f1061345d57805160ff191683800117855561348b565b8280016001018555821561348b579182015b8281111561348a57825182559160200191906001019061346f565b5b509050613498919061349c565b5090565b5b808211156134b557600081600090555060010161349d565b5090565b60006134cc6134c784613c88565b613c63565b9050828152602081018484840111156134e457600080fd5b6134ef848285613e04565b509392505050565b600082601f83011261350857600080fd5b81356135188482602086016134b9565b91505092915050565b600081359050613530816141ae565b92915050565b600081359050613545816141c5565b92915050565b600080600080600060a0868803121561356357600080fd5b600086013567ffffffffffffffff81111561357d57600080fd5b613589888289016134f7565b955050602061359a88828901613521565b94505060406135ab88828901613521565b93505060606135bc88828901613536565b92505060806135cd88828901613536565b9150509295509295909350565b6000602082840312156135ec57600080fd5b60006135fa84828501613521565b91505092915050565b6000806040838503121561361657600080fd5b600061362485828601613521565b925050602061363585828601613521565b9150509250929050565b61364881613dac565b82525050565b61365781613dac565b82525050565b61366681613dbe565b82525050565b600061367782613cb9565b6136818185613ccf565b9350613691818560208601613e13565b61369a81613fae565b840191505092915050565b60006136b082613cb9565b6136ba8185613ce0565b93506136ca818560208601613e13565b6136d381613fae565b840191505092915050565b60006136eb601683613ce0565b91506136f682613fbf565b602082019050919050565b600061370e601583613ce0565b915061371982613fe8565b602082019050919050565b6000613731600b83613ce0565b915061373c82614011565b602082019050919050565b6000613754601183613ce0565b915061375f8261403a565b602082019050919050565b6000613777600e83613ce0565b915061378282614063565b602082019050919050565b600061379a600f83613ce0565b91506137a58261408c565b602082019050919050565b60006137bd600783613ce0565b91506137c8826140b5565b602082019050919050565b60006137e0600083613cc4565b91506137eb826140de565b600082019050919050565b6000613803601883613ce0565b915061380e826140e1565b602082019050919050565b6000613826600e83613ce0565b91506138318261410a565b602082019050919050565b6000613849600b83613ce0565b915061385482614133565b602082019050919050565b600061386c600583613ce0565b91506138778261415c565b602082019050919050565b600061388f600983613ce0565b915061389a82614185565b602082019050919050565b6000610100830160008301516138be600086018261363f565b50602083015184820360208601526138d6828261366c565b91505060408301516138eb6040860182613955565b5060608301516138fe6060860182613955565b5060808301516139116080860182613973565b5060a083015161392460a0860182613973565b5060c083015161393760c086018261365d565b5060e083015161394a60e0860182613955565b508091505092915050565b61395e81613dea565b82525050565b61396d81613dea565b82525050565b61397c81613df4565b82525050565b61398b81613df4565b82525050565b600061399c826137d3565b9150819050919050565b60006020820190506139bb600083018461364e565b92915050565b600060208201905081810360008301526139da81613701565b9050919050565b600060208201905081810360008301526139fa81613724565b9050919050565b60006020820190508181036000830152613a1a81613747565b9050919050565b60006020820190508181036000830152613a3a8161376a565b9050919050565b60006020820190508181036000830152613a5a816137b0565b9050919050565b60006020820190508181036000830152613a7a816137f6565b9050919050565b60006020820190508181036000830152613a9a8161383c565b9050919050565b60006020820190508181036000830152613aba8161385f565b9050919050565b60006020820190508181036000830152613ada81613882565b9050919050565b60006020820190508181036000830152613afb81846138a5565b905092915050565b6000602082019050613b186000830184613964565b92915050565b600060c082019050613b336000830189613964565b8181036020830152613b4581886136a5565b9050613b546040830187613964565b613b616060830186613964565b613b6e6080830185613982565b613b7b60a0830184613982565b979650505050505050565b6000604082019050613b9b6000830185613964565b613ba86020830184613964565b9392505050565b6000606082019050613bc46000830185613964565b613bd16020830184613964565b8181036040830152613be2816136de565b90509392505050565b6000606082019050613c006000830185613964565b613c0d6020830184613964565b8181036040830152613c1e8161378d565b90509392505050565b6000606082019050613c3c6000830185613964565b613c496020830184613964565b8181036040830152613c5a81613819565b90509392505050565b6000613c6d613c7e565b9050613c798282613e78565b919050565b6000604051905090565b600067ffffffffffffffff821115613ca357613ca2613f7f565b5b613cac82613fae565b9050602081019050919050565b600081519050919050565b600081905092915050565b600082825260208201905092915050565b600082825260208201905092915050565b6000613cfc82613dea565b9150613d0783613dea565b9250827fffffffffffffffffffffffffffffffffffffffffffffffffffffffffffffffff03821115613d3c57613d3b613ef2565b5b828201905092915050565b6000613d5282613dea565b9150613d5d83613dea565b925082613d6d57613d6c613f21565b5b828204905092915050565b6000613d8382613dea565b9150613d8e83613dea565b925082821015613da157613da0613ef2565b5b828203905092915050565b6000613db782613dca565b9050919050565b60008115159050919050565b600073ffffffffffffffffffffffffffffffffffffffff82169050919050565b6000819050919050565b600063ffffffff82169050919050565b82818337600083830152505050565b60005b83811015613e31578082015181840152602081019050613e16565b83811115613e40576000848401525b50505050565b60006002820490506001821680613e5e57607f821691505b60208210811415613e7257613e71613f50565b5b50919050565b613e8182613fae565b810181811067ffffffffffffffff82111715613ea057613e9f613f7f565b5b80604052505050565b6000613eb482613dea565b91507fffffffffffffffffffffffffffffffffffffffffffffffffffffffffffffffff821415613ee757613ee6613ef2565b5b600182019050919050565b7f4e487b7100000000000000000000000000000000000000000000000000000000600052601160045260246000fd5b7f4e487b7100000000000000000000000000000000000000000000000000000000600052601260045260246000fd5b7f4e487b7100000000000000000000000000000000000000000000000000000000600052602260045260246000fd5b7f4e487b7100000000000000000000000000000000000000000000000000000000600052604160045260246000fd5b6000601f19601f8301169050919050565b7f73656e64206d6f726520636f6e747269627574696f6e00000000000000000000600082015250565b7f656e64206174203e206d6178206475726174696f6e0000000000000000000000600082015250565b7f4e6f742063726561746f72000000000000000000000000000000000000000000600082015250565b7f656e64206174203c207374617274206174000000000000000000000000000000600082015250565b7f7374617274206174203c206e6f77000000000000000000000000000000000000600082015250565b7f706c6564676564203e3d20676f616c0000000000000000000000000000000000600082015250565b7f7374617274656400000000000000000000000000000000000000000000000000600082015250565b50565b7f7468652063616d7061696e672077617320636c61696d65640000000000000000600082015250565b7f706c6564676564203c20676f616c000000000000000000000000000000000000600082015250565b7f6e6f742073746172746564000000000000000000000000000000000000000000600082015250565b7f656e646564000000000000000000000000000000000000000000000000000000600082015250565b7f6e6f7420656e6465640000000000000000000000000000000000000000000000600082015250565b6141b781613dea565b81146141c257600080fd5b50565b6141ce81613df4565b81146141d957600080fd5b5056fea264697066735822122066a1557e32232b1b5e99496daeed6cc470570328117a2ff31b5c9c985d3a9e7164736f6c63430008040033",
  "linkReferences": {},
  "deployedLinkReferences": {}
}